{
	"contracts/tokens.sol": {
		"Tokens": {
			"abi": [
				{
					"inputs": [
						{
							"internalType": "address payable",
							"name": "_wallet",
							"type": "address"
						}
					],
					"stateMutability": "nonpayable",
					"type": "constructor"
				},
				{
					"inputs": [],
					"name": "buyToken",
					"outputs": [],
					"stateMutability": "payable",
					"type": "function"
				},
				{
					"inputs": [],
					"name": "sellToken",
					"outputs": [],
					"stateMutability": "payable",
					"type": "function"
				}
			],
			"devdoc": {
				"kind": "dev",
				"methods": {},
				"version": 1
			},
			"evm": {
				"assembly": "    /* \"contracts/tokens.sol\":63:709  contract Tokens {\r... */\n  mstore(0x40, 0x80)\n    /* \"contracts/tokens.sol\":209:281  constructor(address payable _wallet) {\r... */\n  callvalue\n  dup1\n  iszero\n  tag_1\n  jumpi\n  0x00\n  dup1\n  revert\ntag_1:\n  pop\n  mload(0x40)\n  sub(codesize, bytecodeSize)\n  dup1\n  bytecodeSize\n  dup4\n  codecopy\n  dup2\n  dup2\n  add\n  0x40\n  mstore\n  dup2\n  add\n  swap1\n  tag_2\n  swap2\n  swap1\n  tag_3\n  jump\t// in\ntag_2:\n    /* \"contracts/tokens.sol\":266:273  _wallet */\n  dup1\n    /* \"contracts/tokens.sol\":257:263  wallet */\n  0x01\n  0x00\n    /* \"contracts/tokens.sol\":257:273  wallet = _wallet */\n  0x0100\n  exp\n  dup2\n  sload\n  dup2\n  0xffffffffffffffffffffffffffffffffffffffff\n  mul\n  not\n  and\n  swap1\n  dup4\n  0xffffffffffffffffffffffffffffffffffffffff\n  and\n  mul\n  or\n  swap1\n  sstore\n  pop\n    /* \"contracts/tokens.sol\":209:281  constructor(address payable _wallet) {\r... */\n  pop\n    /* \"contracts/tokens.sol\":63:709  contract Tokens {\r... */\n  jump(tag_6)\n    /* \"#utility.yul\":7:166   */\ntag_8:\n    /* \"#utility.yul\":72:77   */\n  0x00\n    /* \"#utility.yul\":103:109   */\n  dup2\n    /* \"#utility.yul\":97:110   */\n  mload\n    /* \"#utility.yul\":88:110   */\n  swap1\n  pop\n    /* \"#utility.yul\":119:160   */\n  tag_10\n    /* \"#utility.yul\":154:159   */\n  dup2\n    /* \"#utility.yul\":119:160   */\n  tag_11\n  jump\t// in\ntag_10:\n    /* \"#utility.yul\":7:166   */\n  swap3\n  swap2\n  pop\n  pop\n  jump\t// out\n    /* \"#utility.yul\":172:539   */\ntag_3:\n    /* \"#utility.yul\":250:256   */\n  0x00\n    /* \"#utility.yul\":299:301   */\n  0x20\n    /* \"#utility.yul\":287:296   */\n  dup3\n    /* \"#utility.yul\":278:285   */\n  dup5\n    /* \"#utility.yul\":274:297   */\n  sub\n    /* \"#utility.yul\":270:302   */\n  slt\n    /* \"#utility.yul\":267:386   */\n  iszero\n  tag_13\n  jumpi\n    /* \"#utility.yul\":305:384   */\n  tag_14\n  tag_15\n  jump\t// in\ntag_14:\n    /* \"#utility.yul\":267:386   */\ntag_13:\n    /* \"#utility.yul\":425:426   */\n  0x00\n    /* \"#utility.yul\":450:522   */\n  tag_16\n    /* \"#utility.yul\":514:521   */\n  dup5\n    /* \"#utility.yul\":505:511   */\n  dup3\n    /* \"#utility.yul\":494:503   */\n  dup6\n    /* \"#utility.yul\":490:512   */\n  add\n    /* \"#utility.yul\":450:522   */\n  tag_8\n  jump\t// in\ntag_16:\n    /* \"#utility.yul\":440:522   */\n  swap2\n  pop\n    /* \"#utility.yul\":396:532   */\n  pop\n    /* \"#utility.yul\":172:539   */\n  swap3\n  swap2\n  pop\n  pop\n  jump\t// out\n    /* \"#utility.yul\":626:730   */\ntag_19:\n    /* \"#utility.yul\":671:678   */\n  0x00\n    /* \"#utility.yul\":700:724   */\n  tag_21\n    /* \"#utility.yul\":718:723   */\n  dup3\n    /* \"#utility.yul\":700:724   */\n  tag_22\n  jump\t// in\ntag_21:\n    /* \"#utility.yul\":689:724   */\n  swap1\n  pop\n    /* \"#utility.yul\":626:730   */\n  swap2\n  swap1\n  pop\n  jump\t// out\n    /* \"#utility.yul\":736:862   */\ntag_22:\n    /* \"#utility.yul\":773:780   */\n  0x00\n    /* \"#utility.yul\":813:855   */\n  0xffffffffffffffffffffffffffffffffffffffff\n    /* \"#utility.yul\":806:811   */\n  dup3\n    /* \"#utility.yul\":802:856   */\n  and\n    /* \"#utility.yul\":791:856   */\n  swap1\n  pop\n    /* \"#utility.yul\":736:862   */\n  swap2\n  swap1\n  pop\n  jump\t// out\n    /* \"#utility.yul\":991:1108   */\ntag_15:\n    /* \"#utility.yul\":1100:1101   */\n  0x00\n    /* \"#utility.yul\":1097:1098   */\n  dup1\n    /* \"#utility.yul\":1090:1102   */\n  revert\n    /* \"#utility.yul\":1114:1252   */\ntag_11:\n    /* \"#utility.yul\":1195:1227   */\n  tag_28\n    /* \"#utility.yul\":1221:1226   */\n  dup2\n    /* \"#utility.yul\":1195:1227   */\n  tag_19\n  jump\t// in\ntag_28:\n    /* \"#utility.yul\":1188:1193   */\n  dup2\n    /* \"#utility.yul\":1185:1228   */\n  eq\n    /* \"#utility.yul\":1175:1246   */\n  tag_29\n  jumpi\n    /* \"#utility.yul\":1242:1243   */\n  0x00\n    /* \"#utility.yul\":1239:1240   */\n  dup1\n    /* \"#utility.yul\":1232:1244   */\n  revert\n    /* \"#utility.yul\":1175:1246   */\ntag_29:\n    /* \"#utility.yul\":1114:1252   */\n  pop\n  jump\t// out\n    /* \"contracts/tokens.sol\":63:709  contract Tokens {\r... */\ntag_6:\n  dataSize(sub_0)\n  dup1\n  dataOffset(sub_0)\n  0x00\n  codecopy\n  0x00\n  return\nstop\n\nsub_0: assembly {\n        /* \"contracts/tokens.sol\":63:709  contract Tokens {\r... */\n      mstore(0x40, 0x80)\n      jumpi(tag_1, lt(calldatasize, 0x04))\n      shr(0xe0, calldataload(0x00))\n      dup1\n      0x9769f0b0\n      eq\n      tag_2\n      jumpi\n      dup1\n      0xa4821719\n      eq\n      tag_3\n      jumpi\n    tag_1:\n      0x00\n      dup1\n      revert\n        /* \"contracts/tokens.sol\":455:706  function sellToken() public payable {\r... */\n    tag_2:\n      tag_4\n      tag_5\n      jump\t// in\n    tag_4:\n      stop\n        /* \"contracts/tokens.sol\":289:447  function buyToken() public payable {\r... */\n    tag_3:\n      tag_6\n      tag_7\n      jump\t// in\n    tag_6:\n      stop\n        /* \"contracts/tokens.sol\":455:706  function sellToken() public payable {\r... */\n    tag_5:\n        /* \"contracts/tokens.sol\":502:520  Token memory token */\n      0x00\n        /* \"contracts/tokens.sol\":523:531  balances */\n      dup1\n        /* \"contracts/tokens.sol\":523:543  balances[msg.sender] */\n      0x00\n        /* \"contracts/tokens.sol\":532:542  msg.sender */\n      caller\n        /* \"contracts/tokens.sol\":523:543  balances[msg.sender] */\n      0xffffffffffffffffffffffffffffffffffffffff\n      and\n      0xffffffffffffffffffffffffffffffffffffffff\n      and\n      dup2\n      mstore\n      0x20\n      add\n      swap1\n      dup2\n      mstore\n      0x20\n      add\n      0x00\n      keccak256\n        /* \"contracts/tokens.sol\":574:575  1 */\n      0x01\n        /* \"contracts/tokens.sol\":544:552  balances */\n      0x00\n        /* \"contracts/tokens.sol\":544:564  balances[msg.sender] */\n      dup1\n        /* \"contracts/tokens.sol\":553:563  msg.sender */\n      caller\n        /* \"contracts/tokens.sol\":544:564  balances[msg.sender] */\n      0xffffffffffffffffffffffffffffffffffffffff\n      and\n      0xffffffffffffffffffffffffffffffffffffffff\n      and\n      dup2\n      mstore\n      0x20\n      add\n      swap1\n      dup2\n      mstore\n      0x20\n      add\n      0x00\n      keccak256\n        /* \"contracts/tokens.sol\":544:571  balances[msg.sender].length */\n      dup1\n      sload\n      swap1\n      pop\n        /* \"contracts/tokens.sol\":544:575  balances[msg.sender].length - 1 */\n      tag_9\n      swap2\n      swap1\n      tag_10\n      jump\t// in\n    tag_9:\n        /* \"contracts/tokens.sol\":523:576  balances[msg.sender][balances[msg.sender].length - 1] */\n      dup2\n      sload\n      dup2\n      lt\n      tag_11\n      jumpi\n      tag_12\n      tag_13\n      jump\t// in\n    tag_12:\n    tag_11:\n      swap1\n      0x00\n      mstore\n      keccak256(0x00, 0x20)\n      add\n        /* \"contracts/tokens.sol\":502:576  Token memory token = balances[msg.sender][balances[msg.sender].length - 1] */\n      mload(0x40)\n      dup1\n      0x20\n      add\n      0x40\n      mstore\n      swap1\n      dup2\n      0x00\n      dup3\n      add\n      sload\n      dup2\n      mstore\n      pop\n      pop\n      swap1\n      pop\n        /* \"contracts/tokens.sol\":594:602  balances */\n      0x00\n        /* \"contracts/tokens.sol\":594:614  balances[msg.sender] */\n      dup1\n        /* \"contracts/tokens.sol\":603:613  msg.sender */\n      caller\n        /* \"contracts/tokens.sol\":594:614  balances[msg.sender] */\n      0xffffffffffffffffffffffffffffffffffffffff\n      and\n      0xffffffffffffffffffffffffffffffffffffffff\n      and\n      dup2\n      mstore\n      0x20\n      add\n      swap1\n      dup2\n      mstore\n      0x20\n      add\n      0x00\n      keccak256\n        /* \"contracts/tokens.sol\":645:646  1 */\n      0x01\n        /* \"contracts/tokens.sol\":615:623  balances */\n      0x00\n        /* \"contracts/tokens.sol\":615:635  balances[msg.sender] */\n      dup1\n        /* \"contracts/tokens.sol\":624:634  msg.sender */\n      caller\n        /* \"contracts/tokens.sol\":615:635  balances[msg.sender] */\n      0xffffffffffffffffffffffffffffffffffffffff\n      and\n      0xffffffffffffffffffffffffffffffffffffffff\n      and\n      dup2\n      mstore\n      0x20\n      add\n      swap1\n      dup2\n      mstore\n      0x20\n      add\n      0x00\n      keccak256\n        /* \"contracts/tokens.sol\":615:642  balances[msg.sender].length */\n      dup1\n      sload\n      swap1\n      pop\n        /* \"contracts/tokens.sol\":615:646  balances[msg.sender].length - 1 */\n      tag_15\n      swap2\n      swap1\n      tag_10\n      jump\t// in\n    tag_15:\n        /* \"contracts/tokens.sol\":594:647  balances[msg.sender][balances[msg.sender].length - 1] */\n      dup2\n      sload\n      dup2\n      lt\n      tag_16\n      jumpi\n      tag_17\n      tag_13\n      jump\t// in\n    tag_17:\n    tag_16:\n      swap1\n      0x00\n      mstore\n      keccak256(0x00, 0x20)\n      add\n      0x00\n        /* \"contracts/tokens.sol\":587:647  delete balances[msg.sender][balances[msg.sender].length - 1] */\n      dup1\n      dup3\n      add\n      0x00\n      swap1\n      sstore\n      pop\n      pop\n        /* \"contracts/tokens.sol\":666:676  msg.sender */\n      caller\n        /* \"contracts/tokens.sol\":658:686  payable(msg.sender).transfer */\n      0xffffffffffffffffffffffffffffffffffffffff\n      and\n        /* \"contracts/tokens.sol\":658:698  payable(msg.sender).transfer(token.cost) */\n      0x08fc\n        /* \"contracts/tokens.sol\":687:692  token */\n      dup3\n        /* \"contracts/tokens.sol\":687:697  token.cost */\n      0x00\n      add\n      mload\n        /* \"contracts/tokens.sol\":658:698  payable(msg.sender).transfer(token.cost) */\n      swap1\n      dup2\n      iszero\n      mul\n      swap1\n      mload(0x40)\n      0x00\n      mload(0x40)\n      dup1\n      dup4\n      sub\n      dup2\n      dup6\n      dup9\n      dup9\n      call\n      swap4\n      pop\n      pop\n      pop\n      pop\n      iszero\n      dup1\n      iszero\n      tag_20\n      jumpi\n      returndatasize\n      0x00\n      dup1\n      returndatacopy\n      revert(0x00, returndatasize)\n    tag_20:\n      pop\n        /* \"contracts/tokens.sol\":491:706  {\r... */\n      pop\n        /* \"contracts/tokens.sol\":455:706  function sellToken() public payable {\r... */\n      jump\t// out\n        /* \"contracts/tokens.sol\":289:447  function buyToken() public payable {\r... */\n    tag_7:\n        /* \"contracts/tokens.sol\":335:343  balances */\n      0x00\n        /* \"contracts/tokens.sol\":335:355  balances[msg.sender] */\n      dup1\n        /* \"contracts/tokens.sol\":344:354  msg.sender */\n      caller\n        /* \"contracts/tokens.sol\":335:355  balances[msg.sender] */\n      0xffffffffffffffffffffffffffffffffffffffff\n      and\n      0xffffffffffffffffffffffffffffffffffffffff\n      and\n      dup2\n      mstore\n      0x20\n      add\n      swap1\n      dup2\n      mstore\n      0x20\n      add\n      0x00\n      keccak256\n        /* \"contracts/tokens.sol\":375:391  Token(msg.value) */\n      mload(0x40)\n      dup1\n      0x20\n      add\n      0x40\n      mstore\n      dup1\n        /* \"contracts/tokens.sol\":381:390  msg.value */\n      callvalue\n        /* \"contracts/tokens.sol\":375:391  Token(msg.value) */\n      dup2\n      mstore\n      pop\n        /* \"contracts/tokens.sol\":335:402  balances[msg.sender].push(\r... */\n      swap1\n      dup1\n      0x01\n      dup2\n      sload\n      add\n      dup1\n      dup3\n      sstore\n      dup1\n      swap2\n      pop\n      pop\n      0x01\n      swap1\n      sub\n      swap1\n      0x00\n      mstore\n      keccak256(0x00, 0x20)\n      add\n      0x00\n      swap1\n      swap2\n      swap1\n      swap2\n      swap1\n      swap2\n      pop\n      0x00\n      dup3\n      add\n      mload\n      dup2\n      0x00\n      add\n      sstore\n      pop\n      pop\n        /* \"contracts/tokens.sol\":413:419  wallet */\n      0x01\n      0x00\n      swap1\n      sload\n      swap1\n      0x0100\n      exp\n      swap1\n      div\n      0xffffffffffffffffffffffffffffffffffffffff\n      and\n        /* \"contracts/tokens.sol\":413:428  wallet.transfer */\n      0xffffffffffffffffffffffffffffffffffffffff\n      and\n        /* \"contracts/tokens.sol\":413:439  wallet.transfer(msg.value) */\n      0x08fc\n        /* \"contracts/tokens.sol\":429:438  msg.value */\n      callvalue\n        /* \"contracts/tokens.sol\":413:439  wallet.transfer(msg.value) */\n      swap1\n      dup2\n      iszero\n      mul\n      swap1\n      mload(0x40)\n      0x00\n      mload(0x40)\n      dup1\n      dup4\n      sub\n      dup2\n      dup6\n      dup9\n      dup9\n      call\n      swap4\n      pop\n      pop\n      pop\n      pop\n      iszero\n      dup1\n      iszero\n      tag_24\n      jumpi\n      returndatasize\n      0x00\n      dup1\n      returndatacopy\n      revert(0x00, returndatasize)\n    tag_24:\n      pop\n        /* \"contracts/tokens.sol\":289:447  function buyToken() public payable {\r... */\n      jump\t// out\n        /* \"#utility.yul\":7:198   */\n    tag_10:\n        /* \"#utility.yul\":47:51   */\n      0x00\n        /* \"#utility.yul\":67:87   */\n      tag_27\n        /* \"#utility.yul\":85:86   */\n      dup3\n        /* \"#utility.yul\":67:87   */\n      tag_28\n      jump\t// in\n    tag_27:\n        /* \"#utility.yul\":62:87   */\n      swap2\n      pop\n        /* \"#utility.yul\":101:121   */\n      tag_29\n        /* \"#utility.yul\":119:120   */\n      dup4\n        /* \"#utility.yul\":101:121   */\n      tag_28\n      jump\t// in\n    tag_29:\n        /* \"#utility.yul\":96:121   */\n      swap3\n      pop\n        /* \"#utility.yul\":140:141   */\n      dup3\n        /* \"#utility.yul\":137:138   */\n      dup3\n        /* \"#utility.yul\":134:142   */\n      lt\n        /* \"#utility.yul\":131:165   */\n      iszero\n      tag_30\n      jumpi\n        /* \"#utility.yul\":145:163   */\n      tag_31\n      tag_32\n      jump\t// in\n    tag_31:\n        /* \"#utility.yul\":131:165   */\n    tag_30:\n        /* \"#utility.yul\":190:191   */\n      dup3\n        /* \"#utility.yul\":187:188   */\n      dup3\n        /* \"#utility.yul\":183:192   */\n      sub\n        /* \"#utility.yul\":175:192   */\n      swap1\n      pop\n        /* \"#utility.yul\":7:198   */\n      swap3\n      swap2\n      pop\n      pop\n      jump\t// out\n        /* \"#utility.yul\":204:281   */\n    tag_28:\n        /* \"#utility.yul\":241:248   */\n      0x00\n        /* \"#utility.yul\":270:275   */\n      dup2\n        /* \"#utility.yul\":259:275   */\n      swap1\n      pop\n        /* \"#utility.yul\":204:281   */\n      swap2\n      swap1\n      pop\n      jump\t// out\n        /* \"#utility.yul\":287:467   */\n    tag_32:\n        /* \"#utility.yul\":335:412   */\n      0x4e487b7100000000000000000000000000000000000000000000000000000000\n        /* \"#utility.yul\":332:333   */\n      0x00\n        /* \"#utility.yul\":325:413   */\n      mstore\n        /* \"#utility.yul\":432:436   */\n      0x11\n        /* \"#utility.yul\":429:430   */\n      0x04\n        /* \"#utility.yul\":422:437   */\n      mstore\n        /* \"#utility.yul\":456:460   */\n      0x24\n        /* \"#utility.yul\":453:454   */\n      0x00\n        /* \"#utility.yul\":446:461   */\n      revert\n        /* \"#utility.yul\":473:653   */\n    tag_13:\n        /* \"#utility.yul\":521:598   */\n      0x4e487b7100000000000000000000000000000000000000000000000000000000\n        /* \"#utility.yul\":518:519   */\n      0x00\n        /* \"#utility.yul\":511:599   */\n      mstore\n        /* \"#utility.yul\":618:622   */\n      0x32\n        /* \"#utility.yul\":615:616   */\n      0x04\n        /* \"#utility.yul\":608:623   */\n      mstore\n        /* \"#utility.yul\":642:646   */\n      0x24\n        /* \"#utility.yul\":639:640   */\n      0x00\n        /* \"#utility.yul\":632:647   */\n      revert\n\n    auxdata: 0xa2646970667358221220ae082ca63eee1bc27855dc30fe7d4b2e65f53079cdea1bcf1b64966c0bee3b7864736f6c63430008070033\n}\n",
				"bytecode": {
					"linkReferences": {},
					"object": "608060405234801561001057600080fd5b506040516104d53803806104d58339818101604052810190610032919061008e565b80600160006101000a81548173ffffffffffffffffffffffffffffffffffffffff021916908373ffffffffffffffffffffffffffffffffffffffff16021790555050610109565b600081519050610088816100f2565b92915050565b6000602082840312156100a4576100a36100ed565b5b60006100b284828501610079565b91505092915050565b60006100c6826100cd565b9050919050565b600073ffffffffffffffffffffffffffffffffffffffff82169050919050565b600080fd5b6100fb816100bb565b811461010657600080fd5b50565b6103bd806101186000396000f3fe6080604052600436106100295760003560e01c80639769f0b01461002e578063a482171914610038575b600080fd5b610036610042565b005b610040610202565b005b60008060003373ffffffffffffffffffffffffffffffffffffffff1673ffffffffffffffffffffffffffffffffffffffff16815260200190815260200160002060016000803373ffffffffffffffffffffffffffffffffffffffff1673ffffffffffffffffffffffffffffffffffffffff168152602001908152602001600020805490506100d091906102eb565b815481106100e1576100e0610358565b5b9060005260206000200160405180602001604052908160008201548152505090506000803373ffffffffffffffffffffffffffffffffffffffff1673ffffffffffffffffffffffffffffffffffffffff16815260200190815260200160002060016000803373ffffffffffffffffffffffffffffffffffffffff1673ffffffffffffffffffffffffffffffffffffffff1681526020019081526020016000208054905061018e91906102eb565b8154811061019f5761019e610358565b5b9060005260206000200160008082016000905550503373ffffffffffffffffffffffffffffffffffffffff166108fc82600001519081150290604051600060405180830381858888f193505050501580156101fe573d6000803e3d6000fd5b5050565b6000803373ffffffffffffffffffffffffffffffffffffffff1673ffffffffffffffffffffffffffffffffffffffff16815260200190815260200160002060405180602001604052803481525090806001815401808255809150506001900390600052602060002001600090919091909150600082015181600001555050600160009054906101000a900473ffffffffffffffffffffffffffffffffffffffff1673ffffffffffffffffffffffffffffffffffffffff166108fc349081150290604051600060405180830381858888f193505050501580156102e8573d6000803e3d6000fd5b50565b60006102f68261031f565b91506103018361031f565b92508282101561031457610313610329565b5b828203905092915050565b6000819050919050565b7f4e487b7100000000000000000000000000000000000000000000000000000000600052601160045260246000fd5b7f4e487b7100000000000000000000000000000000000000000000000000000000600052603260045260246000fdfea2646970667358221220ae082ca63eee1bc27855dc30fe7d4b2e65f53079cdea1bcf1b64966c0bee3b7864736f6c63430008070033",
					"opcodes": "PUSH1 0x80 PUSH1 0x40 MSTORE CALLVALUE DUP1 ISZERO PUSH2 0x10 JUMPI PUSH1 0x0 DUP1 REVERT JUMPDEST POP PUSH1 0x40 MLOAD PUSH2 0x4D5 CODESIZE SUB DUP1 PUSH2 0x4D5 DUP4 CODECOPY DUP2 DUP2 ADD PUSH1 0x40 MSTORE DUP2 ADD SWAP1 PUSH2 0x32 SWAP2 SWAP1 PUSH2 0x8E JUMP JUMPDEST DUP1 PUSH1 0x1 PUSH1 0x0 PUSH2 0x100 EXP DUP2 SLOAD DUP2 PUSH20 0xFFFFFFFFFFFFFFFFFFFFFFFFFFFFFFFFFFFFFFFF MUL NOT AND SWAP1 DUP4 PUSH20 0xFFFFFFFFFFFFFFFFFFFFFFFFFFFFFFFFFFFFFFFF AND MUL OR SWAP1 SSTORE POP POP PUSH2 0x109 JUMP JUMPDEST PUSH1 0x0 DUP2 MLOAD SWAP1 POP PUSH2 0x88 DUP2 PUSH2 0xF2 JUMP JUMPDEST SWAP3 SWAP2 POP POP JUMP JUMPDEST PUSH1 0x0 PUSH1 0x20 DUP3 DUP5 SUB SLT ISZERO PUSH2 0xA4 JUMPI PUSH2 0xA3 PUSH2 0xED JUMP JUMPDEST JUMPDEST PUSH1 0x0 PUSH2 0xB2 DUP5 DUP3 DUP6 ADD PUSH2 0x79 JUMP JUMPDEST SWAP2 POP POP SWAP3 SWAP2 POP POP JUMP JUMPDEST PUSH1 0x0 PUSH2 0xC6 DUP3 PUSH2 0xCD JUMP JUMPDEST SWAP1 POP SWAP2 SWAP1 POP JUMP JUMPDEST PUSH1 0x0 PUSH20 0xFFFFFFFFFFFFFFFFFFFFFFFFFFFFFFFFFFFFFFFF DUP3 AND SWAP1 POP SWAP2 SWAP1 POP JUMP JUMPDEST PUSH1 0x0 DUP1 REVERT JUMPDEST PUSH2 0xFB DUP2 PUSH2 0xBB JUMP JUMPDEST DUP2 EQ PUSH2 0x106 JUMPI PUSH1 0x0 DUP1 REVERT JUMPDEST POP JUMP JUMPDEST PUSH2 0x3BD DUP1 PUSH2 0x118 PUSH1 0x0 CODECOPY PUSH1 0x0 RETURN INVALID PUSH1 0x80 PUSH1 0x40 MSTORE PUSH1 0x4 CALLDATASIZE LT PUSH2 0x29 JUMPI PUSH1 0x0 CALLDATALOAD PUSH1 0xE0 SHR DUP1 PUSH4 0x9769F0B0 EQ PUSH2 0x2E JUMPI DUP1 PUSH4 0xA4821719 EQ PUSH2 0x38 JUMPI JUMPDEST PUSH1 0x0 DUP1 REVERT JUMPDEST PUSH2 0x36 PUSH2 0x42 JUMP JUMPDEST STOP JUMPDEST PUSH2 0x40 PUSH2 0x202 JUMP JUMPDEST STOP JUMPDEST PUSH1 0x0 DUP1 PUSH1 0x0 CALLER PUSH20 0xFFFFFFFFFFFFFFFFFFFFFFFFFFFFFFFFFFFFFFFF AND PUSH20 0xFFFFFFFFFFFFFFFFFFFFFFFFFFFFFFFFFFFFFFFF AND DUP2 MSTORE PUSH1 0x20 ADD SWAP1 DUP2 MSTORE PUSH1 0x20 ADD PUSH1 0x0 KECCAK256 PUSH1 0x1 PUSH1 0x0 DUP1 CALLER PUSH20 0xFFFFFFFFFFFFFFFFFFFFFFFFFFFFFFFFFFFFFFFF AND PUSH20 0xFFFFFFFFFFFFFFFFFFFFFFFFFFFFFFFFFFFFFFFF AND DUP2 MSTORE PUSH1 0x20 ADD SWAP1 DUP2 MSTORE PUSH1 0x20 ADD PUSH1 0x0 KECCAK256 DUP1 SLOAD SWAP1 POP PUSH2 0xD0 SWAP2 SWAP1 PUSH2 0x2EB JUMP JUMPDEST DUP2 SLOAD DUP2 LT PUSH2 0xE1 JUMPI PUSH2 0xE0 PUSH2 0x358 JUMP JUMPDEST JUMPDEST SWAP1 PUSH1 0x0 MSTORE PUSH1 0x20 PUSH1 0x0 KECCAK256 ADD PUSH1 0x40 MLOAD DUP1 PUSH1 0x20 ADD PUSH1 0x40 MSTORE SWAP1 DUP2 PUSH1 0x0 DUP3 ADD SLOAD DUP2 MSTORE POP POP SWAP1 POP PUSH1 0x0 DUP1 CALLER PUSH20 0xFFFFFFFFFFFFFFFFFFFFFFFFFFFFFFFFFFFFFFFF AND PUSH20 0xFFFFFFFFFFFFFFFFFFFFFFFFFFFFFFFFFFFFFFFF AND DUP2 MSTORE PUSH1 0x20 ADD SWAP1 DUP2 MSTORE PUSH1 0x20 ADD PUSH1 0x0 KECCAK256 PUSH1 0x1 PUSH1 0x0 DUP1 CALLER PUSH20 0xFFFFFFFFFFFFFFFFFFFFFFFFFFFFFFFFFFFFFFFF AND PUSH20 0xFFFFFFFFFFFFFFFFFFFFFFFFFFFFFFFFFFFFFFFF AND DUP2 MSTORE PUSH1 0x20 ADD SWAP1 DUP2 MSTORE PUSH1 0x20 ADD PUSH1 0x0 KECCAK256 DUP1 SLOAD SWAP1 POP PUSH2 0x18E SWAP2 SWAP1 PUSH2 0x2EB JUMP JUMPDEST DUP2 SLOAD DUP2 LT PUSH2 0x19F JUMPI PUSH2 0x19E PUSH2 0x358 JUMP JUMPDEST JUMPDEST SWAP1 PUSH1 0x0 MSTORE PUSH1 0x20 PUSH1 0x0 KECCAK256 ADD PUSH1 0x0 DUP1 DUP3 ADD PUSH1 0x0 SWAP1 SSTORE POP POP CALLER PUSH20 0xFFFFFFFFFFFFFFFFFFFFFFFFFFFFFFFFFFFFFFFF AND PUSH2 0x8FC DUP3 PUSH1 0x0 ADD MLOAD SWAP1 DUP2 ISZERO MUL SWAP1 PUSH1 0x40 MLOAD PUSH1 0x0 PUSH1 0x40 MLOAD DUP1 DUP4 SUB DUP2 DUP6 DUP9 DUP9 CALL SWAP4 POP POP POP POP ISZERO DUP1 ISZERO PUSH2 0x1FE JUMPI RETURNDATASIZE PUSH1 0x0 DUP1 RETURNDATACOPY RETURNDATASIZE PUSH1 0x0 REVERT JUMPDEST POP POP JUMP JUMPDEST PUSH1 0x0 DUP1 CALLER PUSH20 0xFFFFFFFFFFFFFFFFFFFFFFFFFFFFFFFFFFFFFFFF AND PUSH20 0xFFFFFFFFFFFFFFFFFFFFFFFFFFFFFFFFFFFFFFFF AND DUP2 MSTORE PUSH1 0x20 ADD SWAP1 DUP2 MSTORE PUSH1 0x20 ADD PUSH1 0x0 KECCAK256 PUSH1 0x40 MLOAD DUP1 PUSH1 0x20 ADD PUSH1 0x40 MSTORE DUP1 CALLVALUE DUP2 MSTORE POP SWAP1 DUP1 PUSH1 0x1 DUP2 SLOAD ADD DUP1 DUP3 SSTORE DUP1 SWAP2 POP POP PUSH1 0x1 SWAP1 SUB SWAP1 PUSH1 0x0 MSTORE PUSH1 0x20 PUSH1 0x0 KECCAK256 ADD PUSH1 0x0 SWAP1 SWAP2 SWAP1 SWAP2 SWAP1 SWAP2 POP PUSH1 0x0 DUP3 ADD MLOAD DUP2 PUSH1 0x0 ADD SSTORE POP POP PUSH1 0x1 PUSH1 0x0 SWAP1 SLOAD SWAP1 PUSH2 0x100 EXP SWAP1 DIV PUSH20 0xFFFFFFFFFFFFFFFFFFFFFFFFFFFFFFFFFFFFFFFF AND PUSH20 0xFFFFFFFFFFFFFFFFFFFFFFFFFFFFFFFFFFFFFFFF AND PUSH2 0x8FC CALLVALUE SWAP1 DUP2 ISZERO MUL SWAP1 PUSH1 0x40 MLOAD PUSH1 0x0 PUSH1 0x40 MLOAD DUP1 DUP4 SUB DUP2 DUP6 DUP9 DUP9 CALL SWAP4 POP POP POP POP ISZERO DUP1 ISZERO PUSH2 0x2E8 JUMPI RETURNDATASIZE PUSH1 0x0 DUP1 RETURNDATACOPY RETURNDATASIZE PUSH1 0x0 REVERT JUMPDEST POP JUMP JUMPDEST PUSH1 0x0 PUSH2 0x2F6 DUP3 PUSH2 0x31F JUMP JUMPDEST SWAP2 POP PUSH2 0x301 DUP4 PUSH2 0x31F JUMP JUMPDEST SWAP3 POP DUP3 DUP3 LT ISZERO PUSH2 0x314 JUMPI PUSH2 0x313 PUSH2 0x329 JUMP JUMPDEST JUMPDEST DUP3 DUP3 SUB SWAP1 POP SWAP3 SWAP2 POP POP JUMP JUMPDEST PUSH1 0x0 DUP2 SWAP1 POP SWAP2 SWAP1 POP JUMP JUMPDEST PUSH32 0x4E487B7100000000000000000000000000000000000000000000000000000000 PUSH1 0x0 MSTORE PUSH1 0x11 PUSH1 0x4 MSTORE PUSH1 0x24 PUSH1 0x0 REVERT JUMPDEST PUSH32 0x4E487B7100000000000000000000000000000000000000000000000000000000 PUSH1 0x0 MSTORE PUSH1 0x32 PUSH1 0x4 MSTORE PUSH1 0x24 PUSH1 0x0 REVERT INVALID LOG2 PUSH5 0x6970667358 0x22 SLT KECCAK256 0xAE ADDMOD 0x2C 0xA6 RETURNDATACOPY 0xEE SHL 0xC2 PUSH25 0x55DC30FE7D4B2E65F53079CDEA1BCF1B64966C0BEE3B786473 PUSH16 0x6C634300080700330000000000000000 "
				},
				"gasEstimates": {
					"creation": {
						"codeDepositCost": "191400",
						"executionCost": "infinite",
						"totalCost": "infinite"
					},
					"external": {
						"buyToken()": "infinite",
						"sellToken()": "infinite"
					}
				},
				"methodIdentifiers": {
					"buyToken()": "a4821719",
					"sellToken()": "9769f0b0"
				}
			},
			"userdoc": {
				"kind": "user",
				"methods": {},
				"version": 1
			}
		}
	}
}