{
	"contracts/tokens.sol": {
		"Tokens": {
			"abi": [
				{
					"inputs": [
						{
							"internalType": "address payable",
							"name": "_wallet",
							"type": "address"
						}
					],
					"stateMutability": "nonpayable",
					"type": "constructor"
				},
				{
					"inputs": [],
					"name": "buyToken",
					"outputs": [],
					"stateMutability": "payable",
					"type": "function"
				},
				{
					"inputs": [
						{
							"internalType": "address",
							"name": "_address",
							"type": "address"
						}
					],
					"name": "getTokens",
					"outputs": [
						{
							"components": [
								{
									"internalType": "uint256",
									"name": "cost",
									"type": "uint256"
								}
							],
							"internalType": "struct Tokens.Token[]",
							"name": "",
							"type": "tuple[]"
						}
					],
					"stateMutability": "nonpayable",
					"type": "function"
				}
			],
			"devdoc": {
				"kind": "dev",
				"methods": {},
				"version": 1
			},
			"evm": {
				"assembly": "    /* \"contracts/tokens.sol\":63:569  contract Tokens {\r... */\n  mstore(0x40, 0x80)\n    /* \"contracts/tokens.sol\":209:281  constructor(address payable _wallet) {\r... */\n  callvalue\n  dup1\n  iszero\n  tag_1\n  jumpi\n  0x00\n  dup1\n  revert\ntag_1:\n  pop\n  mload(0x40)\n  sub(codesize, bytecodeSize)\n  dup1\n  bytecodeSize\n  dup4\n  codecopy\n  dup2\n  dup2\n  add\n  0x40\n  mstore\n  dup2\n  add\n  swap1\n  tag_2\n  swap2\n  swap1\n  tag_3\n  jump\t// in\ntag_2:\n    /* \"contracts/tokens.sol\":266:273  _wallet */\n  dup1\n    /* \"contracts/tokens.sol\":257:263  wallet */\n  0x01\n  0x00\n    /* \"contracts/tokens.sol\":257:273  wallet = _wallet */\n  0x0100\n  exp\n  dup2\n  sload\n  dup2\n  0xffffffffffffffffffffffffffffffffffffffff\n  mul\n  not\n  and\n  swap1\n  dup4\n  0xffffffffffffffffffffffffffffffffffffffff\n  and\n  mul\n  or\n  swap1\n  sstore\n  pop\n    /* \"contracts/tokens.sol\":209:281  constructor(address payable _wallet) {\r... */\n  pop\n    /* \"contracts/tokens.sol\":63:569  contract Tokens {\r... */\n  jump(tag_6)\n    /* \"#utility.yul\":7:166   */\ntag_8:\n    /* \"#utility.yul\":72:77   */\n  0x00\n    /* \"#utility.yul\":103:109   */\n  dup2\n    /* \"#utility.yul\":97:110   */\n  mload\n    /* \"#utility.yul\":88:110   */\n  swap1\n  pop\n    /* \"#utility.yul\":119:160   */\n  tag_10\n    /* \"#utility.yul\":154:159   */\n  dup2\n    /* \"#utility.yul\":119:160   */\n  tag_11\n  jump\t// in\ntag_10:\n    /* \"#utility.yul\":7:166   */\n  swap3\n  swap2\n  pop\n  pop\n  jump\t// out\n    /* \"#utility.yul\":172:539   */\ntag_3:\n    /* \"#utility.yul\":250:256   */\n  0x00\n    /* \"#utility.yul\":299:301   */\n  0x20\n    /* \"#utility.yul\":287:296   */\n  dup3\n    /* \"#utility.yul\":278:285   */\n  dup5\n    /* \"#utility.yul\":274:297   */\n  sub\n    /* \"#utility.yul\":270:302   */\n  slt\n    /* \"#utility.yul\":267:386   */\n  iszero\n  tag_13\n  jumpi\n    /* \"#utility.yul\":305:384   */\n  tag_14\n  tag_15\n  jump\t// in\ntag_14:\n    /* \"#utility.yul\":267:386   */\ntag_13:\n    /* \"#utility.yul\":425:426   */\n  0x00\n    /* \"#utility.yul\":450:522   */\n  tag_16\n    /* \"#utility.yul\":514:521   */\n  dup5\n    /* \"#utility.yul\":505:511   */\n  dup3\n    /* \"#utility.yul\":494:503   */\n  dup6\n    /* \"#utility.yul\":490:512   */\n  add\n    /* \"#utility.yul\":450:522   */\n  tag_8\n  jump\t// in\ntag_16:\n    /* \"#utility.yul\":440:522   */\n  swap2\n  pop\n    /* \"#utility.yul\":396:532   */\n  pop\n    /* \"#utility.yul\":172:539   */\n  swap3\n  swap2\n  pop\n  pop\n  jump\t// out\n    /* \"#utility.yul\":626:730   */\ntag_19:\n    /* \"#utility.yul\":671:678   */\n  0x00\n    /* \"#utility.yul\":700:724   */\n  tag_21\n    /* \"#utility.yul\":718:723   */\n  dup3\n    /* \"#utility.yul\":700:724   */\n  tag_22\n  jump\t// in\ntag_21:\n    /* \"#utility.yul\":689:724   */\n  swap1\n  pop\n    /* \"#utility.yul\":626:730   */\n  swap2\n  swap1\n  pop\n  jump\t// out\n    /* \"#utility.yul\":736:862   */\ntag_22:\n    /* \"#utility.yul\":773:780   */\n  0x00\n    /* \"#utility.yul\":813:855   */\n  0xffffffffffffffffffffffffffffffffffffffff\n    /* \"#utility.yul\":806:811   */\n  dup3\n    /* \"#utility.yul\":802:856   */\n  and\n    /* \"#utility.yul\":791:856   */\n  swap1\n  pop\n    /* \"#utility.yul\":736:862   */\n  swap2\n  swap1\n  pop\n  jump\t// out\n    /* \"#utility.yul\":991:1108   */\ntag_15:\n    /* \"#utility.yul\":1100:1101   */\n  0x00\n    /* \"#utility.yul\":1097:1098   */\n  dup1\n    /* \"#utility.yul\":1090:1102   */\n  revert\n    /* \"#utility.yul\":1114:1252   */\ntag_11:\n    /* \"#utility.yul\":1195:1227   */\n  tag_28\n    /* \"#utility.yul\":1221:1226   */\n  dup2\n    /* \"#utility.yul\":1195:1227   */\n  tag_19\n  jump\t// in\ntag_28:\n    /* \"#utility.yul\":1188:1193   */\n  dup2\n    /* \"#utility.yul\":1185:1228   */\n  eq\n    /* \"#utility.yul\":1175:1246   */\n  tag_29\n  jumpi\n    /* \"#utility.yul\":1242:1243   */\n  0x00\n    /* \"#utility.yul\":1239:1240   */\n  dup1\n    /* \"#utility.yul\":1232:1244   */\n  revert\n    /* \"#utility.yul\":1175:1246   */\ntag_29:\n    /* \"#utility.yul\":1114:1252   */\n  pop\n  jump\t// out\n    /* \"contracts/tokens.sol\":63:569  contract Tokens {\r... */\ntag_6:\n  dataSize(sub_0)\n  dup1\n  dataOffset(sub_0)\n  0x00\n  codecopy\n  0x00\n  return\nstop\n\nsub_0: assembly {\n        /* \"contracts/tokens.sol\":63:569  contract Tokens {\r... */\n      mstore(0x40, 0x80)\n      jumpi(tag_1, lt(calldatasize, 0x04))\n      shr(0xe0, calldataload(0x00))\n      dup1\n      0x450efe21\n      eq\n      tag_2\n      jumpi\n      dup1\n      0xa4821719\n      eq\n      tag_3\n      jumpi\n    tag_1:\n      0x00\n      dup1\n      revert\n        /* \"contracts/tokens.sol\":455:566  function getTokens(address _address) public returns(Token[] memory){\r... */\n    tag_2:\n      callvalue\n      dup1\n      iszero\n      tag_4\n      jumpi\n      0x00\n      dup1\n      revert\n    tag_4:\n      pop\n      tag_5\n      0x04\n      dup1\n      calldatasize\n      sub\n      dup2\n      add\n      swap1\n      tag_6\n      swap2\n      swap1\n      tag_7\n      jump\t// in\n    tag_6:\n      tag_8\n      jump\t// in\n    tag_5:\n      mload(0x40)\n      tag_9\n      swap2\n      swap1\n      tag_10\n      jump\t// in\n    tag_9:\n      mload(0x40)\n      dup1\n      swap2\n      sub\n      swap1\n      return\n        /* \"contracts/tokens.sol\":289:447  function buyToken() public payable {\r... */\n    tag_3:\n      tag_11\n      tag_12\n      jump\t// in\n    tag_11:\n      stop\n        /* \"contracts/tokens.sol\":455:566  function getTokens(address _address) public returns(Token[] memory){\r... */\n    tag_8:\n        /* \"contracts/tokens.sol\":507:521  Token[] memory */\n      0x60\n        /* \"contracts/tokens.sol\":540:548  balances */\n      0x00\n        /* \"contracts/tokens.sol\":540:558  balances[_address] */\n      dup1\n        /* \"contracts/tokens.sol\":549:557  _address */\n      dup4\n        /* \"contracts/tokens.sol\":540:558  balances[_address] */\n      0xffffffffffffffffffffffffffffffffffffffff\n      and\n      0xffffffffffffffffffffffffffffffffffffffff\n      and\n      dup2\n      mstore\n      0x20\n      add\n      swap1\n      dup2\n      mstore\n      0x20\n      add\n      0x00\n      keccak256\n        /* \"contracts/tokens.sol\":533:558  return balances[_address] */\n      dup1\n      sload\n      dup1\n      0x20\n      mul\n      0x20\n      add\n      mload(0x40)\n      swap1\n      dup2\n      add\n      0x40\n      mstore\n      dup1\n      swap3\n      swap2\n      swap1\n      dup2\n      dup2\n      mstore\n      0x20\n      add\n      0x00\n      swap1\n    tag_14:\n      dup3\n      dup3\n      lt\n      iszero\n      tag_15\n      jumpi\n      dup4\n      dup3\n      swap1\n      0x00\n      mstore\n      keccak256(0x00, 0x20)\n      add\n      mload(0x40)\n      dup1\n      0x20\n      add\n      0x40\n      mstore\n      swap1\n      dup2\n      0x00\n      dup3\n      add\n      sload\n      dup2\n      mstore\n      pop\n      pop\n      dup2\n      mstore\n      0x20\n      add\n      swap1\n      0x01\n      add\n      swap1\n      jump(tag_14)\n    tag_15:\n      pop\n      pop\n      pop\n      pop\n      swap1\n      pop\n        /* \"contracts/tokens.sol\":455:566  function getTokens(address _address) public returns(Token[] memory){\r... */\n      swap2\n      swap1\n      pop\n      jump\t// out\n        /* \"contracts/tokens.sol\":289:447  function buyToken() public payable {\r... */\n    tag_12:\n        /* \"contracts/tokens.sol\":335:343  balances */\n      0x00\n        /* \"contracts/tokens.sol\":335:355  balances[msg.sender] */\n      dup1\n        /* \"contracts/tokens.sol\":344:354  msg.sender */\n      caller\n        /* \"contracts/tokens.sol\":335:355  balances[msg.sender] */\n      0xffffffffffffffffffffffffffffffffffffffff\n      and\n      0xffffffffffffffffffffffffffffffffffffffff\n      and\n      dup2\n      mstore\n      0x20\n      add\n      swap1\n      dup2\n      mstore\n      0x20\n      add\n      0x00\n      keccak256\n        /* \"contracts/tokens.sol\":375:391  Token(msg.value) */\n      mload(0x40)\n      dup1\n      0x20\n      add\n      0x40\n      mstore\n      dup1\n        /* \"contracts/tokens.sol\":381:390  msg.value */\n      callvalue\n        /* \"contracts/tokens.sol\":375:391  Token(msg.value) */\n      dup2\n      mstore\n      pop\n        /* \"contracts/tokens.sol\":335:402  balances[msg.sender].push(\r... */\n      swap1\n      dup1\n      0x01\n      dup2\n      sload\n      add\n      dup1\n      dup3\n      sstore\n      dup1\n      swap2\n      pop\n      pop\n      0x01\n      swap1\n      sub\n      swap1\n      0x00\n      mstore\n      keccak256(0x00, 0x20)\n      add\n      0x00\n      swap1\n      swap2\n      swap1\n      swap2\n      swap1\n      swap2\n      pop\n      0x00\n      dup3\n      add\n      mload\n      dup2\n      0x00\n      add\n      sstore\n      pop\n      pop\n        /* \"contracts/tokens.sol\":413:419  wallet */\n      0x01\n      0x00\n      swap1\n      sload\n      swap1\n      0x0100\n      exp\n      swap1\n      div\n      0xffffffffffffffffffffffffffffffffffffffff\n      and\n        /* \"contracts/tokens.sol\":413:428  wallet.transfer */\n      0xffffffffffffffffffffffffffffffffffffffff\n      and\n        /* \"contracts/tokens.sol\":413:439  wallet.transfer(msg.value) */\n      0x08fc\n        /* \"contracts/tokens.sol\":429:438  msg.value */\n      callvalue\n        /* \"contracts/tokens.sol\":413:439  wallet.transfer(msg.value) */\n      swap1\n      dup2\n      iszero\n      mul\n      swap1\n      mload(0x40)\n      0x00\n      mload(0x40)\n      dup1\n      dup4\n      sub\n      dup2\n      dup6\n      dup9\n      dup9\n      call\n      swap4\n      pop\n      pop\n      pop\n      pop\n      iszero\n      dup1\n      iszero\n      tag_20\n      jumpi\n      returndatasize\n      0x00\n      dup1\n      returndatacopy\n      revert(0x00, returndatasize)\n    tag_20:\n      pop\n        /* \"contracts/tokens.sol\":289:447  function buyToken() public payable {\r... */\n      jump\t// out\n        /* \"#utility.yul\":7:146   */\n    tag_22:\n        /* \"#utility.yul\":53:58   */\n      0x00\n        /* \"#utility.yul\":91:97   */\n      dup2\n        /* \"#utility.yul\":78:98   */\n      calldataload\n        /* \"#utility.yul\":69:98   */\n      swap1\n      pop\n        /* \"#utility.yul\":107:140   */\n      tag_24\n        /* \"#utility.yul\":134:139   */\n      dup2\n        /* \"#utility.yul\":107:140   */\n      tag_25\n      jump\t// in\n    tag_24:\n        /* \"#utility.yul\":7:146   */\n      swap3\n      swap2\n      pop\n      pop\n      jump\t// out\n        /* \"#utility.yul\":152:481   */\n    tag_7:\n        /* \"#utility.yul\":211:217   */\n      0x00\n        /* \"#utility.yul\":260:262   */\n      0x20\n        /* \"#utility.yul\":248:257   */\n      dup3\n        /* \"#utility.yul\":239:246   */\n      dup5\n        /* \"#utility.yul\":235:258   */\n      sub\n        /* \"#utility.yul\":231:263   */\n      slt\n        /* \"#utility.yul\":228:347   */\n      iszero\n      tag_27\n      jumpi\n        /* \"#utility.yul\":266:345   */\n      tag_28\n      tag_29\n      jump\t// in\n    tag_28:\n        /* \"#utility.yul\":228:347   */\n    tag_27:\n        /* \"#utility.yul\":386:387   */\n      0x00\n        /* \"#utility.yul\":411:464   */\n      tag_30\n        /* \"#utility.yul\":456:463   */\n      dup5\n        /* \"#utility.yul\":447:453   */\n      dup3\n        /* \"#utility.yul\":436:445   */\n      dup6\n        /* \"#utility.yul\":432:454   */\n      add\n        /* \"#utility.yul\":411:464   */\n      tag_22\n      jump\t// in\n    tag_30:\n        /* \"#utility.yul\":401:464   */\n      swap2\n      pop\n        /* \"#utility.yul\":357:474   */\n      pop\n        /* \"#utility.yul\":152:481   */\n      swap3\n      swap2\n      pop\n      pop\n      jump\t// out\n        /* \"#utility.yul\":487:746   */\n    tag_31:\n        /* \"#utility.yul\":596:606   */\n      0x00\n        /* \"#utility.yul\":617:703   */\n      tag_33\n        /* \"#utility.yul\":699:702   */\n      dup4\n        /* \"#utility.yul\":691:697   */\n      dup4\n        /* \"#utility.yul\":617:703   */\n      tag_34\n      jump\t// in\n    tag_33:\n        /* \"#utility.yul\":735:739   */\n      0x20\n        /* \"#utility.yul\":730:733   */\n      dup4\n        /* \"#utility.yul\":726:740   */\n      add\n        /* \"#utility.yul\":712:740   */\n      swap1\n      pop\n        /* \"#utility.yul\":487:746   */\n      swap3\n      swap2\n      pop\n      pop\n      jump\t// out\n        /* \"#utility.yul\":806:1698   */\n    tag_35:\n        /* \"#utility.yul\":965:968   */\n      0x00\n        /* \"#utility.yul\":994:1068   */\n      tag_37\n        /* \"#utility.yul\":1062:1067   */\n      dup3\n        /* \"#utility.yul\":994:1068   */\n      tag_38\n      jump\t// in\n    tag_37:\n        /* \"#utility.yul\":1084:1190   */\n      tag_39\n        /* \"#utility.yul\":1183:1189   */\n      dup2\n        /* \"#utility.yul\":1178:1181   */\n      dup6\n        /* \"#utility.yul\":1084:1190   */\n      tag_40\n      jump\t// in\n    tag_39:\n        /* \"#utility.yul\":1077:1190   */\n      swap4\n      pop\n        /* \"#utility.yul\":1214:1290   */\n      tag_41\n        /* \"#utility.yul\":1284:1289   */\n      dup4\n        /* \"#utility.yul\":1214:1290   */\n      tag_42\n      jump\t// in\n    tag_41:\n        /* \"#utility.yul\":1313:1320   */\n      dup1\n        /* \"#utility.yul\":1344:1345   */\n      0x00\n        /* \"#utility.yul\":1329:1673   */\n    tag_43:\n        /* \"#utility.yul\":1354:1360   */\n      dup4\n        /* \"#utility.yul\":1351:1352   */\n      dup2\n        /* \"#utility.yul\":1348:1361   */\n      lt\n        /* \"#utility.yul\":1329:1673   */\n      iszero\n      tag_45\n      jumpi\n        /* \"#utility.yul\":1430:1436   */\n      dup2\n        /* \"#utility.yul\":1424:1437   */\n      mload\n        /* \"#utility.yul\":1457:1560   */\n      tag_46\n        /* \"#utility.yul\":1556:1559   */\n      dup9\n        /* \"#utility.yul\":1541:1554   */\n      dup3\n        /* \"#utility.yul\":1457:1560   */\n      tag_31\n      jump\t// in\n    tag_46:\n        /* \"#utility.yul\":1450:1560   */\n      swap8\n      pop\n        /* \"#utility.yul\":1583:1663   */\n      tag_47\n        /* \"#utility.yul\":1656:1662   */\n      dup4\n        /* \"#utility.yul\":1583:1663   */\n      tag_48\n      jump\t// in\n    tag_47:\n        /* \"#utility.yul\":1573:1663   */\n      swap3\n      pop\n        /* \"#utility.yul\":1389:1673   */\n      pop\n        /* \"#utility.yul\":1376:1377   */\n      0x01\n        /* \"#utility.yul\":1373:1374   */\n      dup2\n        /* \"#utility.yul\":1369:1378   */\n      add\n        /* \"#utility.yul\":1364:1378   */\n      swap1\n      pop\n        /* \"#utility.yul\":1329:1673   */\n      jump(tag_43)\n    tag_45:\n        /* \"#utility.yul\":1333:1347   */\n      pop\n        /* \"#utility.yul\":1689:1692   */\n      dup6\n        /* \"#utility.yul\":1682:1692   */\n      swap4\n      pop\n        /* \"#utility.yul\":970:1698   */\n      pop\n      pop\n      pop\n        /* \"#utility.yul\":806:1698   */\n      swap3\n      swap2\n      pop\n      pop\n      jump\t// out\n        /* \"#utility.yul\":1754:2067   */\n    tag_34:\n        /* \"#utility.yul\":1881:1885   */\n      0x20\n        /* \"#utility.yul\":1876:1879   */\n      dup3\n        /* \"#utility.yul\":1872:1886   */\n      add\n        /* \"#utility.yul\":1968:1972   */\n      0x00\n        /* \"#utility.yul\":1961:1966   */\n      dup3\n        /* \"#utility.yul\":1957:1973   */\n      add\n        /* \"#utility.yul\":1951:1974   */\n      mload\n        /* \"#utility.yul\":1987:2050   */\n      tag_50\n        /* \"#utility.yul\":2044:2048   */\n      0x00\n        /* \"#utility.yul\":2039:2042   */\n      dup6\n        /* \"#utility.yul\":2035:2049   */\n      add\n        /* \"#utility.yul\":2021:2033   */\n      dup3\n        /* \"#utility.yul\":1987:2050   */\n      tag_51\n      jump\t// in\n    tag_50:\n        /* \"#utility.yul\":1896:2060   */\n      pop\n        /* \"#utility.yul\":1850:2067   */\n      pop\n        /* \"#utility.yul\":1754:2067   */\n      pop\n      pop\n      jump\t// out\n        /* \"#utility.yul\":2073:2181   */\n    tag_51:\n        /* \"#utility.yul\":2150:2174   */\n      tag_53\n        /* \"#utility.yul\":2168:2173   */\n      dup2\n        /* \"#utility.yul\":2150:2174   */\n      tag_54\n      jump\t// in\n    tag_53:\n        /* \"#utility.yul\":2145:2148   */\n      dup3\n        /* \"#utility.yul\":2138:2175   */\n      mstore\n        /* \"#utility.yul\":2073:2181   */\n      pop\n      pop\n      jump\t// out\n        /* \"#utility.yul\":2187:2640   */\n    tag_10:\n        /* \"#utility.yul\":2370:2374   */\n      0x00\n        /* \"#utility.yul\":2408:2410   */\n      0x20\n        /* \"#utility.yul\":2397:2406   */\n      dup3\n        /* \"#utility.yul\":2393:2411   */\n      add\n        /* \"#utility.yul\":2385:2411   */\n      swap1\n      pop\n        /* \"#utility.yul\":2457:2466   */\n      dup2\n        /* \"#utility.yul\":2451:2455   */\n      dup2\n        /* \"#utility.yul\":2447:2467   */\n      sub\n        /* \"#utility.yul\":2443:2444   */\n      0x00\n        /* \"#utility.yul\":2432:2441   */\n      dup4\n        /* \"#utility.yul\":2428:2445   */\n      add\n        /* \"#utility.yul\":2421:2468   */\n      mstore\n        /* \"#utility.yul\":2485:2633   */\n      tag_56\n        /* \"#utility.yul\":2628:2632   */\n      dup2\n        /* \"#utility.yul\":2619:2625   */\n      dup5\n        /* \"#utility.yul\":2485:2633   */\n      tag_35\n      jump\t// in\n    tag_56:\n        /* \"#utility.yul\":2477:2633   */\n      swap1\n      pop\n        /* \"#utility.yul\":2187:2640   */\n      swap3\n      swap2\n      pop\n      pop\n      jump\t// out\n        /* \"#utility.yul\":2727:2879   */\n    tag_42:\n        /* \"#utility.yul\":2814:2818   */\n      0x00\n        /* \"#utility.yul\":2837:2840   */\n      dup2\n        /* \"#utility.yul\":2829:2840   */\n      swap1\n      pop\n        /* \"#utility.yul\":2867:2871   */\n      0x20\n        /* \"#utility.yul\":2862:2865   */\n      dup3\n        /* \"#utility.yul\":2858:2872   */\n      add\n        /* \"#utility.yul\":2850:2872   */\n      swap1\n      pop\n        /* \"#utility.yul\":2727:2879   */\n      swap2\n      swap1\n      pop\n      jump\t// out\n        /* \"#utility.yul\":2885:3019   */\n    tag_38:\n        /* \"#utility.yul\":2972:2978   */\n      0x00\n        /* \"#utility.yul\":3006:3011   */\n      dup2\n        /* \"#utility.yul\":3000:3012   */\n      mload\n        /* \"#utility.yul\":2990:3012   */\n      swap1\n      pop\n        /* \"#utility.yul\":2885:3019   */\n      swap2\n      swap1\n      pop\n      jump\t// out\n        /* \"#utility.yul\":3025:3158   */\n    tag_48:\n        /* \"#utility.yul\":3115:3119   */\n      0x00\n        /* \"#utility.yul\":3147:3151   */\n      0x20\n        /* \"#utility.yul\":3142:3145   */\n      dup3\n        /* \"#utility.yul\":3138:3152   */\n      add\n        /* \"#utility.yul\":3130:3152   */\n      swap1\n      pop\n        /* \"#utility.yul\":3025:3158   */\n      swap2\n      swap1\n      pop\n      jump\t// out\n        /* \"#utility.yul\":3164:3368   */\n    tag_40:\n        /* \"#utility.yul\":3283:3294   */\n      0x00\n        /* \"#utility.yul\":3317:3323   */\n      dup3\n        /* \"#utility.yul\":3312:3315   */\n      dup3\n        /* \"#utility.yul\":3305:3324   */\n      mstore\n        /* \"#utility.yul\":3357:3361   */\n      0x20\n        /* \"#utility.yul\":3352:3355   */\n      dup3\n        /* \"#utility.yul\":3348:3362   */\n      add\n        /* \"#utility.yul\":3333:3362   */\n      swap1\n      pop\n        /* \"#utility.yul\":3164:3368   */\n      swap3\n      swap2\n      pop\n      pop\n      jump\t// out\n        /* \"#utility.yul\":3374:3470   */\n    tag_63:\n        /* \"#utility.yul\":3411:3418   */\n      0x00\n        /* \"#utility.yul\":3440:3464   */\n      tag_65\n        /* \"#utility.yul\":3458:3463   */\n      dup3\n        /* \"#utility.yul\":3440:3464   */\n      tag_66\n      jump\t// in\n    tag_65:\n        /* \"#utility.yul\":3429:3464   */\n      swap1\n      pop\n        /* \"#utility.yul\":3374:3470   */\n      swap2\n      swap1\n      pop\n      jump\t// out\n        /* \"#utility.yul\":3476:3602   */\n    tag_66:\n        /* \"#utility.yul\":3513:3520   */\n      0x00\n        /* \"#utility.yul\":3553:3595   */\n      0xffffffffffffffffffffffffffffffffffffffff\n        /* \"#utility.yul\":3546:3551   */\n      dup3\n        /* \"#utility.yul\":3542:3596   */\n      and\n        /* \"#utility.yul\":3531:3596   */\n      swap1\n      pop\n        /* \"#utility.yul\":3476:3602   */\n      swap2\n      swap1\n      pop\n      jump\t// out\n        /* \"#utility.yul\":3608:3685   */\n    tag_54:\n        /* \"#utility.yul\":3645:3652   */\n      0x00\n        /* \"#utility.yul\":3674:3679   */\n      dup2\n        /* \"#utility.yul\":3663:3679   */\n      swap1\n      pop\n        /* \"#utility.yul\":3608:3685   */\n      swap2\n      swap1\n      pop\n      jump\t// out\n        /* \"#utility.yul\":3814:3931   */\n    tag_29:\n        /* \"#utility.yul\":3923:3924   */\n      0x00\n        /* \"#utility.yul\":3920:3921   */\n      dup1\n        /* \"#utility.yul\":3913:3925   */\n      revert\n        /* \"#utility.yul\":3937:4059   */\n    tag_25:\n        /* \"#utility.yul\":4010:4034   */\n      tag_73\n        /* \"#utility.yul\":4028:4033   */\n      dup2\n        /* \"#utility.yul\":4010:4034   */\n      tag_63\n      jump\t// in\n    tag_73:\n        /* \"#utility.yul\":4003:4008   */\n      dup2\n        /* \"#utility.yul\":4000:4035   */\n      eq\n        /* \"#utility.yul\":3990:4053   */\n      tag_74\n      jumpi\n        /* \"#utility.yul\":4049:4050   */\n      0x00\n        /* \"#utility.yul\":4046:4047   */\n      dup1\n        /* \"#utility.yul\":4039:4051   */\n      revert\n        /* \"#utility.yul\":3990:4053   */\n    tag_74:\n        /* \"#utility.yul\":3937:4059   */\n      pop\n      jump\t// out\n\n    auxdata: 0xa264697066735822122027132258360e14f9b6a6012d3f1bb6247a2347fa2f88399e60f1fd16528e623164736f6c63430008070033\n}\n",
				"bytecode": {
					"linkReferences": {},
					"object": "608060405234801561001057600080fd5b506040516104e53803806104e58339818101604052810190610032919061008e565b80600160006101000a81548173ffffffffffffffffffffffffffffffffffffffff021916908373ffffffffffffffffffffffffffffffffffffffff16021790555050610109565b600081519050610088816100f2565b92915050565b6000602082840312156100a4576100a36100ed565b5b60006100b284828501610079565b91505092915050565b60006100c6826100cd565b9050919050565b600073ffffffffffffffffffffffffffffffffffffffff82169050919050565b600080fd5b6100fb816100bb565b811461010657600080fd5b50565b6103cd806101186000396000f3fe6080604052600436106100295760003560e01c8063450efe211461002e578063a48217191461006b575b600080fd5b34801561003a57600080fd5b5061005560048036038101906100509190610216565b610075565b60405161006291906102e4565b60405180910390f35b610073610118565b005b60606000808373ffffffffffffffffffffffffffffffffffffffff1673ffffffffffffffffffffffffffffffffffffffff168152602001908152602001600020805480602002602001604051908101604052809291908181526020016000905b8282101561010d57838290600052602060002001604051806020016040529081600082015481525050815260200190600101906100d5565b505050509050919050565b6000803373ffffffffffffffffffffffffffffffffffffffff1673ffffffffffffffffffffffffffffffffffffffff16815260200190815260200160002060405180602001604052803481525090806001815401808255809150506001900390600052602060002001600090919091909150600082015181600001555050600160009054906101000a900473ffffffffffffffffffffffffffffffffffffffff1673ffffffffffffffffffffffffffffffffffffffff166108fc349081150290604051600060405180830381858888f193505050501580156101fe573d6000803e3d6000fd5b50565b60008135905061021081610380565b92915050565b60006020828403121561022c5761022b61037b565b5b600061023a84828501610201565b91505092915050565b600061024f83836102b9565b60208301905092915050565b600061026682610316565b610270818561032e565b935061027b83610306565b8060005b838110156102ac5781516102938882610243565b975061029e83610321565b92505060018101905061027f565b5085935050505092915050565b6020820160008201516102cf60008501826102d5565b50505050565b6102de81610371565b82525050565b600060208201905081810360008301526102fe818461025b565b905092915050565b6000819050602082019050919050565b600081519050919050565b6000602082019050919050565b600082825260208201905092915050565b600061034a82610351565b9050919050565b600073ffffffffffffffffffffffffffffffffffffffff82169050919050565b6000819050919050565b600080fd5b6103898161033f565b811461039457600080fd5b5056fea264697066735822122027132258360e14f9b6a6012d3f1bb6247a2347fa2f88399e60f1fd16528e623164736f6c63430008070033",
					"opcodes": "PUSH1 0x80 PUSH1 0x40 MSTORE CALLVALUE DUP1 ISZERO PUSH2 0x10 JUMPI PUSH1 0x0 DUP1 REVERT JUMPDEST POP PUSH1 0x40 MLOAD PUSH2 0x4E5 CODESIZE SUB DUP1 PUSH2 0x4E5 DUP4 CODECOPY DUP2 DUP2 ADD PUSH1 0x40 MSTORE DUP2 ADD SWAP1 PUSH2 0x32 SWAP2 SWAP1 PUSH2 0x8E JUMP JUMPDEST DUP1 PUSH1 0x1 PUSH1 0x0 PUSH2 0x100 EXP DUP2 SLOAD DUP2 PUSH20 0xFFFFFFFFFFFFFFFFFFFFFFFFFFFFFFFFFFFFFFFF MUL NOT AND SWAP1 DUP4 PUSH20 0xFFFFFFFFFFFFFFFFFFFFFFFFFFFFFFFFFFFFFFFF AND MUL OR SWAP1 SSTORE POP POP PUSH2 0x109 JUMP JUMPDEST PUSH1 0x0 DUP2 MLOAD SWAP1 POP PUSH2 0x88 DUP2 PUSH2 0xF2 JUMP JUMPDEST SWAP3 SWAP2 POP POP JUMP JUMPDEST PUSH1 0x0 PUSH1 0x20 DUP3 DUP5 SUB SLT ISZERO PUSH2 0xA4 JUMPI PUSH2 0xA3 PUSH2 0xED JUMP JUMPDEST JUMPDEST PUSH1 0x0 PUSH2 0xB2 DUP5 DUP3 DUP6 ADD PUSH2 0x79 JUMP JUMPDEST SWAP2 POP POP SWAP3 SWAP2 POP POP JUMP JUMPDEST PUSH1 0x0 PUSH2 0xC6 DUP3 PUSH2 0xCD JUMP JUMPDEST SWAP1 POP SWAP2 SWAP1 POP JUMP JUMPDEST PUSH1 0x0 PUSH20 0xFFFFFFFFFFFFFFFFFFFFFFFFFFFFFFFFFFFFFFFF DUP3 AND SWAP1 POP SWAP2 SWAP1 POP JUMP JUMPDEST PUSH1 0x0 DUP1 REVERT JUMPDEST PUSH2 0xFB DUP2 PUSH2 0xBB JUMP JUMPDEST DUP2 EQ PUSH2 0x106 JUMPI PUSH1 0x0 DUP1 REVERT JUMPDEST POP JUMP JUMPDEST PUSH2 0x3CD DUP1 PUSH2 0x118 PUSH1 0x0 CODECOPY PUSH1 0x0 RETURN INVALID PUSH1 0x80 PUSH1 0x40 MSTORE PUSH1 0x4 CALLDATASIZE LT PUSH2 0x29 JUMPI PUSH1 0x0 CALLDATALOAD PUSH1 0xE0 SHR DUP1 PUSH4 0x450EFE21 EQ PUSH2 0x2E JUMPI DUP1 PUSH4 0xA4821719 EQ PUSH2 0x6B JUMPI JUMPDEST PUSH1 0x0 DUP1 REVERT JUMPDEST CALLVALUE DUP1 ISZERO PUSH2 0x3A JUMPI PUSH1 0x0 DUP1 REVERT JUMPDEST POP PUSH2 0x55 PUSH1 0x4 DUP1 CALLDATASIZE SUB DUP2 ADD SWAP1 PUSH2 0x50 SWAP2 SWAP1 PUSH2 0x216 JUMP JUMPDEST PUSH2 0x75 JUMP JUMPDEST PUSH1 0x40 MLOAD PUSH2 0x62 SWAP2 SWAP1 PUSH2 0x2E4 JUMP JUMPDEST PUSH1 0x40 MLOAD DUP1 SWAP2 SUB SWAP1 RETURN JUMPDEST PUSH2 0x73 PUSH2 0x118 JUMP JUMPDEST STOP JUMPDEST PUSH1 0x60 PUSH1 0x0 DUP1 DUP4 PUSH20 0xFFFFFFFFFFFFFFFFFFFFFFFFFFFFFFFFFFFFFFFF AND PUSH20 0xFFFFFFFFFFFFFFFFFFFFFFFFFFFFFFFFFFFFFFFF AND DUP2 MSTORE PUSH1 0x20 ADD SWAP1 DUP2 MSTORE PUSH1 0x20 ADD PUSH1 0x0 KECCAK256 DUP1 SLOAD DUP1 PUSH1 0x20 MUL PUSH1 0x20 ADD PUSH1 0x40 MLOAD SWAP1 DUP2 ADD PUSH1 0x40 MSTORE DUP1 SWAP3 SWAP2 SWAP1 DUP2 DUP2 MSTORE PUSH1 0x20 ADD PUSH1 0x0 SWAP1 JUMPDEST DUP3 DUP3 LT ISZERO PUSH2 0x10D JUMPI DUP4 DUP3 SWAP1 PUSH1 0x0 MSTORE PUSH1 0x20 PUSH1 0x0 KECCAK256 ADD PUSH1 0x40 MLOAD DUP1 PUSH1 0x20 ADD PUSH1 0x40 MSTORE SWAP1 DUP2 PUSH1 0x0 DUP3 ADD SLOAD DUP2 MSTORE POP POP DUP2 MSTORE PUSH1 0x20 ADD SWAP1 PUSH1 0x1 ADD SWAP1 PUSH2 0xD5 JUMP JUMPDEST POP POP POP POP SWAP1 POP SWAP2 SWAP1 POP JUMP JUMPDEST PUSH1 0x0 DUP1 CALLER PUSH20 0xFFFFFFFFFFFFFFFFFFFFFFFFFFFFFFFFFFFFFFFF AND PUSH20 0xFFFFFFFFFFFFFFFFFFFFFFFFFFFFFFFFFFFFFFFF AND DUP2 MSTORE PUSH1 0x20 ADD SWAP1 DUP2 MSTORE PUSH1 0x20 ADD PUSH1 0x0 KECCAK256 PUSH1 0x40 MLOAD DUP1 PUSH1 0x20 ADD PUSH1 0x40 MSTORE DUP1 CALLVALUE DUP2 MSTORE POP SWAP1 DUP1 PUSH1 0x1 DUP2 SLOAD ADD DUP1 DUP3 SSTORE DUP1 SWAP2 POP POP PUSH1 0x1 SWAP1 SUB SWAP1 PUSH1 0x0 MSTORE PUSH1 0x20 PUSH1 0x0 KECCAK256 ADD PUSH1 0x0 SWAP1 SWAP2 SWAP1 SWAP2 SWAP1 SWAP2 POP PUSH1 0x0 DUP3 ADD MLOAD DUP2 PUSH1 0x0 ADD SSTORE POP POP PUSH1 0x1 PUSH1 0x0 SWAP1 SLOAD SWAP1 PUSH2 0x100 EXP SWAP1 DIV PUSH20 0xFFFFFFFFFFFFFFFFFFFFFFFFFFFFFFFFFFFFFFFF AND PUSH20 0xFFFFFFFFFFFFFFFFFFFFFFFFFFFFFFFFFFFFFFFF AND PUSH2 0x8FC CALLVALUE SWAP1 DUP2 ISZERO MUL SWAP1 PUSH1 0x40 MLOAD PUSH1 0x0 PUSH1 0x40 MLOAD DUP1 DUP4 SUB DUP2 DUP6 DUP9 DUP9 CALL SWAP4 POP POP POP POP ISZERO DUP1 ISZERO PUSH2 0x1FE JUMPI RETURNDATASIZE PUSH1 0x0 DUP1 RETURNDATACOPY RETURNDATASIZE PUSH1 0x0 REVERT JUMPDEST POP JUMP JUMPDEST PUSH1 0x0 DUP2 CALLDATALOAD SWAP1 POP PUSH2 0x210 DUP2 PUSH2 0x380 JUMP JUMPDEST SWAP3 SWAP2 POP POP JUMP JUMPDEST PUSH1 0x0 PUSH1 0x20 DUP3 DUP5 SUB SLT ISZERO PUSH2 0x22C JUMPI PUSH2 0x22B PUSH2 0x37B JUMP JUMPDEST JUMPDEST PUSH1 0x0 PUSH2 0x23A DUP5 DUP3 DUP6 ADD PUSH2 0x201 JUMP JUMPDEST SWAP2 POP POP SWAP3 SWAP2 POP POP JUMP JUMPDEST PUSH1 0x0 PUSH2 0x24F DUP4 DUP4 PUSH2 0x2B9 JUMP JUMPDEST PUSH1 0x20 DUP4 ADD SWAP1 POP SWAP3 SWAP2 POP POP JUMP JUMPDEST PUSH1 0x0 PUSH2 0x266 DUP3 PUSH2 0x316 JUMP JUMPDEST PUSH2 0x270 DUP2 DUP6 PUSH2 0x32E JUMP JUMPDEST SWAP4 POP PUSH2 0x27B DUP4 PUSH2 0x306 JUMP JUMPDEST DUP1 PUSH1 0x0 JUMPDEST DUP4 DUP2 LT ISZERO PUSH2 0x2AC JUMPI DUP2 MLOAD PUSH2 0x293 DUP9 DUP3 PUSH2 0x243 JUMP JUMPDEST SWAP8 POP PUSH2 0x29E DUP4 PUSH2 0x321 JUMP JUMPDEST SWAP3 POP POP PUSH1 0x1 DUP2 ADD SWAP1 POP PUSH2 0x27F JUMP JUMPDEST POP DUP6 SWAP4 POP POP POP POP SWAP3 SWAP2 POP POP JUMP JUMPDEST PUSH1 0x20 DUP3 ADD PUSH1 0x0 DUP3 ADD MLOAD PUSH2 0x2CF PUSH1 0x0 DUP6 ADD DUP3 PUSH2 0x2D5 JUMP JUMPDEST POP POP POP POP JUMP JUMPDEST PUSH2 0x2DE DUP2 PUSH2 0x371 JUMP JUMPDEST DUP3 MSTORE POP POP JUMP JUMPDEST PUSH1 0x0 PUSH1 0x20 DUP3 ADD SWAP1 POP DUP2 DUP2 SUB PUSH1 0x0 DUP4 ADD MSTORE PUSH2 0x2FE DUP2 DUP5 PUSH2 0x25B JUMP JUMPDEST SWAP1 POP SWAP3 SWAP2 POP POP JUMP JUMPDEST PUSH1 0x0 DUP2 SWAP1 POP PUSH1 0x20 DUP3 ADD SWAP1 POP SWAP2 SWAP1 POP JUMP JUMPDEST PUSH1 0x0 DUP2 MLOAD SWAP1 POP SWAP2 SWAP1 POP JUMP JUMPDEST PUSH1 0x0 PUSH1 0x20 DUP3 ADD SWAP1 POP SWAP2 SWAP1 POP JUMP JUMPDEST PUSH1 0x0 DUP3 DUP3 MSTORE PUSH1 0x20 DUP3 ADD SWAP1 POP SWAP3 SWAP2 POP POP JUMP JUMPDEST PUSH1 0x0 PUSH2 0x34A DUP3 PUSH2 0x351 JUMP JUMPDEST SWAP1 POP SWAP2 SWAP1 POP JUMP JUMPDEST PUSH1 0x0 PUSH20 0xFFFFFFFFFFFFFFFFFFFFFFFFFFFFFFFFFFFFFFFF DUP3 AND SWAP1 POP SWAP2 SWAP1 POP JUMP JUMPDEST PUSH1 0x0 DUP2 SWAP1 POP SWAP2 SWAP1 POP JUMP JUMPDEST PUSH1 0x0 DUP1 REVERT JUMPDEST PUSH2 0x389 DUP2 PUSH2 0x33F JUMP JUMPDEST DUP2 EQ PUSH2 0x394 JUMPI PUSH1 0x0 DUP1 REVERT JUMPDEST POP JUMP INVALID LOG2 PUSH5 0x6970667358 0x22 SLT KECCAK256 0x27 SGT 0x22 PC CALLDATASIZE 0xE EQ 0xF9 0xB6 0xA6 ADD 0x2D EXTCODEHASH SHL 0xB6 0x24 PUSH27 0x2347FA2F88399E60F1FD16528E623164736F6C6343000807003300 "
				},
				"gasEstimates": {
					"creation": {
						"codeDepositCost": "194600",
						"executionCost": "infinite",
						"totalCost": "infinite"
					},
					"external": {
						"buyToken()": "infinite",
						"getTokens(address)": "infinite"
					}
				},
				"methodIdentifiers": {
					"buyToken()": "a4821719",
					"getTokens(address)": "450efe21"
				}
			},
			"userdoc": {
				"kind": "user",
				"methods": {},
				"version": 1
			}
		}
	}
}