{
	"contracts/bank.sol": {
		"Bank": {
			"abi": [
				{
					"inputs": [],
					"name": "bankBalance",
					"outputs": [
						{
							"internalType": "uint256",
							"name": "",
							"type": "uint256"
						}
					],
					"stateMutability": "view",
					"type": "function"
				},
				{
					"inputs": [],
					"name": "deposit",
					"outputs": [],
					"stateMutability": "payable",
					"type": "function"
				},
				{
					"inputs": [],
					"name": "userBalance",
					"outputs": [
						{
							"internalType": "uint256",
							"name": "",
							"type": "uint256"
						}
					],
					"stateMutability": "view",
					"type": "function"
				},
				{
					"inputs": [],
					"name": "withdraw",
					"outputs": [],
					"stateMutability": "payable",
					"type": "function"
				}
			],
			"devdoc": {
				"kind": "dev",
				"methods": {},
				"version": 1
			},
			"evm": {
				"assembly": "    /* \"contracts/bank.sol\":63:719  contract Bank {\r... */\n  mstore(0x40, 0x80)\n  callvalue\n  dup1\n  iszero\n  tag_1\n  jumpi\n  0x00\n  dup1\n  revert\ntag_1:\n  pop\n  dataSize(sub_0)\n  dup1\n  dataOffset(sub_0)\n  0x00\n  codecopy\n  0x00\n  return\nstop\n\nsub_0: assembly {\n        /* \"contracts/bank.sol\":63:719  contract Bank {\r... */\n      mstore(0x40, 0x80)\n      jumpi(tag_1, lt(calldatasize, 0x04))\n      shr(0xe0, calldataload(0x00))\n      dup1\n      0x28657aa5\n      eq\n      tag_2\n      jumpi\n      dup1\n      0x3ccfd60b\n      eq\n      tag_3\n      jumpi\n      dup1\n      0xbf152765\n      eq\n      tag_4\n      jumpi\n      dup1\n      0xd0e30db0\n      eq\n      tag_5\n      jumpi\n    tag_1:\n      0x00\n      dup1\n      revert\n        /* \"contracts/bank.sol\":511:610  function bankBalance() public view returns (uint256){\r... */\n    tag_2:\n      callvalue\n      dup1\n      iszero\n      tag_6\n      jumpi\n      0x00\n      dup1\n      revert\n    tag_6:\n      pop\n      tag_7\n      tag_8\n      jump\t// in\n    tag_7:\n      mload(0x40)\n      tag_9\n      swap2\n      swap1\n      tag_10\n      jump\t// in\n    tag_9:\n      mload(0x40)\n      dup1\n      swap2\n      sub\n      swap1\n      return\n        /* \"contracts/bank.sol\":234:503  function withdraw() external payable {\r... */\n    tag_3:\n      tag_11\n      tag_12\n      jump\t// in\n    tag_11:\n      stop\n        /* \"contracts/bank.sol\":618:716  function userBalance() public view returns (uint256) {\r... */\n    tag_4:\n      callvalue\n      dup1\n      iszero\n      tag_13\n      jumpi\n      0x00\n      dup1\n      revert\n    tag_13:\n      pop\n      tag_14\n      tag_15\n      jump\t// in\n    tag_14:\n      mload(0x40)\n      tag_16\n      swap2\n      swap1\n      tag_10\n      jump\t// in\n    tag_16:\n      mload(0x40)\n      dup1\n      swap2\n      sub\n      swap1\n      return\n        /* \"contracts/bank.sol\":139:226  function deposit() external payable {\r... */\n    tag_5:\n      tag_17\n      tag_18\n      jump\t// in\n    tag_17:\n      stop\n        /* \"contracts/bank.sol\":511:610  function bankBalance() public view returns (uint256){\r... */\n    tag_8:\n        /* \"contracts/bank.sol\":555:562  uint256 */\n      0x00\n        /* \"contracts/bank.sol\":581:602  address(this).balance */\n      selfbalance\n        /* \"contracts/bank.sol\":574:602  return address(this).balance */\n      swap1\n      pop\n        /* \"contracts/bank.sol\":511:610  function bankBalance() public view returns (uint256){\r... */\n      swap1\n      jump\t// out\n        /* \"contracts/bank.sol\":234:503  function withdraw() external payable {\r... */\n    tag_12:\n        /* \"contracts/bank.sol\":312:313  0 */\n      0x00\n        /* \"contracts/bank.sol\":290:297  balance */\n      dup1\n        /* \"contracts/bank.sol\":290:309  balance[msg.sender] */\n      0x00\n        /* \"contracts/bank.sol\":298:308  msg.sender */\n      caller\n        /* \"contracts/bank.sol\":290:309  balance[msg.sender] */\n      0xffffffffffffffffffffffffffffffffffffffff\n      and\n      0xffffffffffffffffffffffffffffffffffffffff\n      and\n      dup2\n      mstore\n      0x20\n      add\n      swap1\n      dup2\n      mstore\n      0x20\n      add\n      0x00\n      keccak256\n      sload\n        /* \"contracts/bank.sol\":290:313  balance[msg.sender] > 0 */\n      gt\n        /* \"contracts/bank.sol\":282:350  require(balance[msg.sender] > 0, \"Balance must be larger than zero\") */\n      tag_21\n      jumpi\n      mload(0x40)\n      0x08c379a000000000000000000000000000000000000000000000000000000000\n      dup2\n      mstore\n      0x04\n      add\n      tag_22\n      swap1\n      tag_23\n      jump\t// in\n    tag_22:\n      mload(0x40)\n      dup1\n      swap2\n      sub\n      swap1\n      revert\n    tag_21:\n        /* \"contracts/bank.sol\":363:375  bool success */\n      0x00\n        /* \"contracts/bank.sol\":389:399  msg.sender */\n      caller\n        /* \"contracts/bank.sol\":381:405  payable(msg.sender).call */\n      0xffffffffffffffffffffffffffffffffffffffff\n      and\n        /* \"contracts/bank.sol\":427:434  balance */\n      0x00\n        /* \"contracts/bank.sol\":427:446  balance[msg.sender] */\n      dup1\n        /* \"contracts/bank.sol\":435:445  msg.sender */\n      caller\n        /* \"contracts/bank.sol\":427:446  balance[msg.sender] */\n      0xffffffffffffffffffffffffffffffffffffffff\n      and\n      0xffffffffffffffffffffffffffffffffffffffff\n      and\n      dup2\n      mstore\n      0x20\n      add\n      swap1\n      dup2\n      mstore\n      0x20\n      add\n      0x00\n      keccak256\n      sload\n        /* \"contracts/bank.sol\":381:461  payable(msg.sender).call{\r... */\n      mload(0x40)\n      tag_24\n      swap1\n      tag_25\n      jump\t// in\n    tag_24:\n      0x00\n      mload(0x40)\n      dup1\n      dup4\n      sub\n      dup2\n      dup6\n      dup8\n      gas\n      call\n      swap3\n      pop\n      pop\n      pop\n      returndatasize\n      dup1\n      0x00\n      dup2\n      eq\n      tag_28\n      jumpi\n      mload(0x40)\n      swap2\n      pop\n      and(add(returndatasize, 0x3f), not(0x1f))\n      dup3\n      add\n      0x40\n      mstore\n      returndatasize\n      dup3\n      mstore\n      returndatasize\n      0x00\n      0x20\n      dup5\n      add\n      returndatacopy\n      jump(tag_27)\n    tag_28:\n      0x60\n      swap2\n      pop\n    tag_27:\n      pop\n        /* \"contracts/bank.sol\":362:461  (bool success, ) = payable(msg.sender).call{\r... */\n      pop\n      swap1\n      pop\n        /* \"contracts/bank.sol\":494:495  0 */\n      0x00\n        /* \"contracts/bank.sol\":472:479  balance */\n      dup1\n        /* \"contracts/bank.sol\":472:491  balance[msg.sender] */\n      0x00\n        /* \"contracts/bank.sol\":480:490  msg.sender */\n      caller\n        /* \"contracts/bank.sol\":472:491  balance[msg.sender] */\n      0xffffffffffffffffffffffffffffffffffffffff\n      and\n      0xffffffffffffffffffffffffffffffffffffffff\n      and\n      dup2\n      mstore\n      0x20\n      add\n      swap1\n      dup2\n      mstore\n      0x20\n      add\n      0x00\n      keccak256\n        /* \"contracts/bank.sol\":472:495  balance[msg.sender] = 0 */\n      dup2\n      swap1\n      sstore\n      pop\n        /* \"contracts/bank.sol\":271:503  {\r... */\n      pop\n        /* \"contracts/bank.sol\":234:503  function withdraw() external payable {\r... */\n      jump\t// out\n        /* \"contracts/bank.sol\":618:716  function userBalance() public view returns (uint256) {\r... */\n    tag_15:\n        /* \"contracts/bank.sol\":662:669  uint256 */\n      0x00\n        /* \"contracts/bank.sol\":689:696  balance */\n      dup1\n        /* \"contracts/bank.sol\":689:708  balance[msg.sender] */\n      0x00\n        /* \"contracts/bank.sol\":697:707  msg.sender */\n      caller\n        /* \"contracts/bank.sol\":689:708  balance[msg.sender] */\n      0xffffffffffffffffffffffffffffffffffffffff\n      and\n      0xffffffffffffffffffffffffffffffffffffffff\n      and\n      dup2\n      mstore\n      0x20\n      add\n      swap1\n      dup2\n      mstore\n      0x20\n      add\n      0x00\n      keccak256\n      sload\n        /* \"contracts/bank.sol\":682:708  return balance[msg.sender] */\n      swap1\n      pop\n        /* \"contracts/bank.sol\":618:716  function userBalance() public view returns (uint256) {\r... */\n      swap1\n      jump\t// out\n        /* \"contracts/bank.sol\":139:226  function deposit() external payable {\r... */\n    tag_18:\n        /* \"contracts/bank.sol\":209:218  msg.value */\n      callvalue\n        /* \"contracts/bank.sol\":186:193  balance */\n      0x00\n        /* \"contracts/bank.sol\":186:205  balance[msg.sender] */\n      dup1\n        /* \"contracts/bank.sol\":194:204  msg.sender */\n      caller\n        /* \"contracts/bank.sol\":186:205  balance[msg.sender] */\n      0xffffffffffffffffffffffffffffffffffffffff\n      and\n      0xffffffffffffffffffffffffffffffffffffffff\n      and\n      dup2\n      mstore\n      0x20\n      add\n      swap1\n      dup2\n      mstore\n      0x20\n      add\n      0x00\n      keccak256\n      0x00\n        /* \"contracts/bank.sol\":186:218  balance[msg.sender] += msg.value */\n      dup3\n      dup3\n      sload\n      tag_31\n      swap2\n      swap1\n      tag_32\n      jump\t// in\n    tag_31:\n      swap3\n      pop\n      pop\n      dup2\n      swap1\n      sstore\n      pop\n        /* \"contracts/bank.sol\":139:226  function deposit() external payable {\r... */\n      jump\t// out\n        /* \"#utility.yul\":7:373   */\n    tag_34:\n        /* \"#utility.yul\":149:152   */\n      0x00\n        /* \"#utility.yul\":170:237   */\n      tag_36\n        /* \"#utility.yul\":234:236   */\n      0x20\n        /* \"#utility.yul\":229:232   */\n      dup4\n        /* \"#utility.yul\":170:237   */\n      tag_37\n      jump\t// in\n    tag_36:\n        /* \"#utility.yul\":163:237   */\n      swap2\n      pop\n        /* \"#utility.yul\":246:339   */\n      tag_38\n        /* \"#utility.yul\":335:338   */\n      dup3\n        /* \"#utility.yul\":246:339   */\n      tag_39\n      jump\t// in\n    tag_38:\n        /* \"#utility.yul\":364:366   */\n      0x20\n        /* \"#utility.yul\":359:362   */\n      dup3\n        /* \"#utility.yul\":355:367   */\n      add\n        /* \"#utility.yul\":348:367   */\n      swap1\n      pop\n        /* \"#utility.yul\":7:373   */\n      swap2\n      swap1\n      pop\n      jump\t// out\n        /* \"#utility.yul\":379:777   */\n    tag_40:\n        /* \"#utility.yul\":538:541   */\n      0x00\n        /* \"#utility.yul\":559:642   */\n      tag_42\n        /* \"#utility.yul\":640:641   */\n      0x00\n        /* \"#utility.yul\":635:638   */\n      dup4\n        /* \"#utility.yul\":559:642   */\n      tag_43\n      jump\t// in\n    tag_42:\n        /* \"#utility.yul\":552:642   */\n      swap2\n      pop\n        /* \"#utility.yul\":651:744   */\n      tag_44\n        /* \"#utility.yul\":740:743   */\n      dup3\n        /* \"#utility.yul\":651:744   */\n      tag_45\n      jump\t// in\n    tag_44:\n        /* \"#utility.yul\":769:770   */\n      0x00\n        /* \"#utility.yul\":764:767   */\n      dup3\n        /* \"#utility.yul\":760:771   */\n      add\n        /* \"#utility.yul\":753:771   */\n      swap1\n      pop\n        /* \"#utility.yul\":379:777   */\n      swap2\n      swap1\n      pop\n      jump\t// out\n        /* \"#utility.yul\":783:901   */\n    tag_46:\n        /* \"#utility.yul\":870:894   */\n      tag_48\n        /* \"#utility.yul\":888:893   */\n      dup2\n        /* \"#utility.yul\":870:894   */\n      tag_49\n      jump\t// in\n    tag_48:\n        /* \"#utility.yul\":865:868   */\n      dup3\n        /* \"#utility.yul\":858:895   */\n      mstore\n        /* \"#utility.yul\":783:901   */\n      pop\n      pop\n      jump\t// out\n        /* \"#utility.yul\":907:1286   */\n    tag_25:\n        /* \"#utility.yul\":1091:1094   */\n      0x00\n        /* \"#utility.yul\":1113:1260   */\n      tag_51\n        /* \"#utility.yul\":1256:1259   */\n      dup3\n        /* \"#utility.yul\":1113:1260   */\n      tag_40\n      jump\t// in\n    tag_51:\n        /* \"#utility.yul\":1106:1260   */\n      swap2\n      pop\n        /* \"#utility.yul\":1277:1280   */\n      dup2\n        /* \"#utility.yul\":1270:1280   */\n      swap1\n      pop\n        /* \"#utility.yul\":907:1286   */\n      swap2\n      swap1\n      pop\n      jump\t// out\n        /* \"#utility.yul\":1292:1711   */\n    tag_23:\n        /* \"#utility.yul\":1458:1462   */\n      0x00\n        /* \"#utility.yul\":1496:1498   */\n      0x20\n        /* \"#utility.yul\":1485:1494   */\n      dup3\n        /* \"#utility.yul\":1481:1499   */\n      add\n        /* \"#utility.yul\":1473:1499   */\n      swap1\n      pop\n        /* \"#utility.yul\":1545:1554   */\n      dup2\n        /* \"#utility.yul\":1539:1543   */\n      dup2\n        /* \"#utility.yul\":1535:1555   */\n      sub\n        /* \"#utility.yul\":1531:1532   */\n      0x00\n        /* \"#utility.yul\":1520:1529   */\n      dup4\n        /* \"#utility.yul\":1516:1533   */\n      add\n        /* \"#utility.yul\":1509:1556   */\n      mstore\n        /* \"#utility.yul\":1573:1704   */\n      tag_53\n        /* \"#utility.yul\":1699:1703   */\n      dup2\n        /* \"#utility.yul\":1573:1704   */\n      tag_34\n      jump\t// in\n    tag_53:\n        /* \"#utility.yul\":1565:1704   */\n      swap1\n      pop\n        /* \"#utility.yul\":1292:1711   */\n      swap2\n      swap1\n      pop\n      jump\t// out\n        /* \"#utility.yul\":1717:1939   */\n    tag_10:\n        /* \"#utility.yul\":1810:1814   */\n      0x00\n        /* \"#utility.yul\":1848:1850   */\n      0x20\n        /* \"#utility.yul\":1837:1846   */\n      dup3\n        /* \"#utility.yul\":1833:1851   */\n      add\n        /* \"#utility.yul\":1825:1851   */\n      swap1\n      pop\n        /* \"#utility.yul\":1861:1932   */\n      tag_55\n        /* \"#utility.yul\":1929:1930   */\n      0x00\n        /* \"#utility.yul\":1918:1927   */\n      dup4\n        /* \"#utility.yul\":1914:1931   */\n      add\n        /* \"#utility.yul\":1905:1911   */\n      dup5\n        /* \"#utility.yul\":1861:1932   */\n      tag_46\n      jump\t// in\n    tag_55:\n        /* \"#utility.yul\":1717:1939   */\n      swap3\n      swap2\n      pop\n      pop\n      jump\t// out\n        /* \"#utility.yul\":1945:2092   */\n    tag_43:\n        /* \"#utility.yul\":2046:2057   */\n      0x00\n        /* \"#utility.yul\":2083:2086   */\n      dup2\n        /* \"#utility.yul\":2068:2086   */\n      swap1\n      pop\n        /* \"#utility.yul\":1945:2092   */\n      swap3\n      swap2\n      pop\n      pop\n      jump\t// out\n        /* \"#utility.yul\":2098:2267   */\n    tag_37:\n        /* \"#utility.yul\":2182:2193   */\n      0x00\n        /* \"#utility.yul\":2216:2222   */\n      dup3\n        /* \"#utility.yul\":2211:2214   */\n      dup3\n        /* \"#utility.yul\":2204:2223   */\n      mstore\n        /* \"#utility.yul\":2256:2260   */\n      0x20\n        /* \"#utility.yul\":2251:2254   */\n      dup3\n        /* \"#utility.yul\":2247:2261   */\n      add\n        /* \"#utility.yul\":2232:2261   */\n      swap1\n      pop\n        /* \"#utility.yul\":2098:2267   */\n      swap3\n      swap2\n      pop\n      pop\n      jump\t// out\n        /* \"#utility.yul\":2273:2578   */\n    tag_32:\n        /* \"#utility.yul\":2313:2316   */\n      0x00\n        /* \"#utility.yul\":2332:2352   */\n      tag_59\n        /* \"#utility.yul\":2350:2351   */\n      dup3\n        /* \"#utility.yul\":2332:2352   */\n      tag_49\n      jump\t// in\n    tag_59:\n        /* \"#utility.yul\":2327:2352   */\n      swap2\n      pop\n        /* \"#utility.yul\":2366:2386   */\n      tag_60\n        /* \"#utility.yul\":2384:2385   */\n      dup4\n        /* \"#utility.yul\":2366:2386   */\n      tag_49\n      jump\t// in\n    tag_60:\n        /* \"#utility.yul\":2361:2386   */\n      swap3\n      pop\n        /* \"#utility.yul\":2520:2521   */\n      dup3\n        /* \"#utility.yul\":2452:2518   */\n      0xffffffffffffffffffffffffffffffffffffffffffffffffffffffffffffffff\n        /* \"#utility.yul\":2448:2522   */\n      sub\n        /* \"#utility.yul\":2445:2446   */\n      dup3\n        /* \"#utility.yul\":2442:2523   */\n      gt\n        /* \"#utility.yul\":2439:2546   */\n      iszero\n      tag_61\n      jumpi\n        /* \"#utility.yul\":2526:2544   */\n      tag_62\n      tag_63\n      jump\t// in\n    tag_62:\n        /* \"#utility.yul\":2439:2546   */\n    tag_61:\n        /* \"#utility.yul\":2570:2571   */\n      dup3\n        /* \"#utility.yul\":2567:2568   */\n      dup3\n        /* \"#utility.yul\":2563:2572   */\n      add\n        /* \"#utility.yul\":2556:2572   */\n      swap1\n      pop\n        /* \"#utility.yul\":2273:2578   */\n      swap3\n      swap2\n      pop\n      pop\n      jump\t// out\n        /* \"#utility.yul\":2584:2661   */\n    tag_49:\n        /* \"#utility.yul\":2621:2628   */\n      0x00\n        /* \"#utility.yul\":2650:2655   */\n      dup2\n        /* \"#utility.yul\":2639:2655   */\n      swap1\n      pop\n        /* \"#utility.yul\":2584:2661   */\n      swap2\n      swap1\n      pop\n      jump\t// out\n        /* \"#utility.yul\":2667:2847   */\n    tag_63:\n        /* \"#utility.yul\":2715:2792   */\n      0x4e487b7100000000000000000000000000000000000000000000000000000000\n        /* \"#utility.yul\":2712:2713   */\n      0x00\n        /* \"#utility.yul\":2705:2793   */\n      mstore\n        /* \"#utility.yul\":2812:2816   */\n      0x11\n        /* \"#utility.yul\":2809:2810   */\n      0x04\n        /* \"#utility.yul\":2802:2817   */\n      mstore\n        /* \"#utility.yul\":2836:2840   */\n      0x24\n        /* \"#utility.yul\":2833:2834   */\n      0x00\n        /* \"#utility.yul\":2826:2841   */\n      revert\n        /* \"#utility.yul\":2853:3035   */\n    tag_39:\n        /* \"#utility.yul\":2993:3027   */\n      0x42616c616e6365206d757374206265206c6172676572207468616e207a65726f\n        /* \"#utility.yul\":2989:2990   */\n      0x00\n        /* \"#utility.yul\":2981:2987   */\n      dup3\n        /* \"#utility.yul\":2977:2991   */\n      add\n        /* \"#utility.yul\":2970:3028   */\n      mstore\n        /* \"#utility.yul\":2853:3035   */\n      pop\n      jump\t// out\n        /* \"#utility.yul\":3041:3155   */\n    tag_45:\n      pop\n      jump\t// out\n\n    auxdata: 0xa2646970667358221220b867a0c0a7c83e867da4b61e81788474b6c7e9a22b0ed9d83f90bfeaf3258f5e64736f6c63430008070033\n}\n",
				"bytecode": {
					"linkReferences": {},
					"object": "608060405234801561001057600080fd5b50610477806100206000396000f3fe60806040526004361061003f5760003560e01c806328657aa5146100445780633ccfd60b1461006f578063bf15276514610079578063d0e30db0146100a4575b600080fd5b34801561005057600080fd5b506100596100ae565b604051610066919061034f565b60405180910390f35b6100776100b6565b005b34801561008557600080fd5b5061008e610228565b60405161009b919061034f565b60405180910390f35b6100ac61026e565b005b600047905090565b60008060003373ffffffffffffffffffffffffffffffffffffffff1673ffffffffffffffffffffffffffffffffffffffff1681526020019081526020016000205411610137576040517f08c379a000000000000000000000000000000000000000000000000000000000815260040161012e9061032f565b60405180910390fd5b60003373ffffffffffffffffffffffffffffffffffffffff166000803373ffffffffffffffffffffffffffffffffffffffff1673ffffffffffffffffffffffffffffffffffffffff1681526020019081526020016000205460405161019b9061031a565b60006040518083038185875af1925050503d80600081146101d8576040519150601f19603f3d011682016040523d82523d6000602084013e6101dd565b606091505b5050905060008060003373ffffffffffffffffffffffffffffffffffffffff1673ffffffffffffffffffffffffffffffffffffffff1681526020019081526020016000208190555050565b60008060003373ffffffffffffffffffffffffffffffffffffffff1673ffffffffffffffffffffffffffffffffffffffff16815260200190815260200160002054905090565b346000803373ffffffffffffffffffffffffffffffffffffffff1673ffffffffffffffffffffffffffffffffffffffff16815260200190815260200160002060008282546102bc9190610386565b92505081905550565b60006102d2602083610375565b91506102dd82610415565b602082019050919050565b60006102f560008361036a565b91506103008261043e565b600082019050919050565b610314816103dc565b82525050565b6000610325826102e8565b9150819050919050565b60006020820190508181036000830152610348816102c5565b9050919050565b6000602082019050610364600083018461030b565b92915050565b600081905092915050565b600082825260208201905092915050565b6000610391826103dc565b915061039c836103dc565b9250827fffffffffffffffffffffffffffffffffffffffffffffffffffffffffffffffff038211156103d1576103d06103e6565b5b828201905092915050565b6000819050919050565b7f4e487b7100000000000000000000000000000000000000000000000000000000600052601160045260246000fd5b7f42616c616e6365206d757374206265206c6172676572207468616e207a65726f600082015250565b5056fea2646970667358221220b867a0c0a7c83e867da4b61e81788474b6c7e9a22b0ed9d83f90bfeaf3258f5e64736f6c63430008070033",
					"opcodes": "PUSH1 0x80 PUSH1 0x40 MSTORE CALLVALUE DUP1 ISZERO PUSH2 0x10 JUMPI PUSH1 0x0 DUP1 REVERT JUMPDEST POP PUSH2 0x477 DUP1 PUSH2 0x20 PUSH1 0x0 CODECOPY PUSH1 0x0 RETURN INVALID PUSH1 0x80 PUSH1 0x40 MSTORE PUSH1 0x4 CALLDATASIZE LT PUSH2 0x3F JUMPI PUSH1 0x0 CALLDATALOAD PUSH1 0xE0 SHR DUP1 PUSH4 0x28657AA5 EQ PUSH2 0x44 JUMPI DUP1 PUSH4 0x3CCFD60B EQ PUSH2 0x6F JUMPI DUP1 PUSH4 0xBF152765 EQ PUSH2 0x79 JUMPI DUP1 PUSH4 0xD0E30DB0 EQ PUSH2 0xA4 JUMPI JUMPDEST PUSH1 0x0 DUP1 REVERT JUMPDEST CALLVALUE DUP1 ISZERO PUSH2 0x50 JUMPI PUSH1 0x0 DUP1 REVERT JUMPDEST POP PUSH2 0x59 PUSH2 0xAE JUMP JUMPDEST PUSH1 0x40 MLOAD PUSH2 0x66 SWAP2 SWAP1 PUSH2 0x34F JUMP JUMPDEST PUSH1 0x40 MLOAD DUP1 SWAP2 SUB SWAP1 RETURN JUMPDEST PUSH2 0x77 PUSH2 0xB6 JUMP JUMPDEST STOP JUMPDEST CALLVALUE DUP1 ISZERO PUSH2 0x85 JUMPI PUSH1 0x0 DUP1 REVERT JUMPDEST POP PUSH2 0x8E PUSH2 0x228 JUMP JUMPDEST PUSH1 0x40 MLOAD PUSH2 0x9B SWAP2 SWAP1 PUSH2 0x34F JUMP JUMPDEST PUSH1 0x40 MLOAD DUP1 SWAP2 SUB SWAP1 RETURN JUMPDEST PUSH2 0xAC PUSH2 0x26E JUMP JUMPDEST STOP JUMPDEST PUSH1 0x0 SELFBALANCE SWAP1 POP SWAP1 JUMP JUMPDEST PUSH1 0x0 DUP1 PUSH1 0x0 CALLER PUSH20 0xFFFFFFFFFFFFFFFFFFFFFFFFFFFFFFFFFFFFFFFF AND PUSH20 0xFFFFFFFFFFFFFFFFFFFFFFFFFFFFFFFFFFFFFFFF AND DUP2 MSTORE PUSH1 0x20 ADD SWAP1 DUP2 MSTORE PUSH1 0x20 ADD PUSH1 0x0 KECCAK256 SLOAD GT PUSH2 0x137 JUMPI PUSH1 0x40 MLOAD PUSH32 0x8C379A000000000000000000000000000000000000000000000000000000000 DUP2 MSTORE PUSH1 0x4 ADD PUSH2 0x12E SWAP1 PUSH2 0x32F JUMP JUMPDEST PUSH1 0x40 MLOAD DUP1 SWAP2 SUB SWAP1 REVERT JUMPDEST PUSH1 0x0 CALLER PUSH20 0xFFFFFFFFFFFFFFFFFFFFFFFFFFFFFFFFFFFFFFFF AND PUSH1 0x0 DUP1 CALLER PUSH20 0xFFFFFFFFFFFFFFFFFFFFFFFFFFFFFFFFFFFFFFFF AND PUSH20 0xFFFFFFFFFFFFFFFFFFFFFFFFFFFFFFFFFFFFFFFF AND DUP2 MSTORE PUSH1 0x20 ADD SWAP1 DUP2 MSTORE PUSH1 0x20 ADD PUSH1 0x0 KECCAK256 SLOAD PUSH1 0x40 MLOAD PUSH2 0x19B SWAP1 PUSH2 0x31A JUMP JUMPDEST PUSH1 0x0 PUSH1 0x40 MLOAD DUP1 DUP4 SUB DUP2 DUP6 DUP8 GAS CALL SWAP3 POP POP POP RETURNDATASIZE DUP1 PUSH1 0x0 DUP2 EQ PUSH2 0x1D8 JUMPI PUSH1 0x40 MLOAD SWAP2 POP PUSH1 0x1F NOT PUSH1 0x3F RETURNDATASIZE ADD AND DUP3 ADD PUSH1 0x40 MSTORE RETURNDATASIZE DUP3 MSTORE RETURNDATASIZE PUSH1 0x0 PUSH1 0x20 DUP5 ADD RETURNDATACOPY PUSH2 0x1DD JUMP JUMPDEST PUSH1 0x60 SWAP2 POP JUMPDEST POP POP SWAP1 POP PUSH1 0x0 DUP1 PUSH1 0x0 CALLER PUSH20 0xFFFFFFFFFFFFFFFFFFFFFFFFFFFFFFFFFFFFFFFF AND PUSH20 0xFFFFFFFFFFFFFFFFFFFFFFFFFFFFFFFFFFFFFFFF AND DUP2 MSTORE PUSH1 0x20 ADD SWAP1 DUP2 MSTORE PUSH1 0x20 ADD PUSH1 0x0 KECCAK256 DUP2 SWAP1 SSTORE POP POP JUMP JUMPDEST PUSH1 0x0 DUP1 PUSH1 0x0 CALLER PUSH20 0xFFFFFFFFFFFFFFFFFFFFFFFFFFFFFFFFFFFFFFFF AND PUSH20 0xFFFFFFFFFFFFFFFFFFFFFFFFFFFFFFFFFFFFFFFF AND DUP2 MSTORE PUSH1 0x20 ADD SWAP1 DUP2 MSTORE PUSH1 0x20 ADD PUSH1 0x0 KECCAK256 SLOAD SWAP1 POP SWAP1 JUMP JUMPDEST CALLVALUE PUSH1 0x0 DUP1 CALLER PUSH20 0xFFFFFFFFFFFFFFFFFFFFFFFFFFFFFFFFFFFFFFFF AND PUSH20 0xFFFFFFFFFFFFFFFFFFFFFFFFFFFFFFFFFFFFFFFF AND DUP2 MSTORE PUSH1 0x20 ADD SWAP1 DUP2 MSTORE PUSH1 0x20 ADD PUSH1 0x0 KECCAK256 PUSH1 0x0 DUP3 DUP3 SLOAD PUSH2 0x2BC SWAP2 SWAP1 PUSH2 0x386 JUMP JUMPDEST SWAP3 POP POP DUP2 SWAP1 SSTORE POP JUMP JUMPDEST PUSH1 0x0 PUSH2 0x2D2 PUSH1 0x20 DUP4 PUSH2 0x375 JUMP JUMPDEST SWAP2 POP PUSH2 0x2DD DUP3 PUSH2 0x415 JUMP JUMPDEST PUSH1 0x20 DUP3 ADD SWAP1 POP SWAP2 SWAP1 POP JUMP JUMPDEST PUSH1 0x0 PUSH2 0x2F5 PUSH1 0x0 DUP4 PUSH2 0x36A JUMP JUMPDEST SWAP2 POP PUSH2 0x300 DUP3 PUSH2 0x43E JUMP JUMPDEST PUSH1 0x0 DUP3 ADD SWAP1 POP SWAP2 SWAP1 POP JUMP JUMPDEST PUSH2 0x314 DUP2 PUSH2 0x3DC JUMP JUMPDEST DUP3 MSTORE POP POP JUMP JUMPDEST PUSH1 0x0 PUSH2 0x325 DUP3 PUSH2 0x2E8 JUMP JUMPDEST SWAP2 POP DUP2 SWAP1 POP SWAP2 SWAP1 POP JUMP JUMPDEST PUSH1 0x0 PUSH1 0x20 DUP3 ADD SWAP1 POP DUP2 DUP2 SUB PUSH1 0x0 DUP4 ADD MSTORE PUSH2 0x348 DUP2 PUSH2 0x2C5 JUMP JUMPDEST SWAP1 POP SWAP2 SWAP1 POP JUMP JUMPDEST PUSH1 0x0 PUSH1 0x20 DUP3 ADD SWAP1 POP PUSH2 0x364 PUSH1 0x0 DUP4 ADD DUP5 PUSH2 0x30B JUMP JUMPDEST SWAP3 SWAP2 POP POP JUMP JUMPDEST PUSH1 0x0 DUP2 SWAP1 POP SWAP3 SWAP2 POP POP JUMP JUMPDEST PUSH1 0x0 DUP3 DUP3 MSTORE PUSH1 0x20 DUP3 ADD SWAP1 POP SWAP3 SWAP2 POP POP JUMP JUMPDEST PUSH1 0x0 PUSH2 0x391 DUP3 PUSH2 0x3DC JUMP JUMPDEST SWAP2 POP PUSH2 0x39C DUP4 PUSH2 0x3DC JUMP JUMPDEST SWAP3 POP DUP3 PUSH32 0xFFFFFFFFFFFFFFFFFFFFFFFFFFFFFFFFFFFFFFFFFFFFFFFFFFFFFFFFFFFFFFFF SUB DUP3 GT ISZERO PUSH2 0x3D1 JUMPI PUSH2 0x3D0 PUSH2 0x3E6 JUMP JUMPDEST JUMPDEST DUP3 DUP3 ADD SWAP1 POP SWAP3 SWAP2 POP POP JUMP JUMPDEST PUSH1 0x0 DUP2 SWAP1 POP SWAP2 SWAP1 POP JUMP JUMPDEST PUSH32 0x4E487B7100000000000000000000000000000000000000000000000000000000 PUSH1 0x0 MSTORE PUSH1 0x11 PUSH1 0x4 MSTORE PUSH1 0x24 PUSH1 0x0 REVERT JUMPDEST PUSH32 0x42616C616E6365206D757374206265206C6172676572207468616E207A65726F PUSH1 0x0 DUP3 ADD MSTORE POP JUMP JUMPDEST POP JUMP INVALID LOG2 PUSH5 0x6970667358 0x22 SLT KECCAK256 0xB8 PUSH8 0xA0C0A7C83E867DA4 0xB6 0x1E DUP2 PUSH25 0x8474B6C7E9A22B0ED9D83F90BFEAF3258F5E64736F6C634300 ADDMOD SMOD STOP CALLER "
				},
				"gasEstimates": {
					"creation": {
						"codeDepositCost": "228600",
						"executionCost": "269",
						"totalCost": "228869"
					},
					"external": {
						"bankBalance()": "317",
						"deposit()": "infinite",
						"userBalance()": "2548",
						"withdraw()": "infinite"
					}
				},
				"methodIdentifiers": {
					"bankBalance()": "28657aa5",
					"deposit()": "d0e30db0",
					"userBalance()": "bf152765",
					"withdraw()": "3ccfd60b"
				}
			},
			"userdoc": {
				"kind": "user",
				"methods": {},
				"version": 1
			}
		}
	}
}