{
	"contracts/tokens.sol": {
		"Tokens": {
			"abi": [
				{
					"inputs": [
						{
							"internalType": "address payable",
							"name": "_wallet",
							"type": "address"
						}
					],
					"stateMutability": "nonpayable",
					"type": "constructor"
				},
				{
					"anonymous": false,
					"inputs": [
						{
							"indexed": false,
							"internalType": "address",
							"name": "_buyer",
							"type": "address"
						},
						{
							"indexed": false,
							"internalType": "uint256",
							"name": "_amount",
							"type": "uint256"
						},
						{
							"indexed": false,
							"internalType": "bool",
							"name": "_successful",
							"type": "bool"
						}
					],
					"name": "Purchase",
					"type": "event"
				},
				{
					"inputs": [],
					"name": "buyToken",
					"outputs": [],
					"stateMutability": "payable",
					"type": "function"
				},
				{
					"inputs": [],
					"name": "getTokens",
					"outputs": [
						{
							"components": [
								{
									"internalType": "uint256",
									"name": "cost",
									"type": "uint256"
								}
							],
							"internalType": "struct Tokens.Token[]",
							"name": "",
							"type": "tuple[]"
						}
					],
					"stateMutability": "view",
					"type": "function"
				}
			],
			"devdoc": {
				"kind": "dev",
				"methods": {},
				"version": 1
			},
			"evm": {
				"assembly": "    /* \"contracts/tokens.sol\":63:799  contract Tokens {\r... */\n  mstore(0x40, 0x80)\n    /* \"contracts/tokens.sol\":320:392  constructor(address payable _wallet) {\r... */\n  callvalue\n  dup1\n  iszero\n  tag_1\n  jumpi\n  0x00\n  dup1\n  revert\ntag_1:\n  pop\n  mload(0x40)\n  sub(codesize, bytecodeSize)\n  dup1\n  bytecodeSize\n  dup4\n  codecopy\n  dup2\n  dup2\n  add\n  0x40\n  mstore\n  dup2\n  add\n  swap1\n  tag_2\n  swap2\n  swap1\n  tag_3\n  jump\t// in\ntag_2:\n    /* \"contracts/tokens.sol\":377:384  _wallet */\n  dup1\n    /* \"contracts/tokens.sol\":368:374  wallet */\n  0x01\n  0x00\n    /* \"contracts/tokens.sol\":368:384  wallet = _wallet */\n  0x0100\n  exp\n  dup2\n  sload\n  dup2\n  0xffffffffffffffffffffffffffffffffffffffff\n  mul\n  not\n  and\n  swap1\n  dup4\n  0xffffffffffffffffffffffffffffffffffffffff\n  and\n  mul\n  or\n  swap1\n  sstore\n  pop\n    /* \"contracts/tokens.sol\":320:392  constructor(address payable _wallet) {\r... */\n  pop\n    /* \"contracts/tokens.sol\":63:799  contract Tokens {\r... */\n  jump(tag_6)\n    /* \"#utility.yul\":7:166   */\ntag_8:\n    /* \"#utility.yul\":72:77   */\n  0x00\n    /* \"#utility.yul\":103:109   */\n  dup2\n    /* \"#utility.yul\":97:110   */\n  mload\n    /* \"#utility.yul\":88:110   */\n  swap1\n  pop\n    /* \"#utility.yul\":119:160   */\n  tag_10\n    /* \"#utility.yul\":154:159   */\n  dup2\n    /* \"#utility.yul\":119:160   */\n  tag_11\n  jump\t// in\ntag_10:\n    /* \"#utility.yul\":7:166   */\n  swap3\n  swap2\n  pop\n  pop\n  jump\t// out\n    /* \"#utility.yul\":172:539   */\ntag_3:\n    /* \"#utility.yul\":250:256   */\n  0x00\n    /* \"#utility.yul\":299:301   */\n  0x20\n    /* \"#utility.yul\":287:296   */\n  dup3\n    /* \"#utility.yul\":278:285   */\n  dup5\n    /* \"#utility.yul\":274:297   */\n  sub\n    /* \"#utility.yul\":270:302   */\n  slt\n    /* \"#utility.yul\":267:386   */\n  iszero\n  tag_13\n  jumpi\n    /* \"#utility.yul\":305:384   */\n  tag_14\n  tag_15\n  jump\t// in\ntag_14:\n    /* \"#utility.yul\":267:386   */\ntag_13:\n    /* \"#utility.yul\":425:426   */\n  0x00\n    /* \"#utility.yul\":450:522   */\n  tag_16\n    /* \"#utility.yul\":514:521   */\n  dup5\n    /* \"#utility.yul\":505:511   */\n  dup3\n    /* \"#utility.yul\":494:503   */\n  dup6\n    /* \"#utility.yul\":490:512   */\n  add\n    /* \"#utility.yul\":450:522   */\n  tag_8\n  jump\t// in\ntag_16:\n    /* \"#utility.yul\":440:522   */\n  swap2\n  pop\n    /* \"#utility.yul\":396:532   */\n  pop\n    /* \"#utility.yul\":172:539   */\n  swap3\n  swap2\n  pop\n  pop\n  jump\t// out\n    /* \"#utility.yul\":626:730   */\ntag_19:\n    /* \"#utility.yul\":671:678   */\n  0x00\n    /* \"#utility.yul\":700:724   */\n  tag_21\n    /* \"#utility.yul\":718:723   */\n  dup3\n    /* \"#utility.yul\":700:724   */\n  tag_22\n  jump\t// in\ntag_21:\n    /* \"#utility.yul\":689:724   */\n  swap1\n  pop\n    /* \"#utility.yul\":626:730   */\n  swap2\n  swap1\n  pop\n  jump\t// out\n    /* \"#utility.yul\":736:862   */\ntag_22:\n    /* \"#utility.yul\":773:780   */\n  0x00\n    /* \"#utility.yul\":813:855   */\n  0xffffffffffffffffffffffffffffffffffffffff\n    /* \"#utility.yul\":806:811   */\n  dup3\n    /* \"#utility.yul\":802:856   */\n  and\n    /* \"#utility.yul\":791:856   */\n  swap1\n  pop\n    /* \"#utility.yul\":736:862   */\n  swap2\n  swap1\n  pop\n  jump\t// out\n    /* \"#utility.yul\":991:1108   */\ntag_15:\n    /* \"#utility.yul\":1100:1101   */\n  0x00\n    /* \"#utility.yul\":1097:1098   */\n  dup1\n    /* \"#utility.yul\":1090:1102   */\n  revert\n    /* \"#utility.yul\":1114:1252   */\ntag_11:\n    /* \"#utility.yul\":1195:1227   */\n  tag_28\n    /* \"#utility.yul\":1221:1226   */\n  dup2\n    /* \"#utility.yul\":1195:1227   */\n  tag_19\n  jump\t// in\ntag_28:\n    /* \"#utility.yul\":1188:1193   */\n  dup2\n    /* \"#utility.yul\":1185:1228   */\n  eq\n    /* \"#utility.yul\":1175:1246   */\n  tag_29\n  jumpi\n    /* \"#utility.yul\":1242:1243   */\n  0x00\n    /* \"#utility.yul\":1239:1240   */\n  dup1\n    /* \"#utility.yul\":1232:1244   */\n  revert\n    /* \"#utility.yul\":1175:1246   */\ntag_29:\n    /* \"#utility.yul\":1114:1252   */\n  pop\n  jump\t// out\n    /* \"contracts/tokens.sol\":63:799  contract Tokens {\r... */\ntag_6:\n  dataSize(sub_0)\n  dup1\n  dataOffset(sub_0)\n  0x00\n  codecopy\n  0x00\n  return\nstop\n\nsub_0: assembly {\n        /* \"contracts/tokens.sol\":63:799  contract Tokens {\r... */\n      mstore(0x40, 0x80)\n      jumpi(tag_1, lt(calldatasize, 0x04))\n      shr(0xe0, calldataload(0x00))\n      dup1\n      0xa4821719\n      eq\n      tag_2\n      jumpi\n      dup1\n      0xaa6ca808\n      eq\n      tag_3\n      jumpi\n    tag_1:\n      0x00\n      dup1\n      revert\n        /* \"contracts/tokens.sol\":400:686  function buyToken() public payable {\r... */\n    tag_2:\n      tag_4\n      tag_5\n      jump\t// in\n    tag_4:\n      stop\n        /* \"contracts/tokens.sol\":694:796  function getTokens() public view returns(Token[] memory){\r... */\n    tag_3:\n      callvalue\n      dup1\n      iszero\n      tag_6\n      jumpi\n      0x00\n      dup1\n      revert\n    tag_6:\n      pop\n      tag_7\n      tag_8\n      jump\t// in\n    tag_7:\n      mload(0x40)\n      tag_9\n      swap2\n      swap1\n      tag_10\n      jump\t// in\n    tag_9:\n      mload(0x40)\n      dup1\n      swap2\n      sub\n      swap1\n      return\n        /* \"contracts/tokens.sol\":400:686  function buyToken() public payable {\r... */\n    tag_5:\n        /* \"contracts/tokens.sol\":466:467  0 */\n      0x00\n        /* \"contracts/tokens.sol\":454:463  msg.value */\n      callvalue\n        /* \"contracts/tokens.sol\":454:467  msg.value > 0 */\n      gt\n        /* \"contracts/tokens.sol\":446:510  require(msg.value > 0, \"Message value must be larger than zero\") */\n      tag_12\n      jumpi\n      mload(0x40)\n      0x08c379a000000000000000000000000000000000000000000000000000000000\n      dup2\n      mstore\n      0x04\n      add\n      tag_13\n      swap1\n      tag_14\n      jump\t// in\n    tag_13:\n      mload(0x40)\n      dup1\n      swap2\n      sub\n      swap1\n      revert\n    tag_12:\n        /* \"contracts/tokens.sol\":521:529  balances */\n      0x00\n        /* \"contracts/tokens.sol\":521:541  balances[msg.sender] */\n      dup1\n        /* \"contracts/tokens.sol\":530:540  msg.sender */\n      caller\n        /* \"contracts/tokens.sol\":521:541  balances[msg.sender] */\n      0xffffffffffffffffffffffffffffffffffffffff\n      and\n      0xffffffffffffffffffffffffffffffffffffffff\n      and\n      dup2\n      mstore\n      0x20\n      add\n      swap1\n      dup2\n      mstore\n      0x20\n      add\n      0x00\n      keccak256\n        /* \"contracts/tokens.sol\":561:577  Token(msg.value) */\n      mload(0x40)\n      dup1\n      0x20\n      add\n      0x40\n      mstore\n      dup1\n        /* \"contracts/tokens.sol\":567:576  msg.value */\n      callvalue\n        /* \"contracts/tokens.sol\":561:577  Token(msg.value) */\n      dup2\n      mstore\n      pop\n        /* \"contracts/tokens.sol\":521:588  balances[msg.sender].push(\r... */\n      swap1\n      dup1\n      0x01\n      dup2\n      sload\n      add\n      dup1\n      dup3\n      sstore\n      dup1\n      swap2\n      pop\n      pop\n      0x01\n      swap1\n      sub\n      swap1\n      0x00\n      mstore\n      keccak256(0x00, 0x20)\n      add\n      0x00\n      swap1\n      swap2\n      swap1\n      swap2\n      swap1\n      swap2\n      pop\n      0x00\n      dup3\n      add\n      mload\n      dup2\n      0x00\n      add\n      sstore\n      pop\n      pop\n        /* \"contracts/tokens.sol\":599:605  wallet */\n      0x01\n      0x00\n      swap1\n      sload\n      swap1\n      0x0100\n      exp\n      swap1\n      div\n      0xffffffffffffffffffffffffffffffffffffffff\n      and\n        /* \"contracts/tokens.sol\":599:614  wallet.transfer */\n      0xffffffffffffffffffffffffffffffffffffffff\n      and\n        /* \"contracts/tokens.sol\":599:625  wallet.transfer(msg.value) */\n      0x08fc\n        /* \"contracts/tokens.sol\":615:624  msg.value */\n      callvalue\n        /* \"contracts/tokens.sol\":599:625  wallet.transfer(msg.value) */\n      swap1\n      dup2\n      iszero\n      mul\n      swap1\n      mload(0x40)\n      0x00\n      mload(0x40)\n      dup1\n      dup4\n      sub\n      dup2\n      dup6\n      dup9\n      dup9\n      call\n      swap4\n      pop\n      pop\n      pop\n      pop\n      iszero\n      dup1\n      iszero\n      tag_17\n      jumpi\n      returndatasize\n      0x00\n      dup1\n      returndatacopy\n      revert(0x00, returndatasize)\n    tag_17:\n      pop\n        /* \"contracts/tokens.sol\":641:678  Purchase(msg.sender, msg.value, true) */\n      0x1d61142c2c6c7bca70470912f4bb5e385638b745dd1da048b6f9bb4c3ee35005\n        /* \"contracts/tokens.sol\":650:660  msg.sender */\n      caller\n        /* \"contracts/tokens.sol\":662:671  msg.value */\n      callvalue\n        /* \"contracts/tokens.sol\":673:677  true */\n      0x01\n        /* \"contracts/tokens.sol\":641:678  Purchase(msg.sender, msg.value, true) */\n      mload(0x40)\n      tag_18\n      swap4\n      swap3\n      swap2\n      swap1\n      tag_19\n      jump\t// in\n    tag_18:\n      mload(0x40)\n      dup1\n      swap2\n      sub\n      swap1\n      log1\n        /* \"contracts/tokens.sol\":400:686  function buyToken() public payable {\r... */\n      jump\t// out\n        /* \"contracts/tokens.sol\":694:796  function getTokens() public view returns(Token[] memory){\r... */\n    tag_8:\n        /* \"contracts/tokens.sol\":735:749  Token[] memory */\n      0x60\n        /* \"contracts/tokens.sol\":768:776  balances */\n      0x00\n        /* \"contracts/tokens.sol\":768:788  balances[msg.sender] */\n      dup1\n        /* \"contracts/tokens.sol\":777:787  msg.sender */\n      caller\n        /* \"contracts/tokens.sol\":768:788  balances[msg.sender] */\n      0xffffffffffffffffffffffffffffffffffffffff\n      and\n      0xffffffffffffffffffffffffffffffffffffffff\n      and\n      dup2\n      mstore\n      0x20\n      add\n      swap1\n      dup2\n      mstore\n      0x20\n      add\n      0x00\n      keccak256\n        /* \"contracts/tokens.sol\":761:788  return balances[msg.sender] */\n      dup1\n      sload\n      dup1\n      0x20\n      mul\n      0x20\n      add\n      mload(0x40)\n      swap1\n      dup2\n      add\n      0x40\n      mstore\n      dup1\n      swap3\n      swap2\n      swap1\n      dup2\n      dup2\n      mstore\n      0x20\n      add\n      0x00\n      swap1\n    tag_21:\n      dup3\n      dup3\n      lt\n      iszero\n      tag_22\n      jumpi\n      dup4\n      dup3\n      swap1\n      0x00\n      mstore\n      keccak256(0x00, 0x20)\n      add\n      mload(0x40)\n      dup1\n      0x20\n      add\n      0x40\n      mstore\n      swap1\n      dup2\n      0x00\n      dup3\n      add\n      sload\n      dup2\n      mstore\n      pop\n      pop\n      dup2\n      mstore\n      0x20\n      add\n      swap1\n      0x01\n      add\n      swap1\n      jump(tag_21)\n    tag_22:\n      pop\n      pop\n      pop\n      pop\n      swap1\n      pop\n        /* \"contracts/tokens.sol\":694:796  function getTokens() public view returns(Token[] memory){\r... */\n      swap1\n      jump\t// out\n        /* \"#utility.yul\":7:266   */\n    tag_25:\n        /* \"#utility.yul\":116:126   */\n      0x00\n        /* \"#utility.yul\":137:223   */\n      tag_27\n        /* \"#utility.yul\":219:222   */\n      dup4\n        /* \"#utility.yul\":211:217   */\n      dup4\n        /* \"#utility.yul\":137:223   */\n      tag_28\n      jump\t// in\n    tag_27:\n        /* \"#utility.yul\":255:259   */\n      0x20\n        /* \"#utility.yul\":250:253   */\n      dup4\n        /* \"#utility.yul\":246:260   */\n      add\n        /* \"#utility.yul\":232:260   */\n      swap1\n      pop\n        /* \"#utility.yul\":7:266   */\n      swap3\n      swap2\n      pop\n      pop\n      jump\t// out\n        /* \"#utility.yul\":272:390   */\n    tag_29:\n        /* \"#utility.yul\":359:383   */\n      tag_31\n        /* \"#utility.yul\":377:382   */\n      dup2\n        /* \"#utility.yul\":359:383   */\n      tag_32\n      jump\t// in\n    tag_31:\n        /* \"#utility.yul\":354:357   */\n      dup3\n        /* \"#utility.yul\":347:384   */\n      mstore\n        /* \"#utility.yul\":272:390   */\n      pop\n      pop\n      jump\t// out\n        /* \"#utility.yul\":450:1342   */\n    tag_33:\n        /* \"#utility.yul\":609:612   */\n      0x00\n        /* \"#utility.yul\":638:712   */\n      tag_35\n        /* \"#utility.yul\":706:711   */\n      dup3\n        /* \"#utility.yul\":638:712   */\n      tag_36\n      jump\t// in\n    tag_35:\n        /* \"#utility.yul\":728:834   */\n      tag_37\n        /* \"#utility.yul\":827:833   */\n      dup2\n        /* \"#utility.yul\":822:825   */\n      dup6\n        /* \"#utility.yul\":728:834   */\n      tag_38\n      jump\t// in\n    tag_37:\n        /* \"#utility.yul\":721:834   */\n      swap4\n      pop\n        /* \"#utility.yul\":858:934   */\n      tag_39\n        /* \"#utility.yul\":928:933   */\n      dup4\n        /* \"#utility.yul\":858:934   */\n      tag_40\n      jump\t// in\n    tag_39:\n        /* \"#utility.yul\":957:964   */\n      dup1\n        /* \"#utility.yul\":988:989   */\n      0x00\n        /* \"#utility.yul\":973:1317   */\n    tag_41:\n        /* \"#utility.yul\":998:1004   */\n      dup4\n        /* \"#utility.yul\":995:996   */\n      dup2\n        /* \"#utility.yul\":992:1005   */\n      lt\n        /* \"#utility.yul\":973:1317   */\n      iszero\n      tag_43\n      jumpi\n        /* \"#utility.yul\":1074:1080   */\n      dup2\n        /* \"#utility.yul\":1068:1081   */\n      mload\n        /* \"#utility.yul\":1101:1204   */\n      tag_44\n        /* \"#utility.yul\":1200:1203   */\n      dup9\n        /* \"#utility.yul\":1185:1198   */\n      dup3\n        /* \"#utility.yul\":1101:1204   */\n      tag_25\n      jump\t// in\n    tag_44:\n        /* \"#utility.yul\":1094:1204   */\n      swap8\n      pop\n        /* \"#utility.yul\":1227:1307   */\n      tag_45\n        /* \"#utility.yul\":1300:1306   */\n      dup4\n        /* \"#utility.yul\":1227:1307   */\n      tag_46\n      jump\t// in\n    tag_45:\n        /* \"#utility.yul\":1217:1307   */\n      swap3\n      pop\n        /* \"#utility.yul\":1033:1317   */\n      pop\n        /* \"#utility.yul\":1020:1021   */\n      0x01\n        /* \"#utility.yul\":1017:1018   */\n      dup2\n        /* \"#utility.yul\":1013:1022   */\n      add\n        /* \"#utility.yul\":1008:1022   */\n      swap1\n      pop\n        /* \"#utility.yul\":973:1317   */\n      jump(tag_41)\n    tag_43:\n        /* \"#utility.yul\":977:991   */\n      pop\n        /* \"#utility.yul\":1333:1336   */\n      dup6\n        /* \"#utility.yul\":1326:1336   */\n      swap4\n      pop\n        /* \"#utility.yul\":614:1342   */\n      pop\n      pop\n      pop\n        /* \"#utility.yul\":450:1342   */\n      swap3\n      swap2\n      pop\n      pop\n      jump\t// out\n        /* \"#utility.yul\":1348:1457   */\n    tag_47:\n        /* \"#utility.yul\":1429:1450   */\n      tag_49\n        /* \"#utility.yul\":1444:1449   */\n      dup2\n        /* \"#utility.yul\":1429:1450   */\n      tag_50\n      jump\t// in\n    tag_49:\n        /* \"#utility.yul\":1424:1427   */\n      dup3\n        /* \"#utility.yul\":1417:1451   */\n      mstore\n        /* \"#utility.yul\":1348:1457   */\n      pop\n      pop\n      jump\t// out\n        /* \"#utility.yul\":1463:1829   */\n    tag_51:\n        /* \"#utility.yul\":1605:1608   */\n      0x00\n        /* \"#utility.yul\":1626:1693   */\n      tag_53\n        /* \"#utility.yul\":1690:1692   */\n      0x26\n        /* \"#utility.yul\":1685:1688   */\n      dup4\n        /* \"#utility.yul\":1626:1693   */\n      tag_54\n      jump\t// in\n    tag_53:\n        /* \"#utility.yul\":1619:1693   */\n      swap2\n      pop\n        /* \"#utility.yul\":1702:1795   */\n      tag_55\n        /* \"#utility.yul\":1791:1794   */\n      dup3\n        /* \"#utility.yul\":1702:1795   */\n      tag_56\n      jump\t// in\n    tag_55:\n        /* \"#utility.yul\":1820:1822   */\n      0x40\n        /* \"#utility.yul\":1815:1818   */\n      dup3\n        /* \"#utility.yul\":1811:1823   */\n      add\n        /* \"#utility.yul\":1804:1823   */\n      swap1\n      pop\n        /* \"#utility.yul\":1463:1829   */\n      swap2\n      swap1\n      pop\n      jump\t// out\n        /* \"#utility.yul\":1885:2198   */\n    tag_28:\n        /* \"#utility.yul\":2012:2016   */\n      0x20\n        /* \"#utility.yul\":2007:2010   */\n      dup3\n        /* \"#utility.yul\":2003:2017   */\n      add\n        /* \"#utility.yul\":2099:2103   */\n      0x00\n        /* \"#utility.yul\":2092:2097   */\n      dup3\n        /* \"#utility.yul\":2088:2104   */\n      add\n        /* \"#utility.yul\":2082:2105   */\n      mload\n        /* \"#utility.yul\":2118:2181   */\n      tag_58\n        /* \"#utility.yul\":2175:2179   */\n      0x00\n        /* \"#utility.yul\":2170:2173   */\n      dup6\n        /* \"#utility.yul\":2166:2180   */\n      add\n        /* \"#utility.yul\":2152:2164   */\n      dup3\n        /* \"#utility.yul\":2118:2181   */\n      tag_59\n      jump\t// in\n    tag_58:\n        /* \"#utility.yul\":2027:2191   */\n      pop\n        /* \"#utility.yul\":1981:2198   */\n      pop\n        /* \"#utility.yul\":1885:2198   */\n      pop\n      pop\n      jump\t// out\n        /* \"#utility.yul\":2204:2312   */\n    tag_59:\n        /* \"#utility.yul\":2281:2305   */\n      tag_61\n        /* \"#utility.yul\":2299:2304   */\n      dup2\n        /* \"#utility.yul\":2281:2305   */\n      tag_62\n      jump\t// in\n    tag_61:\n        /* \"#utility.yul\":2276:2279   */\n      dup3\n        /* \"#utility.yul\":2269:2306   */\n      mstore\n        /* \"#utility.yul\":2204:2312   */\n      pop\n      pop\n      jump\t// out\n        /* \"#utility.yul\":2318:2436   */\n    tag_63:\n        /* \"#utility.yul\":2405:2429   */\n      tag_65\n        /* \"#utility.yul\":2423:2428   */\n      dup2\n        /* \"#utility.yul\":2405:2429   */\n      tag_62\n      jump\t// in\n    tag_65:\n        /* \"#utility.yul\":2400:2403   */\n      dup3\n        /* \"#utility.yul\":2393:2430   */\n      mstore\n        /* \"#utility.yul\":2318:2436   */\n      pop\n      pop\n      jump\t// out\n        /* \"#utility.yul\":2442:2872   */\n    tag_19:\n        /* \"#utility.yul\":2585:2589   */\n      0x00\n        /* \"#utility.yul\":2623:2625   */\n      0x60\n        /* \"#utility.yul\":2612:2621   */\n      dup3\n        /* \"#utility.yul\":2608:2626   */\n      add\n        /* \"#utility.yul\":2600:2626   */\n      swap1\n      pop\n        /* \"#utility.yul\":2636:2707   */\n      tag_67\n        /* \"#utility.yul\":2704:2705   */\n      0x00\n        /* \"#utility.yul\":2693:2702   */\n      dup4\n        /* \"#utility.yul\":2689:2706   */\n      add\n        /* \"#utility.yul\":2680:2686   */\n      dup7\n        /* \"#utility.yul\":2636:2707   */\n      tag_29\n      jump\t// in\n    tag_67:\n        /* \"#utility.yul\":2717:2789   */\n      tag_68\n        /* \"#utility.yul\":2785:2787   */\n      0x20\n        /* \"#utility.yul\":2774:2783   */\n      dup4\n        /* \"#utility.yul\":2770:2788   */\n      add\n        /* \"#utility.yul\":2761:2767   */\n      dup6\n        /* \"#utility.yul\":2717:2789   */\n      tag_63\n      jump\t// in\n    tag_68:\n        /* \"#utility.yul\":2799:2865   */\n      tag_69\n        /* \"#utility.yul\":2861:2863   */\n      0x40\n        /* \"#utility.yul\":2850:2859   */\n      dup4\n        /* \"#utility.yul\":2846:2864   */\n      add\n        /* \"#utility.yul\":2837:2843   */\n      dup5\n        /* \"#utility.yul\":2799:2865   */\n      tag_47\n      jump\t// in\n    tag_69:\n        /* \"#utility.yul\":2442:2872   */\n      swap5\n      swap4\n      pop\n      pop\n      pop\n      pop\n      jump\t// out\n        /* \"#utility.yul\":2878:3331   */\n    tag_10:\n        /* \"#utility.yul\":3061:3065   */\n      0x00\n        /* \"#utility.yul\":3099:3101   */\n      0x20\n        /* \"#utility.yul\":3088:3097   */\n      dup3\n        /* \"#utility.yul\":3084:3102   */\n      add\n        /* \"#utility.yul\":3076:3102   */\n      swap1\n      pop\n        /* \"#utility.yul\":3148:3157   */\n      dup2\n        /* \"#utility.yul\":3142:3146   */\n      dup2\n        /* \"#utility.yul\":3138:3158   */\n      sub\n        /* \"#utility.yul\":3134:3135   */\n      0x00\n        /* \"#utility.yul\":3123:3132   */\n      dup4\n        /* \"#utility.yul\":3119:3136   */\n      add\n        /* \"#utility.yul\":3112:3159   */\n      mstore\n        /* \"#utility.yul\":3176:3324   */\n      tag_71\n        /* \"#utility.yul\":3319:3323   */\n      dup2\n        /* \"#utility.yul\":3310:3316   */\n      dup5\n        /* \"#utility.yul\":3176:3324   */\n      tag_33\n      jump\t// in\n    tag_71:\n        /* \"#utility.yul\":3168:3324   */\n      swap1\n      pop\n        /* \"#utility.yul\":2878:3331   */\n      swap3\n      swap2\n      pop\n      pop\n      jump\t// out\n        /* \"#utility.yul\":3337:3756   */\n    tag_14:\n        /* \"#utility.yul\":3503:3507   */\n      0x00\n        /* \"#utility.yul\":3541:3543   */\n      0x20\n        /* \"#utility.yul\":3530:3539   */\n      dup3\n        /* \"#utility.yul\":3526:3544   */\n      add\n        /* \"#utility.yul\":3518:3544   */\n      swap1\n      pop\n        /* \"#utility.yul\":3590:3599   */\n      dup2\n        /* \"#utility.yul\":3584:3588   */\n      dup2\n        /* \"#utility.yul\":3580:3600   */\n      sub\n        /* \"#utility.yul\":3576:3577   */\n      0x00\n        /* \"#utility.yul\":3565:3574   */\n      dup4\n        /* \"#utility.yul\":3561:3578   */\n      add\n        /* \"#utility.yul\":3554:3601   */\n      mstore\n        /* \"#utility.yul\":3618:3749   */\n      tag_73\n        /* \"#utility.yul\":3744:3748   */\n      dup2\n        /* \"#utility.yul\":3618:3749   */\n      tag_51\n      jump\t// in\n    tag_73:\n        /* \"#utility.yul\":3610:3749   */\n      swap1\n      pop\n        /* \"#utility.yul\":3337:3756   */\n      swap2\n      swap1\n      pop\n      jump\t// out\n        /* \"#utility.yul\":3762:3914   */\n    tag_40:\n        /* \"#utility.yul\":3849:3853   */\n      0x00\n        /* \"#utility.yul\":3872:3875   */\n      dup2\n        /* \"#utility.yul\":3864:3875   */\n      swap1\n      pop\n        /* \"#utility.yul\":3902:3906   */\n      0x20\n        /* \"#utility.yul\":3897:3900   */\n      dup3\n        /* \"#utility.yul\":3893:3907   */\n      add\n        /* \"#utility.yul\":3885:3907   */\n      swap1\n      pop\n        /* \"#utility.yul\":3762:3914   */\n      swap2\n      swap1\n      pop\n      jump\t// out\n        /* \"#utility.yul\":3920:4054   */\n    tag_36:\n        /* \"#utility.yul\":4007:4013   */\n      0x00\n        /* \"#utility.yul\":4041:4046   */\n      dup2\n        /* \"#utility.yul\":4035:4047   */\n      mload\n        /* \"#utility.yul\":4025:4047   */\n      swap1\n      pop\n        /* \"#utility.yul\":3920:4054   */\n      swap2\n      swap1\n      pop\n      jump\t// out\n        /* \"#utility.yul\":4060:4193   */\n    tag_46:\n        /* \"#utility.yul\":4150:4154   */\n      0x00\n        /* \"#utility.yul\":4182:4186   */\n      0x20\n        /* \"#utility.yul\":4177:4180   */\n      dup3\n        /* \"#utility.yul\":4173:4187   */\n      add\n        /* \"#utility.yul\":4165:4187   */\n      swap1\n      pop\n        /* \"#utility.yul\":4060:4193   */\n      swap2\n      swap1\n      pop\n      jump\t// out\n        /* \"#utility.yul\":4199:4403   */\n    tag_38:\n        /* \"#utility.yul\":4318:4329   */\n      0x00\n        /* \"#utility.yul\":4352:4358   */\n      dup3\n        /* \"#utility.yul\":4347:4350   */\n      dup3\n        /* \"#utility.yul\":4340:4359   */\n      mstore\n        /* \"#utility.yul\":4392:4396   */\n      0x20\n        /* \"#utility.yul\":4387:4390   */\n      dup3\n        /* \"#utility.yul\":4383:4397   */\n      add\n        /* \"#utility.yul\":4368:4397   */\n      swap1\n      pop\n        /* \"#utility.yul\":4199:4403   */\n      swap3\n      swap2\n      pop\n      pop\n      jump\t// out\n        /* \"#utility.yul\":4409:4578   */\n    tag_54:\n        /* \"#utility.yul\":4493:4504   */\n      0x00\n        /* \"#utility.yul\":4527:4533   */\n      dup3\n        /* \"#utility.yul\":4522:4525   */\n      dup3\n        /* \"#utility.yul\":4515:4534   */\n      mstore\n        /* \"#utility.yul\":4567:4571   */\n      0x20\n        /* \"#utility.yul\":4562:4565   */\n      dup3\n        /* \"#utility.yul\":4558:4572   */\n      add\n        /* \"#utility.yul\":4543:4572   */\n      swap1\n      pop\n        /* \"#utility.yul\":4409:4578   */\n      swap3\n      swap2\n      pop\n      pop\n      jump\t// out\n        /* \"#utility.yul\":4584:4680   */\n    tag_32:\n        /* \"#utility.yul\":4621:4628   */\n      0x00\n        /* \"#utility.yul\":4650:4674   */\n      tag_80\n        /* \"#utility.yul\":4668:4673   */\n      dup3\n        /* \"#utility.yul\":4650:4674   */\n      tag_81\n      jump\t// in\n    tag_80:\n        /* \"#utility.yul\":4639:4674   */\n      swap1\n      pop\n        /* \"#utility.yul\":4584:4680   */\n      swap2\n      swap1\n      pop\n      jump\t// out\n        /* \"#utility.yul\":4686:4776   */\n    tag_50:\n        /* \"#utility.yul\":4720:4727   */\n      0x00\n        /* \"#utility.yul\":4763:4768   */\n      dup2\n        /* \"#utility.yul\":4756:4769   */\n      iszero\n        /* \"#utility.yul\":4749:4770   */\n      iszero\n        /* \"#utility.yul\":4738:4770   */\n      swap1\n      pop\n        /* \"#utility.yul\":4686:4776   */\n      swap2\n      swap1\n      pop\n      jump\t// out\n        /* \"#utility.yul\":4782:4908   */\n    tag_81:\n        /* \"#utility.yul\":4819:4826   */\n      0x00\n        /* \"#utility.yul\":4859:4901   */\n      0xffffffffffffffffffffffffffffffffffffffff\n        /* \"#utility.yul\":4852:4857   */\n      dup3\n        /* \"#utility.yul\":4848:4902   */\n      and\n        /* \"#utility.yul\":4837:4902   */\n      swap1\n      pop\n        /* \"#utility.yul\":4782:4908   */\n      swap2\n      swap1\n      pop\n      jump\t// out\n        /* \"#utility.yul\":4914:4991   */\n    tag_62:\n        /* \"#utility.yul\":4951:4958   */\n      0x00\n        /* \"#utility.yul\":4980:4985   */\n      dup2\n        /* \"#utility.yul\":4969:4985   */\n      swap1\n      pop\n        /* \"#utility.yul\":4914:4991   */\n      swap2\n      swap1\n      pop\n      jump\t// out\n        /* \"#utility.yul\":4997:5222   */\n    tag_56:\n        /* \"#utility.yul\":5137:5171   */\n      0x4d6573736167652076616c7565206d757374206265206c617267657220746861\n        /* \"#utility.yul\":5133:5134   */\n      0x00\n        /* \"#utility.yul\":5125:5131   */\n      dup3\n        /* \"#utility.yul\":5121:5135   */\n      add\n        /* \"#utility.yul\":5114:5172   */\n      mstore\n        /* \"#utility.yul\":5206:5214   */\n      0x6e207a65726f0000000000000000000000000000000000000000000000000000\n        /* \"#utility.yul\":5201:5203   */\n      0x20\n        /* \"#utility.yul\":5193:5199   */\n      dup3\n        /* \"#utility.yul\":5189:5204   */\n      add\n        /* \"#utility.yul\":5182:5215   */\n      mstore\n        /* \"#utility.yul\":4997:5222   */\n      pop\n      jump\t// out\n\n    auxdata: 0xa2646970667358221220f3a8f5949fdd3e56654defe3a2f15e31723eeb314bd05e2e0dea8e36a513c36364736f6c63430008070033\n}\n",
				"bytecode": {
					"linkReferences": {},
					"object": "608060405234801561001057600080fd5b506040516106053803806106058339818101604052810190610032919061008e565b80600160006101000a81548173ffffffffffffffffffffffffffffffffffffffff021916908373ffffffffffffffffffffffffffffffffffffffff16021790555050610109565b600081519050610088816100f2565b92915050565b6000602082840312156100a4576100a36100ed565b5b60006100b284828501610079565b91505092915050565b60006100c6826100cd565b9050919050565b600073ffffffffffffffffffffffffffffffffffffffff82169050919050565b600080fd5b6100fb816100bb565b811461010657600080fd5b50565b6104ed806101186000396000f3fe6080604052600436106100295760003560e01c8063a48217191461002e578063aa6ca80814610038575b600080fd5b610036610063565b005b34801561004457600080fd5b5061004d6101cb565b60405161005a9190610394565b60405180910390f35b600034116100a6576040517f08c379a000000000000000000000000000000000000000000000000000000000815260040161009d906103b6565b60405180910390fd5b6000803373ffffffffffffffffffffffffffffffffffffffff1673ffffffffffffffffffffffffffffffffffffffff16815260200190815260200160002060405180602001604052803481525090806001815401808255809150506001900390600052602060002001600090919091909150600082015181600001555050600160009054906101000a900473ffffffffffffffffffffffffffffffffffffffff1673ffffffffffffffffffffffffffffffffffffffff166108fc349081150290604051600060405180830381858888f1935050505015801561018c573d6000803e3d6000fd5b507f1d61142c2c6c7bca70470912f4bb5e385638b745dd1da048b6f9bb4c3ee35005333460016040516101c19392919061035d565b60405180910390a1565b60606000803373ffffffffffffffffffffffffffffffffffffffff1673ffffffffffffffffffffffffffffffffffffffff168152602001908152602001600020805480602002602001604051908101604052809291908181526020016000905b82821015610263578382906000526020600020016040518060200160405290816000820154815250508152602001906001019061022b565b50505050905090565b60006102788383610323565b60208301905092915050565b61028d81610420565b82525050565b600061029e826103e6565b6102a881856103fe565b93506102b3836103d6565b8060005b838110156102e45781516102cb888261026c565b97506102d6836103f1565b9250506001810190506102b7565b5085935050505092915050565b6102fa81610432565b82525050565b600061030d60268361040f565b915061031882610468565b604082019050919050565b602082016000820151610339600085018261033f565b50505050565b6103488161045e565b82525050565b6103578161045e565b82525050565b60006060820190506103726000830186610284565b61037f602083018561034e565b61038c60408301846102f1565b949350505050565b600060208201905081810360008301526103ae8184610293565b905092915050565b600060208201905081810360008301526103cf81610300565b9050919050565b6000819050602082019050919050565b600081519050919050565b6000602082019050919050565b600082825260208201905092915050565b600082825260208201905092915050565b600061042b8261043e565b9050919050565b60008115159050919050565b600073ffffffffffffffffffffffffffffffffffffffff82169050919050565b6000819050919050565b7f4d6573736167652076616c7565206d757374206265206c61726765722074686160008201527f6e207a65726f000000000000000000000000000000000000000000000000000060208201525056fea2646970667358221220f3a8f5949fdd3e56654defe3a2f15e31723eeb314bd05e2e0dea8e36a513c36364736f6c63430008070033",
					"opcodes": "PUSH1 0x80 PUSH1 0x40 MSTORE CALLVALUE DUP1 ISZERO PUSH2 0x10 JUMPI PUSH1 0x0 DUP1 REVERT JUMPDEST POP PUSH1 0x40 MLOAD PUSH2 0x605 CODESIZE SUB DUP1 PUSH2 0x605 DUP4 CODECOPY DUP2 DUP2 ADD PUSH1 0x40 MSTORE DUP2 ADD SWAP1 PUSH2 0x32 SWAP2 SWAP1 PUSH2 0x8E JUMP JUMPDEST DUP1 PUSH1 0x1 PUSH1 0x0 PUSH2 0x100 EXP DUP2 SLOAD DUP2 PUSH20 0xFFFFFFFFFFFFFFFFFFFFFFFFFFFFFFFFFFFFFFFF MUL NOT AND SWAP1 DUP4 PUSH20 0xFFFFFFFFFFFFFFFFFFFFFFFFFFFFFFFFFFFFFFFF AND MUL OR SWAP1 SSTORE POP POP PUSH2 0x109 JUMP JUMPDEST PUSH1 0x0 DUP2 MLOAD SWAP1 POP PUSH2 0x88 DUP2 PUSH2 0xF2 JUMP JUMPDEST SWAP3 SWAP2 POP POP JUMP JUMPDEST PUSH1 0x0 PUSH1 0x20 DUP3 DUP5 SUB SLT ISZERO PUSH2 0xA4 JUMPI PUSH2 0xA3 PUSH2 0xED JUMP JUMPDEST JUMPDEST PUSH1 0x0 PUSH2 0xB2 DUP5 DUP3 DUP6 ADD PUSH2 0x79 JUMP JUMPDEST SWAP2 POP POP SWAP3 SWAP2 POP POP JUMP JUMPDEST PUSH1 0x0 PUSH2 0xC6 DUP3 PUSH2 0xCD JUMP JUMPDEST SWAP1 POP SWAP2 SWAP1 POP JUMP JUMPDEST PUSH1 0x0 PUSH20 0xFFFFFFFFFFFFFFFFFFFFFFFFFFFFFFFFFFFFFFFF DUP3 AND SWAP1 POP SWAP2 SWAP1 POP JUMP JUMPDEST PUSH1 0x0 DUP1 REVERT JUMPDEST PUSH2 0xFB DUP2 PUSH2 0xBB JUMP JUMPDEST DUP2 EQ PUSH2 0x106 JUMPI PUSH1 0x0 DUP1 REVERT JUMPDEST POP JUMP JUMPDEST PUSH2 0x4ED DUP1 PUSH2 0x118 PUSH1 0x0 CODECOPY PUSH1 0x0 RETURN INVALID PUSH1 0x80 PUSH1 0x40 MSTORE PUSH1 0x4 CALLDATASIZE LT PUSH2 0x29 JUMPI PUSH1 0x0 CALLDATALOAD PUSH1 0xE0 SHR DUP1 PUSH4 0xA4821719 EQ PUSH2 0x2E JUMPI DUP1 PUSH4 0xAA6CA808 EQ PUSH2 0x38 JUMPI JUMPDEST PUSH1 0x0 DUP1 REVERT JUMPDEST PUSH2 0x36 PUSH2 0x63 JUMP JUMPDEST STOP JUMPDEST CALLVALUE DUP1 ISZERO PUSH2 0x44 JUMPI PUSH1 0x0 DUP1 REVERT JUMPDEST POP PUSH2 0x4D PUSH2 0x1CB JUMP JUMPDEST PUSH1 0x40 MLOAD PUSH2 0x5A SWAP2 SWAP1 PUSH2 0x394 JUMP JUMPDEST PUSH1 0x40 MLOAD DUP1 SWAP2 SUB SWAP1 RETURN JUMPDEST PUSH1 0x0 CALLVALUE GT PUSH2 0xA6 JUMPI PUSH1 0x40 MLOAD PUSH32 0x8C379A000000000000000000000000000000000000000000000000000000000 DUP2 MSTORE PUSH1 0x4 ADD PUSH2 0x9D SWAP1 PUSH2 0x3B6 JUMP JUMPDEST PUSH1 0x40 MLOAD DUP1 SWAP2 SUB SWAP1 REVERT JUMPDEST PUSH1 0x0 DUP1 CALLER PUSH20 0xFFFFFFFFFFFFFFFFFFFFFFFFFFFFFFFFFFFFFFFF AND PUSH20 0xFFFFFFFFFFFFFFFFFFFFFFFFFFFFFFFFFFFFFFFF AND DUP2 MSTORE PUSH1 0x20 ADD SWAP1 DUP2 MSTORE PUSH1 0x20 ADD PUSH1 0x0 KECCAK256 PUSH1 0x40 MLOAD DUP1 PUSH1 0x20 ADD PUSH1 0x40 MSTORE DUP1 CALLVALUE DUP2 MSTORE POP SWAP1 DUP1 PUSH1 0x1 DUP2 SLOAD ADD DUP1 DUP3 SSTORE DUP1 SWAP2 POP POP PUSH1 0x1 SWAP1 SUB SWAP1 PUSH1 0x0 MSTORE PUSH1 0x20 PUSH1 0x0 KECCAK256 ADD PUSH1 0x0 SWAP1 SWAP2 SWAP1 SWAP2 SWAP1 SWAP2 POP PUSH1 0x0 DUP3 ADD MLOAD DUP2 PUSH1 0x0 ADD SSTORE POP POP PUSH1 0x1 PUSH1 0x0 SWAP1 SLOAD SWAP1 PUSH2 0x100 EXP SWAP1 DIV PUSH20 0xFFFFFFFFFFFFFFFFFFFFFFFFFFFFFFFFFFFFFFFF AND PUSH20 0xFFFFFFFFFFFFFFFFFFFFFFFFFFFFFFFFFFFFFFFF AND PUSH2 0x8FC CALLVALUE SWAP1 DUP2 ISZERO MUL SWAP1 PUSH1 0x40 MLOAD PUSH1 0x0 PUSH1 0x40 MLOAD DUP1 DUP4 SUB DUP2 DUP6 DUP9 DUP9 CALL SWAP4 POP POP POP POP ISZERO DUP1 ISZERO PUSH2 0x18C JUMPI RETURNDATASIZE PUSH1 0x0 DUP1 RETURNDATACOPY RETURNDATASIZE PUSH1 0x0 REVERT JUMPDEST POP PUSH32 0x1D61142C2C6C7BCA70470912F4BB5E385638B745DD1DA048B6F9BB4C3EE35005 CALLER CALLVALUE PUSH1 0x1 PUSH1 0x40 MLOAD PUSH2 0x1C1 SWAP4 SWAP3 SWAP2 SWAP1 PUSH2 0x35D JUMP JUMPDEST PUSH1 0x40 MLOAD DUP1 SWAP2 SUB SWAP1 LOG1 JUMP JUMPDEST PUSH1 0x60 PUSH1 0x0 DUP1 CALLER PUSH20 0xFFFFFFFFFFFFFFFFFFFFFFFFFFFFFFFFFFFFFFFF AND PUSH20 0xFFFFFFFFFFFFFFFFFFFFFFFFFFFFFFFFFFFFFFFF AND DUP2 MSTORE PUSH1 0x20 ADD SWAP1 DUP2 MSTORE PUSH1 0x20 ADD PUSH1 0x0 KECCAK256 DUP1 SLOAD DUP1 PUSH1 0x20 MUL PUSH1 0x20 ADD PUSH1 0x40 MLOAD SWAP1 DUP2 ADD PUSH1 0x40 MSTORE DUP1 SWAP3 SWAP2 SWAP1 DUP2 DUP2 MSTORE PUSH1 0x20 ADD PUSH1 0x0 SWAP1 JUMPDEST DUP3 DUP3 LT ISZERO PUSH2 0x263 JUMPI DUP4 DUP3 SWAP1 PUSH1 0x0 MSTORE PUSH1 0x20 PUSH1 0x0 KECCAK256 ADD PUSH1 0x40 MLOAD DUP1 PUSH1 0x20 ADD PUSH1 0x40 MSTORE SWAP1 DUP2 PUSH1 0x0 DUP3 ADD SLOAD DUP2 MSTORE POP POP DUP2 MSTORE PUSH1 0x20 ADD SWAP1 PUSH1 0x1 ADD SWAP1 PUSH2 0x22B JUMP JUMPDEST POP POP POP POP SWAP1 POP SWAP1 JUMP JUMPDEST PUSH1 0x0 PUSH2 0x278 DUP4 DUP4 PUSH2 0x323 JUMP JUMPDEST PUSH1 0x20 DUP4 ADD SWAP1 POP SWAP3 SWAP2 POP POP JUMP JUMPDEST PUSH2 0x28D DUP2 PUSH2 0x420 JUMP JUMPDEST DUP3 MSTORE POP POP JUMP JUMPDEST PUSH1 0x0 PUSH2 0x29E DUP3 PUSH2 0x3E6 JUMP JUMPDEST PUSH2 0x2A8 DUP2 DUP6 PUSH2 0x3FE JUMP JUMPDEST SWAP4 POP PUSH2 0x2B3 DUP4 PUSH2 0x3D6 JUMP JUMPDEST DUP1 PUSH1 0x0 JUMPDEST DUP4 DUP2 LT ISZERO PUSH2 0x2E4 JUMPI DUP2 MLOAD PUSH2 0x2CB DUP9 DUP3 PUSH2 0x26C JUMP JUMPDEST SWAP8 POP PUSH2 0x2D6 DUP4 PUSH2 0x3F1 JUMP JUMPDEST SWAP3 POP POP PUSH1 0x1 DUP2 ADD SWAP1 POP PUSH2 0x2B7 JUMP JUMPDEST POP DUP6 SWAP4 POP POP POP POP SWAP3 SWAP2 POP POP JUMP JUMPDEST PUSH2 0x2FA DUP2 PUSH2 0x432 JUMP JUMPDEST DUP3 MSTORE POP POP JUMP JUMPDEST PUSH1 0x0 PUSH2 0x30D PUSH1 0x26 DUP4 PUSH2 0x40F JUMP JUMPDEST SWAP2 POP PUSH2 0x318 DUP3 PUSH2 0x468 JUMP JUMPDEST PUSH1 0x40 DUP3 ADD SWAP1 POP SWAP2 SWAP1 POP JUMP JUMPDEST PUSH1 0x20 DUP3 ADD PUSH1 0x0 DUP3 ADD MLOAD PUSH2 0x339 PUSH1 0x0 DUP6 ADD DUP3 PUSH2 0x33F JUMP JUMPDEST POP POP POP POP JUMP JUMPDEST PUSH2 0x348 DUP2 PUSH2 0x45E JUMP JUMPDEST DUP3 MSTORE POP POP JUMP JUMPDEST PUSH2 0x357 DUP2 PUSH2 0x45E JUMP JUMPDEST DUP3 MSTORE POP POP JUMP JUMPDEST PUSH1 0x0 PUSH1 0x60 DUP3 ADD SWAP1 POP PUSH2 0x372 PUSH1 0x0 DUP4 ADD DUP7 PUSH2 0x284 JUMP JUMPDEST PUSH2 0x37F PUSH1 0x20 DUP4 ADD DUP6 PUSH2 0x34E JUMP JUMPDEST PUSH2 0x38C PUSH1 0x40 DUP4 ADD DUP5 PUSH2 0x2F1 JUMP JUMPDEST SWAP5 SWAP4 POP POP POP POP JUMP JUMPDEST PUSH1 0x0 PUSH1 0x20 DUP3 ADD SWAP1 POP DUP2 DUP2 SUB PUSH1 0x0 DUP4 ADD MSTORE PUSH2 0x3AE DUP2 DUP5 PUSH2 0x293 JUMP JUMPDEST SWAP1 POP SWAP3 SWAP2 POP POP JUMP JUMPDEST PUSH1 0x0 PUSH1 0x20 DUP3 ADD SWAP1 POP DUP2 DUP2 SUB PUSH1 0x0 DUP4 ADD MSTORE PUSH2 0x3CF DUP2 PUSH2 0x300 JUMP JUMPDEST SWAP1 POP SWAP2 SWAP1 POP JUMP JUMPDEST PUSH1 0x0 DUP2 SWAP1 POP PUSH1 0x20 DUP3 ADD SWAP1 POP SWAP2 SWAP1 POP JUMP JUMPDEST PUSH1 0x0 DUP2 MLOAD SWAP1 POP SWAP2 SWAP1 POP JUMP JUMPDEST PUSH1 0x0 PUSH1 0x20 DUP3 ADD SWAP1 POP SWAP2 SWAP1 POP JUMP JUMPDEST PUSH1 0x0 DUP3 DUP3 MSTORE PUSH1 0x20 DUP3 ADD SWAP1 POP SWAP3 SWAP2 POP POP JUMP JUMPDEST PUSH1 0x0 DUP3 DUP3 MSTORE PUSH1 0x20 DUP3 ADD SWAP1 POP SWAP3 SWAP2 POP POP JUMP JUMPDEST PUSH1 0x0 PUSH2 0x42B DUP3 PUSH2 0x43E JUMP JUMPDEST SWAP1 POP SWAP2 SWAP1 POP JUMP JUMPDEST PUSH1 0x0 DUP2 ISZERO ISZERO SWAP1 POP SWAP2 SWAP1 POP JUMP JUMPDEST PUSH1 0x0 PUSH20 0xFFFFFFFFFFFFFFFFFFFFFFFFFFFFFFFFFFFFFFFF DUP3 AND SWAP1 POP SWAP2 SWAP1 POP JUMP JUMPDEST PUSH1 0x0 DUP2 SWAP1 POP SWAP2 SWAP1 POP JUMP JUMPDEST PUSH32 0x4D6573736167652076616C7565206D757374206265206C617267657220746861 PUSH1 0x0 DUP3 ADD MSTORE PUSH32 0x6E207A65726F0000000000000000000000000000000000000000000000000000 PUSH1 0x20 DUP3 ADD MSTORE POP JUMP INVALID LOG2 PUSH5 0x6970667358 0x22 SLT KECCAK256 RETURN 0xA8 CREATE2 SWAP5 SWAP16 0xDD RETURNDATACOPY JUMP PUSH6 0x4DEFE3A2F15E BALANCE PUSH19 0x3EEB314BD05E2E0DEA8E36A513C36364736F6C PUSH4 0x43000807 STOP CALLER "
				},
				"gasEstimates": {
					"creation": {
						"codeDepositCost": "252200",
						"executionCost": "infinite",
						"totalCost": "infinite"
					},
					"external": {
						"buyToken()": "infinite",
						"getTokens()": "infinite"
					}
				},
				"methodIdentifiers": {
					"buyToken()": "a4821719",
					"getTokens()": "aa6ca808"
				}
			},
			"userdoc": {
				"kind": "user",
				"methods": {},
				"version": 1
			}
		}
	}
}