{
	"contracts/bank.sol": {
		"Bank": {
			"abi": [
				{
					"inputs": [],
					"name": "bankBalance",
					"outputs": [
						{
							"internalType": "uint256",
							"name": "",
							"type": "uint256"
						}
					],
					"stateMutability": "view",
					"type": "function"
				},
				{
					"inputs": [],
					"name": "deposit",
					"outputs": [],
					"stateMutability": "payable",
					"type": "function"
				},
				{
					"inputs": [
						{
							"internalType": "address",
							"name": "_address",
							"type": "address"
						}
					],
					"name": "userBalance",
					"outputs": [
						{
							"internalType": "uint256",
							"name": "",
							"type": "uint256"
						}
					],
					"stateMutability": "view",
					"type": "function"
				},
				{
					"inputs": [],
					"name": "withdraw",
					"outputs": [],
					"stateMutability": "payable",
					"type": "function"
				}
			],
			"devdoc": {
				"kind": "dev",
				"methods": {},
				"version": 1
			},
			"evm": {
				"assembly": "    /* \"contracts/bank.sol\":63:771  contract Bank {\r... */\n  mstore(0x40, 0x80)\n  callvalue\n  dup1\n  iszero\n  tag_1\n  jumpi\n  0x00\n  dup1\n  revert\ntag_1:\n  pop\n  dataSize(sub_0)\n  dup1\n  dataOffset(sub_0)\n  0x00\n  codecopy\n  0x00\n  return\nstop\n\nsub_0: assembly {\n        /* \"contracts/bank.sol\":63:771  contract Bank {\r... */\n      mstore(0x40, 0x80)\n      jumpi(tag_1, lt(calldatasize, 0x04))\n      shr(0xe0, calldataload(0x00))\n      dup1\n      0x0103c92b\n      eq\n      tag_2\n      jumpi\n      dup1\n      0x28657aa5\n      eq\n      tag_3\n      jumpi\n      dup1\n      0x3ccfd60b\n      eq\n      tag_4\n      jumpi\n      dup1\n      0xd0e30db0\n      eq\n      tag_5\n      jumpi\n    tag_1:\n      0x00\n      dup1\n      revert\n        /* \"contracts/bank.sol\":656:768  function userBalance(address _address) public view returns (uint256) {\r... */\n    tag_2:\n      callvalue\n      dup1\n      iszero\n      tag_6\n      jumpi\n      0x00\n      dup1\n      revert\n    tag_6:\n      pop\n      tag_7\n      0x04\n      dup1\n      calldatasize\n      sub\n      dup2\n      add\n      swap1\n      tag_8\n      swap2\n      swap1\n      tag_9\n      jump\t// in\n    tag_8:\n      tag_10\n      jump\t// in\n    tag_7:\n      mload(0x40)\n      tag_11\n      swap2\n      swap1\n      tag_12\n      jump\t// in\n    tag_11:\n      mload(0x40)\n      dup1\n      swap2\n      sub\n      swap1\n      return\n        /* \"contracts/bank.sol\":549:648  function bankBalance() public view returns (uint256){\r... */\n    tag_3:\n      callvalue\n      dup1\n      iszero\n      tag_13\n      jumpi\n      0x00\n      dup1\n      revert\n    tag_13:\n      pop\n      tag_14\n      tag_15\n      jump\t// in\n    tag_14:\n      mload(0x40)\n      tag_16\n      swap2\n      swap1\n      tag_12\n      jump\t// in\n    tag_16:\n      mload(0x40)\n      dup1\n      swap2\n      sub\n      swap1\n      return\n        /* \"contracts/bank.sol\":234:541  function withdraw() external payable{\r... */\n    tag_4:\n      tag_17\n      tag_18\n      jump\t// in\n    tag_17:\n      stop\n        /* \"contracts/bank.sol\":139:226  function deposit() external payable {\r... */\n    tag_5:\n      tag_19\n      tag_20\n      jump\t// in\n    tag_19:\n      stop\n        /* \"contracts/bank.sol\":656:768  function userBalance(address _address) public view returns (uint256) {\r... */\n    tag_10:\n        /* \"contracts/bank.sol\":716:723  uint256 */\n      0x00\n        /* \"contracts/bank.sol\":743:750  balance */\n      dup1\n        /* \"contracts/bank.sol\":743:760  balance[_address] */\n      0x00\n        /* \"contracts/bank.sol\":751:759  _address */\n      dup4\n        /* \"contracts/bank.sol\":743:760  balance[_address] */\n      0xffffffffffffffffffffffffffffffffffffffff\n      and\n      0xffffffffffffffffffffffffffffffffffffffff\n      and\n      dup2\n      mstore\n      0x20\n      add\n      swap1\n      dup2\n      mstore\n      0x20\n      add\n      0x00\n      keccak256\n      sload\n        /* \"contracts/bank.sol\":736:760  return balance[_address] */\n      swap1\n      pop\n        /* \"contracts/bank.sol\":656:768  function userBalance(address _address) public view returns (uint256) {\r... */\n      swap2\n      swap1\n      pop\n      jump\t// out\n        /* \"contracts/bank.sol\":549:648  function bankBalance() public view returns (uint256){\r... */\n    tag_15:\n        /* \"contracts/bank.sol\":593:600  uint256 */\n      0x00\n        /* \"contracts/bank.sol\":619:640  address(this).balance */\n      selfbalance\n        /* \"contracts/bank.sol\":612:640  return address(this).balance */\n      swap1\n      pop\n        /* \"contracts/bank.sol\":549:648  function bankBalance() public view returns (uint256){\r... */\n      swap1\n      jump\t// out\n        /* \"contracts/bank.sol\":234:541  function withdraw() external payable{\r... */\n    tag_18:\n        /* \"contracts/bank.sol\":311:312  0 */\n      0x00\n        /* \"contracts/bank.sol\":289:296  balance */\n      dup1\n        /* \"contracts/bank.sol\":289:308  balance[msg.sender] */\n      0x00\n        /* \"contracts/bank.sol\":297:307  msg.sender */\n      caller\n        /* \"contracts/bank.sol\":289:308  balance[msg.sender] */\n      0xffffffffffffffffffffffffffffffffffffffff\n      and\n      0xffffffffffffffffffffffffffffffffffffffff\n      and\n      dup2\n      mstore\n      0x20\n      add\n      swap1\n      dup2\n      mstore\n      0x20\n      add\n      0x00\n      keccak256\n      sload\n        /* \"contracts/bank.sol\":289:312  balance[msg.sender] > 0 */\n      gt\n        /* \"contracts/bank.sol\":281:349  require(balance[msg.sender] > 0, \"Balance must be larger than zero\") */\n      tag_24\n      jumpi\n      mload(0x40)\n      0x08c379a000000000000000000000000000000000000000000000000000000000\n      dup2\n      mstore\n      0x04\n      add\n      tag_25\n      swap1\n      tag_26\n      jump\t// in\n    tag_25:\n      mload(0x40)\n      dup1\n      swap2\n      sub\n      swap1\n      revert\n    tag_24:\n        /* \"contracts/bank.sol\":362:374  bool success */\n      0x00\n        /* \"contracts/bank.sol\":388:398  msg.sender */\n      caller\n        /* \"contracts/bank.sol\":380:404  payable(msg.sender).call */\n      0xffffffffffffffffffffffffffffffffffffffff\n      and\n        /* \"contracts/bank.sol\":426:433  balance */\n      0x00\n        /* \"contracts/bank.sol\":426:445  balance[msg.sender] */\n      dup1\n        /* \"contracts/bank.sol\":434:444  msg.sender */\n      caller\n        /* \"contracts/bank.sol\":426:445  balance[msg.sender] */\n      0xffffffffffffffffffffffffffffffffffffffff\n      and\n      0xffffffffffffffffffffffffffffffffffffffff\n      and\n      dup2\n      mstore\n      0x20\n      add\n      swap1\n      dup2\n      mstore\n      0x20\n      add\n      0x00\n      keccak256\n      sload\n        /* \"contracts/bank.sol\":380:460  payable(msg.sender).call{\r... */\n      mload(0x40)\n      tag_27\n      swap1\n      tag_28\n      jump\t// in\n    tag_27:\n      0x00\n      mload(0x40)\n      dup1\n      dup4\n      sub\n      dup2\n      dup6\n      dup8\n      gas\n      call\n      swap3\n      pop\n      pop\n      pop\n      returndatasize\n      dup1\n      0x00\n      dup2\n      eq\n      tag_31\n      jumpi\n      mload(0x40)\n      swap2\n      pop\n      and(add(returndatasize, 0x3f), not(0x1f))\n      dup3\n      add\n      0x40\n      mstore\n      returndatasize\n      dup3\n      mstore\n      returndatasize\n      0x00\n      0x20\n      dup5\n      add\n      returndatacopy\n      jump(tag_30)\n    tag_31:\n      0x60\n      swap2\n      pop\n    tag_30:\n      pop\n        /* \"contracts/bank.sol\":361:460  (bool success, ) = payable(msg.sender).call{\r... */\n      pop\n      swap1\n      pop\n        /* \"contracts/bank.sol\":475:482  success */\n      dup1\n        /* \"contracts/bank.sol\":471:534  if (success) {\r... */\n      iszero\n      tag_32\n      jumpi\n        /* \"contracts/bank.sol\":521:522  0 */\n      0x00\n        /* \"contracts/bank.sol\":499:506  balance */\n      dup1\n        /* \"contracts/bank.sol\":499:518  balance[msg.sender] */\n      0x00\n        /* \"contracts/bank.sol\":507:517  msg.sender */\n      caller\n        /* \"contracts/bank.sol\":499:518  balance[msg.sender] */\n      0xffffffffffffffffffffffffffffffffffffffff\n      and\n      0xffffffffffffffffffffffffffffffffffffffff\n      and\n      dup2\n      mstore\n      0x20\n      add\n      swap1\n      dup2\n      mstore\n      0x20\n      add\n      0x00\n      keccak256\n        /* \"contracts/bank.sol\":499:522  balance[msg.sender] = 0 */\n      dup2\n      swap1\n      sstore\n      pop\n        /* \"contracts/bank.sol\":471:534  if (success) {\r... */\n    tag_32:\n        /* \"contracts/bank.sol\":270:541  {\r... */\n      pop\n        /* \"contracts/bank.sol\":234:541  function withdraw() external payable{\r... */\n      jump\t// out\n        /* \"contracts/bank.sol\":139:226  function deposit() external payable {\r... */\n    tag_20:\n        /* \"contracts/bank.sol\":209:218  msg.value */\n      callvalue\n        /* \"contracts/bank.sol\":186:193  balance */\n      0x00\n        /* \"contracts/bank.sol\":186:205  balance[msg.sender] */\n      dup1\n        /* \"contracts/bank.sol\":194:204  msg.sender */\n      caller\n        /* \"contracts/bank.sol\":186:205  balance[msg.sender] */\n      0xffffffffffffffffffffffffffffffffffffffff\n      and\n      0xffffffffffffffffffffffffffffffffffffffff\n      and\n      dup2\n      mstore\n      0x20\n      add\n      swap1\n      dup2\n      mstore\n      0x20\n      add\n      0x00\n      keccak256\n      0x00\n        /* \"contracts/bank.sol\":186:218  balance[msg.sender] += msg.value */\n      dup3\n      dup3\n      sload\n      tag_34\n      swap2\n      swap1\n      tag_35\n      jump\t// in\n    tag_34:\n      swap3\n      pop\n      pop\n      dup2\n      swap1\n      sstore\n      pop\n        /* \"contracts/bank.sol\":139:226  function deposit() external payable {\r... */\n      jump\t// out\n        /* \"#utility.yul\":7:146   */\n    tag_37:\n        /* \"#utility.yul\":53:58   */\n      0x00\n        /* \"#utility.yul\":91:97   */\n      dup2\n        /* \"#utility.yul\":78:98   */\n      calldataload\n        /* \"#utility.yul\":69:98   */\n      swap1\n      pop\n        /* \"#utility.yul\":107:140   */\n      tag_39\n        /* \"#utility.yul\":134:139   */\n      dup2\n        /* \"#utility.yul\":107:140   */\n      tag_40\n      jump\t// in\n    tag_39:\n        /* \"#utility.yul\":7:146   */\n      swap3\n      swap2\n      pop\n      pop\n      jump\t// out\n        /* \"#utility.yul\":152:481   */\n    tag_9:\n        /* \"#utility.yul\":211:217   */\n      0x00\n        /* \"#utility.yul\":260:262   */\n      0x20\n        /* \"#utility.yul\":248:257   */\n      dup3\n        /* \"#utility.yul\":239:246   */\n      dup5\n        /* \"#utility.yul\":235:258   */\n      sub\n        /* \"#utility.yul\":231:263   */\n      slt\n        /* \"#utility.yul\":228:347   */\n      iszero\n      tag_42\n      jumpi\n        /* \"#utility.yul\":266:345   */\n      tag_43\n      tag_44\n      jump\t// in\n    tag_43:\n        /* \"#utility.yul\":228:347   */\n    tag_42:\n        /* \"#utility.yul\":386:387   */\n      0x00\n        /* \"#utility.yul\":411:464   */\n      tag_45\n        /* \"#utility.yul\":456:463   */\n      dup5\n        /* \"#utility.yul\":447:453   */\n      dup3\n        /* \"#utility.yul\":436:445   */\n      dup6\n        /* \"#utility.yul\":432:454   */\n      add\n        /* \"#utility.yul\":411:464   */\n      tag_37\n      jump\t// in\n    tag_45:\n        /* \"#utility.yul\":401:464   */\n      swap2\n      pop\n        /* \"#utility.yul\":357:474   */\n      pop\n        /* \"#utility.yul\":152:481   */\n      swap3\n      swap2\n      pop\n      pop\n      jump\t// out\n        /* \"#utility.yul\":487:853   */\n    tag_46:\n        /* \"#utility.yul\":629:632   */\n      0x00\n        /* \"#utility.yul\":650:717   */\n      tag_48\n        /* \"#utility.yul\":714:716   */\n      0x20\n        /* \"#utility.yul\":709:712   */\n      dup4\n        /* \"#utility.yul\":650:717   */\n      tag_49\n      jump\t// in\n    tag_48:\n        /* \"#utility.yul\":643:717   */\n      swap2\n      pop\n        /* \"#utility.yul\":726:819   */\n      tag_50\n        /* \"#utility.yul\":815:818   */\n      dup3\n        /* \"#utility.yul\":726:819   */\n      tag_51\n      jump\t// in\n    tag_50:\n        /* \"#utility.yul\":844:846   */\n      0x20\n        /* \"#utility.yul\":839:842   */\n      dup3\n        /* \"#utility.yul\":835:847   */\n      add\n        /* \"#utility.yul\":828:847   */\n      swap1\n      pop\n        /* \"#utility.yul\":487:853   */\n      swap2\n      swap1\n      pop\n      jump\t// out\n        /* \"#utility.yul\":859:1257   */\n    tag_52:\n        /* \"#utility.yul\":1018:1021   */\n      0x00\n        /* \"#utility.yul\":1039:1122   */\n      tag_54\n        /* \"#utility.yul\":1120:1121   */\n      0x00\n        /* \"#utility.yul\":1115:1118   */\n      dup4\n        /* \"#utility.yul\":1039:1122   */\n      tag_55\n      jump\t// in\n    tag_54:\n        /* \"#utility.yul\":1032:1122   */\n      swap2\n      pop\n        /* \"#utility.yul\":1131:1224   */\n      tag_56\n        /* \"#utility.yul\":1220:1223   */\n      dup3\n        /* \"#utility.yul\":1131:1224   */\n      tag_57\n      jump\t// in\n    tag_56:\n        /* \"#utility.yul\":1249:1250   */\n      0x00\n        /* \"#utility.yul\":1244:1247   */\n      dup3\n        /* \"#utility.yul\":1240:1251   */\n      add\n        /* \"#utility.yul\":1233:1251   */\n      swap1\n      pop\n        /* \"#utility.yul\":859:1257   */\n      swap2\n      swap1\n      pop\n      jump\t// out\n        /* \"#utility.yul\":1263:1381   */\n    tag_58:\n        /* \"#utility.yul\":1350:1374   */\n      tag_60\n        /* \"#utility.yul\":1368:1373   */\n      dup2\n        /* \"#utility.yul\":1350:1374   */\n      tag_61\n      jump\t// in\n    tag_60:\n        /* \"#utility.yul\":1345:1348   */\n      dup3\n        /* \"#utility.yul\":1338:1375   */\n      mstore\n        /* \"#utility.yul\":1263:1381   */\n      pop\n      pop\n      jump\t// out\n        /* \"#utility.yul\":1387:1766   */\n    tag_28:\n        /* \"#utility.yul\":1571:1574   */\n      0x00\n        /* \"#utility.yul\":1593:1740   */\n      tag_63\n        /* \"#utility.yul\":1736:1739   */\n      dup3\n        /* \"#utility.yul\":1593:1740   */\n      tag_52\n      jump\t// in\n    tag_63:\n        /* \"#utility.yul\":1586:1740   */\n      swap2\n      pop\n        /* \"#utility.yul\":1757:1760   */\n      dup2\n        /* \"#utility.yul\":1750:1760   */\n      swap1\n      pop\n        /* \"#utility.yul\":1387:1766   */\n      swap2\n      swap1\n      pop\n      jump\t// out\n        /* \"#utility.yul\":1772:2191   */\n    tag_26:\n        /* \"#utility.yul\":1938:1942   */\n      0x00\n        /* \"#utility.yul\":1976:1978   */\n      0x20\n        /* \"#utility.yul\":1965:1974   */\n      dup3\n        /* \"#utility.yul\":1961:1979   */\n      add\n        /* \"#utility.yul\":1953:1979   */\n      swap1\n      pop\n        /* \"#utility.yul\":2025:2034   */\n      dup2\n        /* \"#utility.yul\":2019:2023   */\n      dup2\n        /* \"#utility.yul\":2015:2035   */\n      sub\n        /* \"#utility.yul\":2011:2012   */\n      0x00\n        /* \"#utility.yul\":2000:2009   */\n      dup4\n        /* \"#utility.yul\":1996:2013   */\n      add\n        /* \"#utility.yul\":1989:2036   */\n      mstore\n        /* \"#utility.yul\":2053:2184   */\n      tag_65\n        /* \"#utility.yul\":2179:2183   */\n      dup2\n        /* \"#utility.yul\":2053:2184   */\n      tag_46\n      jump\t// in\n    tag_65:\n        /* \"#utility.yul\":2045:2184   */\n      swap1\n      pop\n        /* \"#utility.yul\":1772:2191   */\n      swap2\n      swap1\n      pop\n      jump\t// out\n        /* \"#utility.yul\":2197:2419   */\n    tag_12:\n        /* \"#utility.yul\":2290:2294   */\n      0x00\n        /* \"#utility.yul\":2328:2330   */\n      0x20\n        /* \"#utility.yul\":2317:2326   */\n      dup3\n        /* \"#utility.yul\":2313:2331   */\n      add\n        /* \"#utility.yul\":2305:2331   */\n      swap1\n      pop\n        /* \"#utility.yul\":2341:2412   */\n      tag_67\n        /* \"#utility.yul\":2409:2410   */\n      0x00\n        /* \"#utility.yul\":2398:2407   */\n      dup4\n        /* \"#utility.yul\":2394:2411   */\n      add\n        /* \"#utility.yul\":2385:2391   */\n      dup5\n        /* \"#utility.yul\":2341:2412   */\n      tag_58\n      jump\t// in\n    tag_67:\n        /* \"#utility.yul\":2197:2419   */\n      swap3\n      swap2\n      pop\n      pop\n      jump\t// out\n        /* \"#utility.yul\":2506:2653   */\n    tag_55:\n        /* \"#utility.yul\":2607:2618   */\n      0x00\n        /* \"#utility.yul\":2644:2647   */\n      dup2\n        /* \"#utility.yul\":2629:2647   */\n      swap1\n      pop\n        /* \"#utility.yul\":2506:2653   */\n      swap3\n      swap2\n      pop\n      pop\n      jump\t// out\n        /* \"#utility.yul\":2659:2828   */\n    tag_49:\n        /* \"#utility.yul\":2743:2754   */\n      0x00\n        /* \"#utility.yul\":2777:2783   */\n      dup3\n        /* \"#utility.yul\":2772:2775   */\n      dup3\n        /* \"#utility.yul\":2765:2784   */\n      mstore\n        /* \"#utility.yul\":2817:2821   */\n      0x20\n        /* \"#utility.yul\":2812:2815   */\n      dup3\n        /* \"#utility.yul\":2808:2822   */\n      add\n        /* \"#utility.yul\":2793:2822   */\n      swap1\n      pop\n        /* \"#utility.yul\":2659:2828   */\n      swap3\n      swap2\n      pop\n      pop\n      jump\t// out\n        /* \"#utility.yul\":2834:3139   */\n    tag_35:\n        /* \"#utility.yul\":2874:2877   */\n      0x00\n        /* \"#utility.yul\":2893:2913   */\n      tag_73\n        /* \"#utility.yul\":2911:2912   */\n      dup3\n        /* \"#utility.yul\":2893:2913   */\n      tag_61\n      jump\t// in\n    tag_73:\n        /* \"#utility.yul\":2888:2913   */\n      swap2\n      pop\n        /* \"#utility.yul\":2927:2947   */\n      tag_74\n        /* \"#utility.yul\":2945:2946   */\n      dup4\n        /* \"#utility.yul\":2927:2947   */\n      tag_61\n      jump\t// in\n    tag_74:\n        /* \"#utility.yul\":2922:2947   */\n      swap3\n      pop\n        /* \"#utility.yul\":3081:3082   */\n      dup3\n        /* \"#utility.yul\":3013:3079   */\n      0xffffffffffffffffffffffffffffffffffffffffffffffffffffffffffffffff\n        /* \"#utility.yul\":3009:3083   */\n      sub\n        /* \"#utility.yul\":3006:3007   */\n      dup3\n        /* \"#utility.yul\":3003:3084   */\n      gt\n        /* \"#utility.yul\":3000:3107   */\n      iszero\n      tag_75\n      jumpi\n        /* \"#utility.yul\":3087:3105   */\n      tag_76\n      tag_77\n      jump\t// in\n    tag_76:\n        /* \"#utility.yul\":3000:3107   */\n    tag_75:\n        /* \"#utility.yul\":3131:3132   */\n      dup3\n        /* \"#utility.yul\":3128:3129   */\n      dup3\n        /* \"#utility.yul\":3124:3133   */\n      add\n        /* \"#utility.yul\":3117:3133   */\n      swap1\n      pop\n        /* \"#utility.yul\":2834:3139   */\n      swap3\n      swap2\n      pop\n      pop\n      jump\t// out\n        /* \"#utility.yul\":3145:3241   */\n    tag_78:\n        /* \"#utility.yul\":3182:3189   */\n      0x00\n        /* \"#utility.yul\":3211:3235   */\n      tag_80\n        /* \"#utility.yul\":3229:3234   */\n      dup3\n        /* \"#utility.yul\":3211:3235   */\n      tag_81\n      jump\t// in\n    tag_80:\n        /* \"#utility.yul\":3200:3235   */\n      swap1\n      pop\n        /* \"#utility.yul\":3145:3241   */\n      swap2\n      swap1\n      pop\n      jump\t// out\n        /* \"#utility.yul\":3247:3373   */\n    tag_81:\n        /* \"#utility.yul\":3284:3291   */\n      0x00\n        /* \"#utility.yul\":3324:3366   */\n      0xffffffffffffffffffffffffffffffffffffffff\n        /* \"#utility.yul\":3317:3322   */\n      dup3\n        /* \"#utility.yul\":3313:3367   */\n      and\n        /* \"#utility.yul\":3302:3367   */\n      swap1\n      pop\n        /* \"#utility.yul\":3247:3373   */\n      swap2\n      swap1\n      pop\n      jump\t// out\n        /* \"#utility.yul\":3379:3456   */\n    tag_61:\n        /* \"#utility.yul\":3416:3423   */\n      0x00\n        /* \"#utility.yul\":3445:3450   */\n      dup2\n        /* \"#utility.yul\":3434:3450   */\n      swap1\n      pop\n        /* \"#utility.yul\":3379:3456   */\n      swap2\n      swap1\n      pop\n      jump\t// out\n        /* \"#utility.yul\":3462:3642   */\n    tag_77:\n        /* \"#utility.yul\":3510:3587   */\n      0x4e487b7100000000000000000000000000000000000000000000000000000000\n        /* \"#utility.yul\":3507:3508   */\n      0x00\n        /* \"#utility.yul\":3500:3588   */\n      mstore\n        /* \"#utility.yul\":3607:3611   */\n      0x11\n        /* \"#utility.yul\":3604:3605   */\n      0x04\n        /* \"#utility.yul\":3597:3612   */\n      mstore\n        /* \"#utility.yul\":3631:3635   */\n      0x24\n        /* \"#utility.yul\":3628:3629   */\n      0x00\n        /* \"#utility.yul\":3621:3636   */\n      revert\n        /* \"#utility.yul\":3771:3888   */\n    tag_44:\n        /* \"#utility.yul\":3880:3881   */\n      0x00\n        /* \"#utility.yul\":3877:3878   */\n      dup1\n        /* \"#utility.yul\":3870:3882   */\n      revert\n        /* \"#utility.yul\":3894:4076   */\n    tag_51:\n        /* \"#utility.yul\":4034:4068   */\n      0x42616c616e6365206d757374206265206c6172676572207468616e207a65726f\n        /* \"#utility.yul\":4030:4031   */\n      0x00\n        /* \"#utility.yul\":4022:4028   */\n      dup3\n        /* \"#utility.yul\":4018:4032   */\n      add\n        /* \"#utility.yul\":4011:4069   */\n      mstore\n        /* \"#utility.yul\":3894:4076   */\n      pop\n      jump\t// out\n        /* \"#utility.yul\":4082:4196   */\n    tag_57:\n      pop\n      jump\t// out\n        /* \"#utility.yul\":4202:4324   */\n    tag_40:\n        /* \"#utility.yul\":4275:4299   */\n      tag_91\n        /* \"#utility.yul\":4293:4298   */\n      dup2\n        /* \"#utility.yul\":4275:4299   */\n      tag_78\n      jump\t// in\n    tag_91:\n        /* \"#utility.yul\":4268:4273   */\n      dup2\n        /* \"#utility.yul\":4265:4300   */\n      eq\n        /* \"#utility.yul\":4255:4318   */\n      tag_92\n      jumpi\n        /* \"#utility.yul\":4314:4315   */\n      0x00\n        /* \"#utility.yul\":4311:4312   */\n      dup1\n        /* \"#utility.yul\":4304:4316   */\n      revert\n        /* \"#utility.yul\":4255:4318   */\n    tag_92:\n        /* \"#utility.yul\":4202:4324   */\n      pop\n      jump\t// out\n\n    auxdata: 0xa26469706673582212208516a5a2dc4bccb924ec1a4799577bae661694eb060710067ec30d8745b86e4964736f6c63430008070033\n}\n",
				"bytecode": {
					"linkReferences": {},
					"object": "608060405234801561001057600080fd5b50610522806100206000396000f3fe60806040526004361061003f5760003560e01c80630103c92b1461004457806328657aa5146100815780633ccfd60b146100ac578063d0e30db0146100b6575b600080fd5b34801561005057600080fd5b5061006b600480360381019061006691906102f5565b6100c0565b60405161007891906103ac565b60405180910390f35b34801561008d57600080fd5b50610096610108565b6040516100a391906103ac565b60405180910390f35b6100b4610110565b005b6100be610289565b005b60008060008373ffffffffffffffffffffffffffffffffffffffff1673ffffffffffffffffffffffffffffffffffffffff168152602001908152602001600020549050919050565b600047905090565b60008060003373ffffffffffffffffffffffffffffffffffffffff1673ffffffffffffffffffffffffffffffffffffffff1681526020019081526020016000205411610191576040517f08c379a00000000000000000000000000000000000000000000000000000000081526004016101889061038c565b60405180910390fd5b60003373ffffffffffffffffffffffffffffffffffffffff166000803373ffffffffffffffffffffffffffffffffffffffff1673ffffffffffffffffffffffffffffffffffffffff168152602001908152602001600020546040516101f590610377565b60006040518083038185875af1925050503d8060008114610232576040519150601f19603f3d011682016040523d82523d6000602084013e610237565b606091505b5050905080156102865760008060003373ffffffffffffffffffffffffffffffffffffffff1673ffffffffffffffffffffffffffffffffffffffff168152602001908152602001600020819055505b50565b346000803373ffffffffffffffffffffffffffffffffffffffff1673ffffffffffffffffffffffffffffffffffffffff16815260200190815260200160002060008282546102d791906103e3565b92505081905550565b6000813590506102ef816104d5565b92915050565b60006020828403121561030b5761030a6104a4565b5b6000610319848285016102e0565b91505092915050565b600061032f6020836103d2565b915061033a826104a9565b602082019050919050565b60006103526000836103c7565b915061035d826104d2565b600082019050919050565b6103718161046b565b82525050565b600061038282610345565b9150819050919050565b600060208201905081810360008301526103a581610322565b9050919050565b60006020820190506103c16000830184610368565b92915050565b600081905092915050565b600082825260208201905092915050565b60006103ee8261046b565b91506103f98361046b565b9250827fffffffffffffffffffffffffffffffffffffffffffffffffffffffffffffffff0382111561042e5761042d610475565b5b828201905092915050565b60006104448261044b565b9050919050565b600073ffffffffffffffffffffffffffffffffffffffff82169050919050565b6000819050919050565b7f4e487b7100000000000000000000000000000000000000000000000000000000600052601160045260246000fd5b600080fd5b7f42616c616e6365206d757374206265206c6172676572207468616e207a65726f600082015250565b50565b6104de81610439565b81146104e957600080fd5b5056fea26469706673582212208516a5a2dc4bccb924ec1a4799577bae661694eb060710067ec30d8745b86e4964736f6c63430008070033",
					"opcodes": "PUSH1 0x80 PUSH1 0x40 MSTORE CALLVALUE DUP1 ISZERO PUSH2 0x10 JUMPI PUSH1 0x0 DUP1 REVERT JUMPDEST POP PUSH2 0x522 DUP1 PUSH2 0x20 PUSH1 0x0 CODECOPY PUSH1 0x0 RETURN INVALID PUSH1 0x80 PUSH1 0x40 MSTORE PUSH1 0x4 CALLDATASIZE LT PUSH2 0x3F JUMPI PUSH1 0x0 CALLDATALOAD PUSH1 0xE0 SHR DUP1 PUSH4 0x103C92B EQ PUSH2 0x44 JUMPI DUP1 PUSH4 0x28657AA5 EQ PUSH2 0x81 JUMPI DUP1 PUSH4 0x3CCFD60B EQ PUSH2 0xAC JUMPI DUP1 PUSH4 0xD0E30DB0 EQ PUSH2 0xB6 JUMPI JUMPDEST PUSH1 0x0 DUP1 REVERT JUMPDEST CALLVALUE DUP1 ISZERO PUSH2 0x50 JUMPI PUSH1 0x0 DUP1 REVERT JUMPDEST POP PUSH2 0x6B PUSH1 0x4 DUP1 CALLDATASIZE SUB DUP2 ADD SWAP1 PUSH2 0x66 SWAP2 SWAP1 PUSH2 0x2F5 JUMP JUMPDEST PUSH2 0xC0 JUMP JUMPDEST PUSH1 0x40 MLOAD PUSH2 0x78 SWAP2 SWAP1 PUSH2 0x3AC JUMP JUMPDEST PUSH1 0x40 MLOAD DUP1 SWAP2 SUB SWAP1 RETURN JUMPDEST CALLVALUE DUP1 ISZERO PUSH2 0x8D JUMPI PUSH1 0x0 DUP1 REVERT JUMPDEST POP PUSH2 0x96 PUSH2 0x108 JUMP JUMPDEST PUSH1 0x40 MLOAD PUSH2 0xA3 SWAP2 SWAP1 PUSH2 0x3AC JUMP JUMPDEST PUSH1 0x40 MLOAD DUP1 SWAP2 SUB SWAP1 RETURN JUMPDEST PUSH2 0xB4 PUSH2 0x110 JUMP JUMPDEST STOP JUMPDEST PUSH2 0xBE PUSH2 0x289 JUMP JUMPDEST STOP JUMPDEST PUSH1 0x0 DUP1 PUSH1 0x0 DUP4 PUSH20 0xFFFFFFFFFFFFFFFFFFFFFFFFFFFFFFFFFFFFFFFF AND PUSH20 0xFFFFFFFFFFFFFFFFFFFFFFFFFFFFFFFFFFFFFFFF AND DUP2 MSTORE PUSH1 0x20 ADD SWAP1 DUP2 MSTORE PUSH1 0x20 ADD PUSH1 0x0 KECCAK256 SLOAD SWAP1 POP SWAP2 SWAP1 POP JUMP JUMPDEST PUSH1 0x0 SELFBALANCE SWAP1 POP SWAP1 JUMP JUMPDEST PUSH1 0x0 DUP1 PUSH1 0x0 CALLER PUSH20 0xFFFFFFFFFFFFFFFFFFFFFFFFFFFFFFFFFFFFFFFF AND PUSH20 0xFFFFFFFFFFFFFFFFFFFFFFFFFFFFFFFFFFFFFFFF AND DUP2 MSTORE PUSH1 0x20 ADD SWAP1 DUP2 MSTORE PUSH1 0x20 ADD PUSH1 0x0 KECCAK256 SLOAD GT PUSH2 0x191 JUMPI PUSH1 0x40 MLOAD PUSH32 0x8C379A000000000000000000000000000000000000000000000000000000000 DUP2 MSTORE PUSH1 0x4 ADD PUSH2 0x188 SWAP1 PUSH2 0x38C JUMP JUMPDEST PUSH1 0x40 MLOAD DUP1 SWAP2 SUB SWAP1 REVERT JUMPDEST PUSH1 0x0 CALLER PUSH20 0xFFFFFFFFFFFFFFFFFFFFFFFFFFFFFFFFFFFFFFFF AND PUSH1 0x0 DUP1 CALLER PUSH20 0xFFFFFFFFFFFFFFFFFFFFFFFFFFFFFFFFFFFFFFFF AND PUSH20 0xFFFFFFFFFFFFFFFFFFFFFFFFFFFFFFFFFFFFFFFF AND DUP2 MSTORE PUSH1 0x20 ADD SWAP1 DUP2 MSTORE PUSH1 0x20 ADD PUSH1 0x0 KECCAK256 SLOAD PUSH1 0x40 MLOAD PUSH2 0x1F5 SWAP1 PUSH2 0x377 JUMP JUMPDEST PUSH1 0x0 PUSH1 0x40 MLOAD DUP1 DUP4 SUB DUP2 DUP6 DUP8 GAS CALL SWAP3 POP POP POP RETURNDATASIZE DUP1 PUSH1 0x0 DUP2 EQ PUSH2 0x232 JUMPI PUSH1 0x40 MLOAD SWAP2 POP PUSH1 0x1F NOT PUSH1 0x3F RETURNDATASIZE ADD AND DUP3 ADD PUSH1 0x40 MSTORE RETURNDATASIZE DUP3 MSTORE RETURNDATASIZE PUSH1 0x0 PUSH1 0x20 DUP5 ADD RETURNDATACOPY PUSH2 0x237 JUMP JUMPDEST PUSH1 0x60 SWAP2 POP JUMPDEST POP POP SWAP1 POP DUP1 ISZERO PUSH2 0x286 JUMPI PUSH1 0x0 DUP1 PUSH1 0x0 CALLER PUSH20 0xFFFFFFFFFFFFFFFFFFFFFFFFFFFFFFFFFFFFFFFF AND PUSH20 0xFFFFFFFFFFFFFFFFFFFFFFFFFFFFFFFFFFFFFFFF AND DUP2 MSTORE PUSH1 0x20 ADD SWAP1 DUP2 MSTORE PUSH1 0x20 ADD PUSH1 0x0 KECCAK256 DUP2 SWAP1 SSTORE POP JUMPDEST POP JUMP JUMPDEST CALLVALUE PUSH1 0x0 DUP1 CALLER PUSH20 0xFFFFFFFFFFFFFFFFFFFFFFFFFFFFFFFFFFFFFFFF AND PUSH20 0xFFFFFFFFFFFFFFFFFFFFFFFFFFFFFFFFFFFFFFFF AND DUP2 MSTORE PUSH1 0x20 ADD SWAP1 DUP2 MSTORE PUSH1 0x20 ADD PUSH1 0x0 KECCAK256 PUSH1 0x0 DUP3 DUP3 SLOAD PUSH2 0x2D7 SWAP2 SWAP1 PUSH2 0x3E3 JUMP JUMPDEST SWAP3 POP POP DUP2 SWAP1 SSTORE POP JUMP JUMPDEST PUSH1 0x0 DUP2 CALLDATALOAD SWAP1 POP PUSH2 0x2EF DUP2 PUSH2 0x4D5 JUMP JUMPDEST SWAP3 SWAP2 POP POP JUMP JUMPDEST PUSH1 0x0 PUSH1 0x20 DUP3 DUP5 SUB SLT ISZERO PUSH2 0x30B JUMPI PUSH2 0x30A PUSH2 0x4A4 JUMP JUMPDEST JUMPDEST PUSH1 0x0 PUSH2 0x319 DUP5 DUP3 DUP6 ADD PUSH2 0x2E0 JUMP JUMPDEST SWAP2 POP POP SWAP3 SWAP2 POP POP JUMP JUMPDEST PUSH1 0x0 PUSH2 0x32F PUSH1 0x20 DUP4 PUSH2 0x3D2 JUMP JUMPDEST SWAP2 POP PUSH2 0x33A DUP3 PUSH2 0x4A9 JUMP JUMPDEST PUSH1 0x20 DUP3 ADD SWAP1 POP SWAP2 SWAP1 POP JUMP JUMPDEST PUSH1 0x0 PUSH2 0x352 PUSH1 0x0 DUP4 PUSH2 0x3C7 JUMP JUMPDEST SWAP2 POP PUSH2 0x35D DUP3 PUSH2 0x4D2 JUMP JUMPDEST PUSH1 0x0 DUP3 ADD SWAP1 POP SWAP2 SWAP1 POP JUMP JUMPDEST PUSH2 0x371 DUP2 PUSH2 0x46B JUMP JUMPDEST DUP3 MSTORE POP POP JUMP JUMPDEST PUSH1 0x0 PUSH2 0x382 DUP3 PUSH2 0x345 JUMP JUMPDEST SWAP2 POP DUP2 SWAP1 POP SWAP2 SWAP1 POP JUMP JUMPDEST PUSH1 0x0 PUSH1 0x20 DUP3 ADD SWAP1 POP DUP2 DUP2 SUB PUSH1 0x0 DUP4 ADD MSTORE PUSH2 0x3A5 DUP2 PUSH2 0x322 JUMP JUMPDEST SWAP1 POP SWAP2 SWAP1 POP JUMP JUMPDEST PUSH1 0x0 PUSH1 0x20 DUP3 ADD SWAP1 POP PUSH2 0x3C1 PUSH1 0x0 DUP4 ADD DUP5 PUSH2 0x368 JUMP JUMPDEST SWAP3 SWAP2 POP POP JUMP JUMPDEST PUSH1 0x0 DUP2 SWAP1 POP SWAP3 SWAP2 POP POP JUMP JUMPDEST PUSH1 0x0 DUP3 DUP3 MSTORE PUSH1 0x20 DUP3 ADD SWAP1 POP SWAP3 SWAP2 POP POP JUMP JUMPDEST PUSH1 0x0 PUSH2 0x3EE DUP3 PUSH2 0x46B JUMP JUMPDEST SWAP2 POP PUSH2 0x3F9 DUP4 PUSH2 0x46B JUMP JUMPDEST SWAP3 POP DUP3 PUSH32 0xFFFFFFFFFFFFFFFFFFFFFFFFFFFFFFFFFFFFFFFFFFFFFFFFFFFFFFFFFFFFFFFF SUB DUP3 GT ISZERO PUSH2 0x42E JUMPI PUSH2 0x42D PUSH2 0x475 JUMP JUMPDEST JUMPDEST DUP3 DUP3 ADD SWAP1 POP SWAP3 SWAP2 POP POP JUMP JUMPDEST PUSH1 0x0 PUSH2 0x444 DUP3 PUSH2 0x44B JUMP JUMPDEST SWAP1 POP SWAP2 SWAP1 POP JUMP JUMPDEST PUSH1 0x0 PUSH20 0xFFFFFFFFFFFFFFFFFFFFFFFFFFFFFFFFFFFFFFFF DUP3 AND SWAP1 POP SWAP2 SWAP1 POP JUMP JUMPDEST PUSH1 0x0 DUP2 SWAP1 POP SWAP2 SWAP1 POP JUMP JUMPDEST PUSH32 0x4E487B7100000000000000000000000000000000000000000000000000000000 PUSH1 0x0 MSTORE PUSH1 0x11 PUSH1 0x4 MSTORE PUSH1 0x24 PUSH1 0x0 REVERT JUMPDEST PUSH1 0x0 DUP1 REVERT JUMPDEST PUSH32 0x42616C616E6365206D757374206265206C6172676572207468616E207A65726F PUSH1 0x0 DUP3 ADD MSTORE POP JUMP JUMPDEST POP JUMP JUMPDEST PUSH2 0x4DE DUP2 PUSH2 0x439 JUMP JUMPDEST DUP2 EQ PUSH2 0x4E9 JUMPI PUSH1 0x0 DUP1 REVERT JUMPDEST POP JUMP INVALID LOG2 PUSH5 0x6970667358 0x22 SLT KECCAK256 DUP6 AND 0xA5 LOG2 0xDC 0x4B 0xCC 0xB9 0x24 0xEC BYTE SELFBALANCE SWAP10 JUMPI PUSH28 0xAE661694EB060710067EC30D8745B86E4964736F6C63430008070033 "
				},
				"gasEstimates": {
					"creation": {
						"codeDepositCost": "262800",
						"executionCost": "306",
						"totalCost": "263106"
					},
					"external": {
						"bankBalance()": "339",
						"deposit()": "infinite",
						"userBalance(address)": "2819",
						"withdraw()": "infinite"
					}
				},
				"methodIdentifiers": {
					"bankBalance()": "28657aa5",
					"deposit()": "d0e30db0",
					"userBalance(address)": "0103c92b",
					"withdraw()": "3ccfd60b"
				}
			},
			"userdoc": {
				"kind": "user",
				"methods": {},
				"version": 1
			}
		}
	}
}