{
	"contracts/tokens.sol": {
		"Tokens": {
			"abi": [
				{
					"inputs": [
						{
							"internalType": "address payable",
							"name": "_wallet",
							"type": "address"
						}
					],
					"stateMutability": "nonpayable",
					"type": "constructor"
				},
				{
					"inputs": [],
					"name": "buyToken",
					"outputs": [],
					"stateMutability": "payable",
					"type": "function"
				}
			],
			"devdoc": {
				"kind": "dev",
				"methods": {},
				"version": 1
			},
			"evm": {
				"assembly": "    /* \"contracts/tokens.sol\":63:450  contract Tokens {\r... */\n  mstore(0x40, 0x80)\n    /* \"contracts/tokens.sol\":209:281  constructor(address payable _wallet) {\r... */\n  callvalue\n  dup1\n  iszero\n  tag_1\n  jumpi\n  0x00\n  dup1\n  revert\ntag_1:\n  pop\n  mload(0x40)\n  sub(codesize, bytecodeSize)\n  dup1\n  bytecodeSize\n  dup4\n  codecopy\n  dup2\n  dup2\n  add\n  0x40\n  mstore\n  dup2\n  add\n  swap1\n  tag_2\n  swap2\n  swap1\n  tag_3\n  jump\t// in\ntag_2:\n    /* \"contracts/tokens.sol\":266:273  _wallet */\n  dup1\n    /* \"contracts/tokens.sol\":257:263  wallet */\n  0x01\n  0x00\n    /* \"contracts/tokens.sol\":257:273  wallet = _wallet */\n  0x0100\n  exp\n  dup2\n  sload\n  dup2\n  0xffffffffffffffffffffffffffffffffffffffff\n  mul\n  not\n  and\n  swap1\n  dup4\n  0xffffffffffffffffffffffffffffffffffffffff\n  and\n  mul\n  or\n  swap1\n  sstore\n  pop\n    /* \"contracts/tokens.sol\":209:281  constructor(address payable _wallet) {\r... */\n  pop\n    /* \"contracts/tokens.sol\":63:450  contract Tokens {\r... */\n  jump(tag_6)\n    /* \"#utility.yul\":7:166   */\ntag_8:\n    /* \"#utility.yul\":72:77   */\n  0x00\n    /* \"#utility.yul\":103:109   */\n  dup2\n    /* \"#utility.yul\":97:110   */\n  mload\n    /* \"#utility.yul\":88:110   */\n  swap1\n  pop\n    /* \"#utility.yul\":119:160   */\n  tag_10\n    /* \"#utility.yul\":154:159   */\n  dup2\n    /* \"#utility.yul\":119:160   */\n  tag_11\n  jump\t// in\ntag_10:\n    /* \"#utility.yul\":7:166   */\n  swap3\n  swap2\n  pop\n  pop\n  jump\t// out\n    /* \"#utility.yul\":172:539   */\ntag_3:\n    /* \"#utility.yul\":250:256   */\n  0x00\n    /* \"#utility.yul\":299:301   */\n  0x20\n    /* \"#utility.yul\":287:296   */\n  dup3\n    /* \"#utility.yul\":278:285   */\n  dup5\n    /* \"#utility.yul\":274:297   */\n  sub\n    /* \"#utility.yul\":270:302   */\n  slt\n    /* \"#utility.yul\":267:386   */\n  iszero\n  tag_13\n  jumpi\n    /* \"#utility.yul\":305:384   */\n  tag_14\n  tag_15\n  jump\t// in\ntag_14:\n    /* \"#utility.yul\":267:386   */\ntag_13:\n    /* \"#utility.yul\":425:426   */\n  0x00\n    /* \"#utility.yul\":450:522   */\n  tag_16\n    /* \"#utility.yul\":514:521   */\n  dup5\n    /* \"#utility.yul\":505:511   */\n  dup3\n    /* \"#utility.yul\":494:503   */\n  dup6\n    /* \"#utility.yul\":490:512   */\n  add\n    /* \"#utility.yul\":450:522   */\n  tag_8\n  jump\t// in\ntag_16:\n    /* \"#utility.yul\":440:522   */\n  swap2\n  pop\n    /* \"#utility.yul\":396:532   */\n  pop\n    /* \"#utility.yul\":172:539   */\n  swap3\n  swap2\n  pop\n  pop\n  jump\t// out\n    /* \"#utility.yul\":626:730   */\ntag_19:\n    /* \"#utility.yul\":671:678   */\n  0x00\n    /* \"#utility.yul\":700:724   */\n  tag_21\n    /* \"#utility.yul\":718:723   */\n  dup3\n    /* \"#utility.yul\":700:724   */\n  tag_22\n  jump\t// in\ntag_21:\n    /* \"#utility.yul\":689:724   */\n  swap1\n  pop\n    /* \"#utility.yul\":626:730   */\n  swap2\n  swap1\n  pop\n  jump\t// out\n    /* \"#utility.yul\":736:862   */\ntag_22:\n    /* \"#utility.yul\":773:780   */\n  0x00\n    /* \"#utility.yul\":813:855   */\n  0xffffffffffffffffffffffffffffffffffffffff\n    /* \"#utility.yul\":806:811   */\n  dup3\n    /* \"#utility.yul\":802:856   */\n  and\n    /* \"#utility.yul\":791:856   */\n  swap1\n  pop\n    /* \"#utility.yul\":736:862   */\n  swap2\n  swap1\n  pop\n  jump\t// out\n    /* \"#utility.yul\":991:1108   */\ntag_15:\n    /* \"#utility.yul\":1100:1101   */\n  0x00\n    /* \"#utility.yul\":1097:1098   */\n  dup1\n    /* \"#utility.yul\":1090:1102   */\n  revert\n    /* \"#utility.yul\":1114:1252   */\ntag_11:\n    /* \"#utility.yul\":1195:1227   */\n  tag_28\n    /* \"#utility.yul\":1221:1226   */\n  dup2\n    /* \"#utility.yul\":1195:1227   */\n  tag_19\n  jump\t// in\ntag_28:\n    /* \"#utility.yul\":1188:1193   */\n  dup2\n    /* \"#utility.yul\":1185:1228   */\n  eq\n    /* \"#utility.yul\":1175:1246   */\n  tag_29\n  jumpi\n    /* \"#utility.yul\":1242:1243   */\n  0x00\n    /* \"#utility.yul\":1239:1240   */\n  dup1\n    /* \"#utility.yul\":1232:1244   */\n  revert\n    /* \"#utility.yul\":1175:1246   */\ntag_29:\n    /* \"#utility.yul\":1114:1252   */\n  pop\n  jump\t// out\n    /* \"contracts/tokens.sol\":63:450  contract Tokens {\r... */\ntag_6:\n  dataSize(sub_0)\n  dup1\n  dataOffset(sub_0)\n  0x00\n  codecopy\n  0x00\n  return\nstop\n\nsub_0: assembly {\n        /* \"contracts/tokens.sol\":63:450  contract Tokens {\r... */\n      mstore(0x40, 0x80)\n      jumpi(tag_1, lt(calldatasize, 0x04))\n      shr(0xe0, calldataload(0x00))\n      dup1\n      0xa4821719\n      eq\n      tag_2\n      jumpi\n    tag_1:\n      0x00\n      dup1\n      revert\n        /* \"contracts/tokens.sol\":289:447  function buyToken() public payable {\r... */\n    tag_2:\n      tag_3\n      tag_4\n      jump\t// in\n    tag_3:\n      stop\n    tag_4:\n        /* \"contracts/tokens.sol\":335:343  balances */\n      0x00\n        /* \"contracts/tokens.sol\":335:355  balances[msg.sender] */\n      dup1\n        /* \"contracts/tokens.sol\":344:354  msg.sender */\n      caller\n        /* \"contracts/tokens.sol\":335:355  balances[msg.sender] */\n      0xffffffffffffffffffffffffffffffffffffffff\n      and\n      0xffffffffffffffffffffffffffffffffffffffff\n      and\n      dup2\n      mstore\n      0x20\n      add\n      swap1\n      dup2\n      mstore\n      0x20\n      add\n      0x00\n      keccak256\n        /* \"contracts/tokens.sol\":375:391  Token(msg.value) */\n      mload(0x40)\n      dup1\n      0x20\n      add\n      0x40\n      mstore\n      dup1\n        /* \"contracts/tokens.sol\":381:390  msg.value */\n      callvalue\n        /* \"contracts/tokens.sol\":375:391  Token(msg.value) */\n      dup2\n      mstore\n      pop\n        /* \"contracts/tokens.sol\":335:402  balances[msg.sender].push(\r... */\n      swap1\n      dup1\n      0x01\n      dup2\n      sload\n      add\n      dup1\n      dup3\n      sstore\n      dup1\n      swap2\n      pop\n      pop\n      0x01\n      swap1\n      sub\n      swap1\n      0x00\n      mstore\n      keccak256(0x00, 0x20)\n      add\n      0x00\n      swap1\n      swap2\n      swap1\n      swap2\n      swap1\n      swap2\n      pop\n      0x00\n      dup3\n      add\n      mload\n      dup2\n      0x00\n      add\n      sstore\n      pop\n      pop\n        /* \"contracts/tokens.sol\":413:419  wallet */\n      0x01\n      0x00\n      swap1\n      sload\n      swap1\n      0x0100\n      exp\n      swap1\n      div\n      0xffffffffffffffffffffffffffffffffffffffff\n      and\n        /* \"contracts/tokens.sol\":413:428  wallet.transfer */\n      0xffffffffffffffffffffffffffffffffffffffff\n      and\n        /* \"contracts/tokens.sol\":413:439  wallet.transfer(msg.value) */\n      0x08fc\n        /* \"contracts/tokens.sol\":429:438  msg.value */\n      callvalue\n        /* \"contracts/tokens.sol\":413:439  wallet.transfer(msg.value) */\n      swap1\n      dup2\n      iszero\n      mul\n      swap1\n      mload(0x40)\n      0x00\n      mload(0x40)\n      dup1\n      dup4\n      sub\n      dup2\n      dup6\n      dup9\n      dup9\n      call\n      swap4\n      pop\n      pop\n      pop\n      pop\n      iszero\n      dup1\n      iszero\n      tag_8\n      jumpi\n      returndatasize\n      0x00\n      dup1\n      returndatacopy\n      revert(0x00, returndatasize)\n    tag_8:\n      pop\n        /* \"contracts/tokens.sol\":289:447  function buyToken() public payable {\r... */\n      jump\t// out\n\n    auxdata: 0xa2646970667358221220768aef82772cf316ae0a3d538bb690f381d6c905e9764d0db04ba2e87f9b3ffd64736f6c63430008070033\n}\n",
				"bytecode": {
					"linkReferences": {},
					"object": "608060405234801561001057600080fd5b506040516102643803806102648339818101604052810190610032919061008e565b80600160006101000a81548173ffffffffffffffffffffffffffffffffffffffff021916908373ffffffffffffffffffffffffffffffffffffffff16021790555050610109565b600081519050610088816100f2565b92915050565b6000602082840312156100a4576100a36100ed565b5b60006100b284828501610079565b91505092915050565b60006100c6826100cd565b9050919050565b600073ffffffffffffffffffffffffffffffffffffffff82169050919050565b600080fd5b6100fb816100bb565b811461010657600080fd5b50565b61014c806101186000396000f3fe60806040526004361061001e5760003560e01c8063a482171914610023575b600080fd5b61002b61002d565b005b6000803373ffffffffffffffffffffffffffffffffffffffff1673ffffffffffffffffffffffffffffffffffffffff16815260200190815260200160002060405180602001604052803481525090806001815401808255809150506001900390600052602060002001600090919091909150600082015181600001555050600160009054906101000a900473ffffffffffffffffffffffffffffffffffffffff1673ffffffffffffffffffffffffffffffffffffffff166108fc349081150290604051600060405180830381858888f19350505050158015610113573d6000803e3d6000fd5b5056fea2646970667358221220768aef82772cf316ae0a3d538bb690f381d6c905e9764d0db04ba2e87f9b3ffd64736f6c63430008070033",
					"opcodes": "PUSH1 0x80 PUSH1 0x40 MSTORE CALLVALUE DUP1 ISZERO PUSH2 0x10 JUMPI PUSH1 0x0 DUP1 REVERT JUMPDEST POP PUSH1 0x40 MLOAD PUSH2 0x264 CODESIZE SUB DUP1 PUSH2 0x264 DUP4 CODECOPY DUP2 DUP2 ADD PUSH1 0x40 MSTORE DUP2 ADD SWAP1 PUSH2 0x32 SWAP2 SWAP1 PUSH2 0x8E JUMP JUMPDEST DUP1 PUSH1 0x1 PUSH1 0x0 PUSH2 0x100 EXP DUP2 SLOAD DUP2 PUSH20 0xFFFFFFFFFFFFFFFFFFFFFFFFFFFFFFFFFFFFFFFF MUL NOT AND SWAP1 DUP4 PUSH20 0xFFFFFFFFFFFFFFFFFFFFFFFFFFFFFFFFFFFFFFFF AND MUL OR SWAP1 SSTORE POP POP PUSH2 0x109 JUMP JUMPDEST PUSH1 0x0 DUP2 MLOAD SWAP1 POP PUSH2 0x88 DUP2 PUSH2 0xF2 JUMP JUMPDEST SWAP3 SWAP2 POP POP JUMP JUMPDEST PUSH1 0x0 PUSH1 0x20 DUP3 DUP5 SUB SLT ISZERO PUSH2 0xA4 JUMPI PUSH2 0xA3 PUSH2 0xED JUMP JUMPDEST JUMPDEST PUSH1 0x0 PUSH2 0xB2 DUP5 DUP3 DUP6 ADD PUSH2 0x79 JUMP JUMPDEST SWAP2 POP POP SWAP3 SWAP2 POP POP JUMP JUMPDEST PUSH1 0x0 PUSH2 0xC6 DUP3 PUSH2 0xCD JUMP JUMPDEST SWAP1 POP SWAP2 SWAP1 POP JUMP JUMPDEST PUSH1 0x0 PUSH20 0xFFFFFFFFFFFFFFFFFFFFFFFFFFFFFFFFFFFFFFFF DUP3 AND SWAP1 POP SWAP2 SWAP1 POP JUMP JUMPDEST PUSH1 0x0 DUP1 REVERT JUMPDEST PUSH2 0xFB DUP2 PUSH2 0xBB JUMP JUMPDEST DUP2 EQ PUSH2 0x106 JUMPI PUSH1 0x0 DUP1 REVERT JUMPDEST POP JUMP JUMPDEST PUSH2 0x14C DUP1 PUSH2 0x118 PUSH1 0x0 CODECOPY PUSH1 0x0 RETURN INVALID PUSH1 0x80 PUSH1 0x40 MSTORE PUSH1 0x4 CALLDATASIZE LT PUSH2 0x1E JUMPI PUSH1 0x0 CALLDATALOAD PUSH1 0xE0 SHR DUP1 PUSH4 0xA4821719 EQ PUSH2 0x23 JUMPI JUMPDEST PUSH1 0x0 DUP1 REVERT JUMPDEST PUSH2 0x2B PUSH2 0x2D JUMP JUMPDEST STOP JUMPDEST PUSH1 0x0 DUP1 CALLER PUSH20 0xFFFFFFFFFFFFFFFFFFFFFFFFFFFFFFFFFFFFFFFF AND PUSH20 0xFFFFFFFFFFFFFFFFFFFFFFFFFFFFFFFFFFFFFFFF AND DUP2 MSTORE PUSH1 0x20 ADD SWAP1 DUP2 MSTORE PUSH1 0x20 ADD PUSH1 0x0 KECCAK256 PUSH1 0x40 MLOAD DUP1 PUSH1 0x20 ADD PUSH1 0x40 MSTORE DUP1 CALLVALUE DUP2 MSTORE POP SWAP1 DUP1 PUSH1 0x1 DUP2 SLOAD ADD DUP1 DUP3 SSTORE DUP1 SWAP2 POP POP PUSH1 0x1 SWAP1 SUB SWAP1 PUSH1 0x0 MSTORE PUSH1 0x20 PUSH1 0x0 KECCAK256 ADD PUSH1 0x0 SWAP1 SWAP2 SWAP1 SWAP2 SWAP1 SWAP2 POP PUSH1 0x0 DUP3 ADD MLOAD DUP2 PUSH1 0x0 ADD SSTORE POP POP PUSH1 0x1 PUSH1 0x0 SWAP1 SLOAD SWAP1 PUSH2 0x100 EXP SWAP1 DIV PUSH20 0xFFFFFFFFFFFFFFFFFFFFFFFFFFFFFFFFFFFFFFFF AND PUSH20 0xFFFFFFFFFFFFFFFFFFFFFFFFFFFFFFFFFFFFFFFF AND PUSH2 0x8FC CALLVALUE SWAP1 DUP2 ISZERO MUL SWAP1 PUSH1 0x40 MLOAD PUSH1 0x0 PUSH1 0x40 MLOAD DUP1 DUP4 SUB DUP2 DUP6 DUP9 DUP9 CALL SWAP4 POP POP POP POP ISZERO DUP1 ISZERO PUSH2 0x113 JUMPI RETURNDATASIZE PUSH1 0x0 DUP1 RETURNDATACOPY RETURNDATASIZE PUSH1 0x0 REVERT JUMPDEST POP JUMP INVALID LOG2 PUSH5 0x6970667358 0x22 SLT KECCAK256 PUSH23 0x8AEF82772CF316AE0A3D538BB690F381D6C905E9764D0D 0xB0 0x4B LOG2 0xE8 PUSH32 0x9B3FFD64736F6C63430008070033000000000000000000000000000000000000 "
				},
				"gasEstimates": {
					"creation": {
						"codeDepositCost": "66400",
						"executionCost": "infinite",
						"totalCost": "infinite"
					},
					"external": {
						"buyToken()": "infinite"
					}
				},
				"methodIdentifiers": {
					"buyToken()": "a4821719"
				}
			},
			"userdoc": {
				"kind": "user",
				"methods": {},
				"version": 1
			}
		}
	}
}