{
	"contracts/tokens.sol": {
		"Tokens": {
			"abi": [
				{
					"inputs": [
						{
							"internalType": "address payable",
							"name": "_wallet",
							"type": "address"
						}
					],
					"stateMutability": "nonpayable",
					"type": "constructor"
				},
				{
					"anonymous": false,
					"inputs": [
						{
							"indexed": false,
							"internalType": "address",
							"name": "_buyer",
							"type": "address"
						},
						{
							"indexed": false,
							"internalType": "uint256",
							"name": "_amount",
							"type": "uint256"
						}
					],
					"name": "Purchase",
					"type": "event"
				},
				{
					"inputs": [],
					"name": "buyToken",
					"outputs": [],
					"stateMutability": "payable",
					"type": "function"
				},
				{
					"inputs": [],
					"name": "getTokens",
					"outputs": [
						{
							"components": [
								{
									"internalType": "uint256",
									"name": "cost",
									"type": "uint256"
								}
							],
							"internalType": "struct Tokens.Token[]",
							"name": "",
							"type": "tuple[]"
						}
					],
					"stateMutability": "view",
					"type": "function"
				}
			],
			"devdoc": {
				"kind": "dev",
				"methods": {},
				"version": 1
			},
			"evm": {
				"assembly": "    /* \"contracts/tokens.sol\":63:688  contract Tokens {\r... */\n  mstore(0x40, 0x80)\n    /* \"contracts/tokens.sol\":290:362  constructor(address payable _wallet) {\r... */\n  callvalue\n  dup1\n  iszero\n  tag_1\n  jumpi\n  0x00\n  dup1\n  revert\ntag_1:\n  pop\n  mload(0x40)\n  sub(codesize, bytecodeSize)\n  dup1\n  bytecodeSize\n  dup4\n  codecopy\n  dup2\n  dup2\n  add\n  0x40\n  mstore\n  dup2\n  add\n  swap1\n  tag_2\n  swap2\n  swap1\n  tag_3\n  jump\t// in\ntag_2:\n    /* \"contracts/tokens.sol\":347:354  _wallet */\n  dup1\n    /* \"contracts/tokens.sol\":338:344  wallet */\n  0x01\n  0x00\n    /* \"contracts/tokens.sol\":338:354  wallet = _wallet */\n  0x0100\n  exp\n  dup2\n  sload\n  dup2\n  0xffffffffffffffffffffffffffffffffffffffff\n  mul\n  not\n  and\n  swap1\n  dup4\n  0xffffffffffffffffffffffffffffffffffffffff\n  and\n  mul\n  or\n  swap1\n  sstore\n  pop\n    /* \"contracts/tokens.sol\":290:362  constructor(address payable _wallet) {\r... */\n  pop\n    /* \"contracts/tokens.sol\":63:688  contract Tokens {\r... */\n  jump(tag_6)\n    /* \"#utility.yul\":7:166   */\ntag_8:\n    /* \"#utility.yul\":72:77   */\n  0x00\n    /* \"#utility.yul\":103:109   */\n  dup2\n    /* \"#utility.yul\":97:110   */\n  mload\n    /* \"#utility.yul\":88:110   */\n  swap1\n  pop\n    /* \"#utility.yul\":119:160   */\n  tag_10\n    /* \"#utility.yul\":154:159   */\n  dup2\n    /* \"#utility.yul\":119:160   */\n  tag_11\n  jump\t// in\ntag_10:\n    /* \"#utility.yul\":7:166   */\n  swap3\n  swap2\n  pop\n  pop\n  jump\t// out\n    /* \"#utility.yul\":172:539   */\ntag_3:\n    /* \"#utility.yul\":250:256   */\n  0x00\n    /* \"#utility.yul\":299:301   */\n  0x20\n    /* \"#utility.yul\":287:296   */\n  dup3\n    /* \"#utility.yul\":278:285   */\n  dup5\n    /* \"#utility.yul\":274:297   */\n  sub\n    /* \"#utility.yul\":270:302   */\n  slt\n    /* \"#utility.yul\":267:386   */\n  iszero\n  tag_13\n  jumpi\n    /* \"#utility.yul\":305:384   */\n  tag_14\n  tag_15\n  jump\t// in\ntag_14:\n    /* \"#utility.yul\":267:386   */\ntag_13:\n    /* \"#utility.yul\":425:426   */\n  0x00\n    /* \"#utility.yul\":450:522   */\n  tag_16\n    /* \"#utility.yul\":514:521   */\n  dup5\n    /* \"#utility.yul\":505:511   */\n  dup3\n    /* \"#utility.yul\":494:503   */\n  dup6\n    /* \"#utility.yul\":490:512   */\n  add\n    /* \"#utility.yul\":450:522   */\n  tag_8\n  jump\t// in\ntag_16:\n    /* \"#utility.yul\":440:522   */\n  swap2\n  pop\n    /* \"#utility.yul\":396:532   */\n  pop\n    /* \"#utility.yul\":172:539   */\n  swap3\n  swap2\n  pop\n  pop\n  jump\t// out\n    /* \"#utility.yul\":626:730   */\ntag_19:\n    /* \"#utility.yul\":671:678   */\n  0x00\n    /* \"#utility.yul\":700:724   */\n  tag_21\n    /* \"#utility.yul\":718:723   */\n  dup3\n    /* \"#utility.yul\":700:724   */\n  tag_22\n  jump\t// in\ntag_21:\n    /* \"#utility.yul\":689:724   */\n  swap1\n  pop\n    /* \"#utility.yul\":626:730   */\n  swap2\n  swap1\n  pop\n  jump\t// out\n    /* \"#utility.yul\":736:862   */\ntag_22:\n    /* \"#utility.yul\":773:780   */\n  0x00\n    /* \"#utility.yul\":813:855   */\n  0xffffffffffffffffffffffffffffffffffffffff\n    /* \"#utility.yul\":806:811   */\n  dup3\n    /* \"#utility.yul\":802:856   */\n  and\n    /* \"#utility.yul\":791:856   */\n  swap1\n  pop\n    /* \"#utility.yul\":736:862   */\n  swap2\n  swap1\n  pop\n  jump\t// out\n    /* \"#utility.yul\":991:1108   */\ntag_15:\n    /* \"#utility.yul\":1100:1101   */\n  0x00\n    /* \"#utility.yul\":1097:1098   */\n  dup1\n    /* \"#utility.yul\":1090:1102   */\n  revert\n    /* \"#utility.yul\":1114:1252   */\ntag_11:\n    /* \"#utility.yul\":1195:1227   */\n  tag_28\n    /* \"#utility.yul\":1221:1226   */\n  dup2\n    /* \"#utility.yul\":1195:1227   */\n  tag_19\n  jump\t// in\ntag_28:\n    /* \"#utility.yul\":1188:1193   */\n  dup2\n    /* \"#utility.yul\":1185:1228   */\n  eq\n    /* \"#utility.yul\":1175:1246   */\n  tag_29\n  jumpi\n    /* \"#utility.yul\":1242:1243   */\n  0x00\n    /* \"#utility.yul\":1239:1240   */\n  dup1\n    /* \"#utility.yul\":1232:1244   */\n  revert\n    /* \"#utility.yul\":1175:1246   */\ntag_29:\n    /* \"#utility.yul\":1114:1252   */\n  pop\n  jump\t// out\n    /* \"contracts/tokens.sol\":63:688  contract Tokens {\r... */\ntag_6:\n  dataSize(sub_0)\n  dup1\n  dataOffset(sub_0)\n  0x00\n  codecopy\n  0x00\n  return\nstop\n\nsub_0: assembly {\n        /* \"contracts/tokens.sol\":63:688  contract Tokens {\r... */\n      mstore(0x40, 0x80)\n      jumpi(tag_1, lt(calldatasize, 0x04))\n      shr(0xe0, calldataload(0x00))\n      dup1\n      0xa4821719\n      eq\n      tag_2\n      jumpi\n      dup1\n      0xaa6ca808\n      eq\n      tag_3\n      jumpi\n    tag_1:\n      0x00\n      dup1\n      revert\n        /* \"contracts/tokens.sol\":370:575  function buyToken() public payable {\r... */\n    tag_2:\n      tag_4\n      tag_5\n      jump\t// in\n    tag_4:\n      stop\n        /* \"contracts/tokens.sol\":583:685  function getTokens() public view returns(Token[] memory){\r... */\n    tag_3:\n      callvalue\n      dup1\n      iszero\n      tag_6\n      jumpi\n      0x00\n      dup1\n      revert\n    tag_6:\n      pop\n      tag_7\n      tag_8\n      jump\t// in\n    tag_7:\n      mload(0x40)\n      tag_9\n      swap2\n      swap1\n      tag_10\n      jump\t// in\n    tag_9:\n      mload(0x40)\n      dup1\n      swap2\n      sub\n      swap1\n      return\n        /* \"contracts/tokens.sol\":370:575  function buyToken() public payable {\r... */\n    tag_5:\n        /* \"contracts/tokens.sol\":416:424  balances */\n      0x00\n        /* \"contracts/tokens.sol\":416:436  balances[msg.sender] */\n      dup1\n        /* \"contracts/tokens.sol\":425:435  msg.sender */\n      caller\n        /* \"contracts/tokens.sol\":416:436  balances[msg.sender] */\n      0xffffffffffffffffffffffffffffffffffffffff\n      and\n      0xffffffffffffffffffffffffffffffffffffffff\n      and\n      dup2\n      mstore\n      0x20\n      add\n      swap1\n      dup2\n      mstore\n      0x20\n      add\n      0x00\n      keccak256\n        /* \"contracts/tokens.sol\":456:472  Token(msg.value) */\n      mload(0x40)\n      dup1\n      0x20\n      add\n      0x40\n      mstore\n      dup1\n        /* \"contracts/tokens.sol\":462:471  msg.value */\n      callvalue\n        /* \"contracts/tokens.sol\":456:472  Token(msg.value) */\n      dup2\n      mstore\n      pop\n        /* \"contracts/tokens.sol\":416:483  balances[msg.sender].push(\r... */\n      swap1\n      dup1\n      0x01\n      dup2\n      sload\n      add\n      dup1\n      dup3\n      sstore\n      dup1\n      swap2\n      pop\n      pop\n      0x01\n      swap1\n      sub\n      swap1\n      0x00\n      mstore\n      keccak256(0x00, 0x20)\n      add\n      0x00\n      swap1\n      swap2\n      swap1\n      swap2\n      swap1\n      swap2\n      pop\n      0x00\n      dup3\n      add\n      mload\n      dup2\n      0x00\n      add\n      sstore\n      pop\n      pop\n        /* \"contracts/tokens.sol\":494:500  wallet */\n      0x01\n      0x00\n      swap1\n      sload\n      swap1\n      0x0100\n      exp\n      swap1\n      div\n      0xffffffffffffffffffffffffffffffffffffffff\n      and\n        /* \"contracts/tokens.sol\":494:509  wallet.transfer */\n      0xffffffffffffffffffffffffffffffffffffffff\n      and\n        /* \"contracts/tokens.sol\":494:520  wallet.transfer(msg.value) */\n      0x08fc\n        /* \"contracts/tokens.sol\":510:519  msg.value */\n      callvalue\n        /* \"contracts/tokens.sol\":494:520  wallet.transfer(msg.value) */\n      swap1\n      dup2\n      iszero\n      mul\n      swap1\n      mload(0x40)\n      0x00\n      mload(0x40)\n      dup1\n      dup4\n      sub\n      dup2\n      dup6\n      dup9\n      dup9\n      call\n      swap4\n      pop\n      pop\n      pop\n      pop\n      iszero\n      dup1\n      iszero\n      tag_14\n      jumpi\n      returndatasize\n      0x00\n      dup1\n      returndatacopy\n      revert(0x00, returndatasize)\n    tag_14:\n      pop\n        /* \"contracts/tokens.sol\":536:567  Purchase(msg.sender, msg.value) */\n      0x2499a5330ab0979cc612135e7883ebc3cd5c9f7a8508f042540c34723348f632\n        /* \"contracts/tokens.sol\":545:555  msg.sender */\n      caller\n        /* \"contracts/tokens.sol\":557:566  msg.value */\n      callvalue\n        /* \"contracts/tokens.sol\":536:567  Purchase(msg.sender, msg.value) */\n      mload(0x40)\n      tag_15\n      swap3\n      swap2\n      swap1\n      tag_16\n      jump\t// in\n    tag_15:\n      mload(0x40)\n      dup1\n      swap2\n      sub\n      swap1\n      log1\n        /* \"contracts/tokens.sol\":370:575  function buyToken() public payable {\r... */\n      jump\t// out\n        /* \"contracts/tokens.sol\":583:685  function getTokens() public view returns(Token[] memory){\r... */\n    tag_8:\n        /* \"contracts/tokens.sol\":624:638  Token[] memory */\n      0x60\n        /* \"contracts/tokens.sol\":657:665  balances */\n      0x00\n        /* \"contracts/tokens.sol\":657:677  balances[msg.sender] */\n      dup1\n        /* \"contracts/tokens.sol\":666:676  msg.sender */\n      caller\n        /* \"contracts/tokens.sol\":657:677  balances[msg.sender] */\n      0xffffffffffffffffffffffffffffffffffffffff\n      and\n      0xffffffffffffffffffffffffffffffffffffffff\n      and\n      dup2\n      mstore\n      0x20\n      add\n      swap1\n      dup2\n      mstore\n      0x20\n      add\n      0x00\n      keccak256\n        /* \"contracts/tokens.sol\":650:677  return balances[msg.sender] */\n      dup1\n      sload\n      dup1\n      0x20\n      mul\n      0x20\n      add\n      mload(0x40)\n      swap1\n      dup2\n      add\n      0x40\n      mstore\n      dup1\n      swap3\n      swap2\n      swap1\n      dup2\n      dup2\n      mstore\n      0x20\n      add\n      0x00\n      swap1\n    tag_18:\n      dup3\n      dup3\n      lt\n      iszero\n      tag_19\n      jumpi\n      dup4\n      dup3\n      swap1\n      0x00\n      mstore\n      keccak256(0x00, 0x20)\n      add\n      mload(0x40)\n      dup1\n      0x20\n      add\n      0x40\n      mstore\n      swap1\n      dup2\n      0x00\n      dup3\n      add\n      sload\n      dup2\n      mstore\n      pop\n      pop\n      dup2\n      mstore\n      0x20\n      add\n      swap1\n      0x01\n      add\n      swap1\n      jump(tag_18)\n    tag_19:\n      pop\n      pop\n      pop\n      pop\n      swap1\n      pop\n        /* \"contracts/tokens.sol\":583:685  function getTokens() public view returns(Token[] memory){\r... */\n      swap1\n      jump\t// out\n        /* \"#utility.yul\":7:266   */\n    tag_22:\n        /* \"#utility.yul\":116:126   */\n      0x00\n        /* \"#utility.yul\":137:223   */\n      tag_24\n        /* \"#utility.yul\":219:222   */\n      dup4\n        /* \"#utility.yul\":211:217   */\n      dup4\n        /* \"#utility.yul\":137:223   */\n      tag_25\n      jump\t// in\n    tag_24:\n        /* \"#utility.yul\":255:259   */\n      0x20\n        /* \"#utility.yul\":250:253   */\n      dup4\n        /* \"#utility.yul\":246:260   */\n      add\n        /* \"#utility.yul\":232:260   */\n      swap1\n      pop\n        /* \"#utility.yul\":7:266   */\n      swap3\n      swap2\n      pop\n      pop\n      jump\t// out\n        /* \"#utility.yul\":272:390   */\n    tag_26:\n        /* \"#utility.yul\":359:383   */\n      tag_28\n        /* \"#utility.yul\":377:382   */\n      dup2\n        /* \"#utility.yul\":359:383   */\n      tag_29\n      jump\t// in\n    tag_28:\n        /* \"#utility.yul\":354:357   */\n      dup3\n        /* \"#utility.yul\":347:384   */\n      mstore\n        /* \"#utility.yul\":272:390   */\n      pop\n      pop\n      jump\t// out\n        /* \"#utility.yul\":450:1342   */\n    tag_30:\n        /* \"#utility.yul\":609:612   */\n      0x00\n        /* \"#utility.yul\":638:712   */\n      tag_32\n        /* \"#utility.yul\":706:711   */\n      dup3\n        /* \"#utility.yul\":638:712   */\n      tag_33\n      jump\t// in\n    tag_32:\n        /* \"#utility.yul\":728:834   */\n      tag_34\n        /* \"#utility.yul\":827:833   */\n      dup2\n        /* \"#utility.yul\":822:825   */\n      dup6\n        /* \"#utility.yul\":728:834   */\n      tag_35\n      jump\t// in\n    tag_34:\n        /* \"#utility.yul\":721:834   */\n      swap4\n      pop\n        /* \"#utility.yul\":858:934   */\n      tag_36\n        /* \"#utility.yul\":928:933   */\n      dup4\n        /* \"#utility.yul\":858:934   */\n      tag_37\n      jump\t// in\n    tag_36:\n        /* \"#utility.yul\":957:964   */\n      dup1\n        /* \"#utility.yul\":988:989   */\n      0x00\n        /* \"#utility.yul\":973:1317   */\n    tag_38:\n        /* \"#utility.yul\":998:1004   */\n      dup4\n        /* \"#utility.yul\":995:996   */\n      dup2\n        /* \"#utility.yul\":992:1005   */\n      lt\n        /* \"#utility.yul\":973:1317   */\n      iszero\n      tag_40\n      jumpi\n        /* \"#utility.yul\":1074:1080   */\n      dup2\n        /* \"#utility.yul\":1068:1081   */\n      mload\n        /* \"#utility.yul\":1101:1204   */\n      tag_41\n        /* \"#utility.yul\":1200:1203   */\n      dup9\n        /* \"#utility.yul\":1185:1198   */\n      dup3\n        /* \"#utility.yul\":1101:1204   */\n      tag_22\n      jump\t// in\n    tag_41:\n        /* \"#utility.yul\":1094:1204   */\n      swap8\n      pop\n        /* \"#utility.yul\":1227:1307   */\n      tag_42\n        /* \"#utility.yul\":1300:1306   */\n      dup4\n        /* \"#utility.yul\":1227:1307   */\n      tag_43\n      jump\t// in\n    tag_42:\n        /* \"#utility.yul\":1217:1307   */\n      swap3\n      pop\n        /* \"#utility.yul\":1033:1317   */\n      pop\n        /* \"#utility.yul\":1020:1021   */\n      0x01\n        /* \"#utility.yul\":1017:1018   */\n      dup2\n        /* \"#utility.yul\":1013:1022   */\n      add\n        /* \"#utility.yul\":1008:1022   */\n      swap1\n      pop\n        /* \"#utility.yul\":973:1317   */\n      jump(tag_38)\n    tag_40:\n        /* \"#utility.yul\":977:991   */\n      pop\n        /* \"#utility.yul\":1333:1336   */\n      dup6\n        /* \"#utility.yul\":1326:1336   */\n      swap4\n      pop\n        /* \"#utility.yul\":614:1342   */\n      pop\n      pop\n      pop\n        /* \"#utility.yul\":450:1342   */\n      swap3\n      swap2\n      pop\n      pop\n      jump\t// out\n        /* \"#utility.yul\":1398:1711   */\n    tag_25:\n        /* \"#utility.yul\":1525:1529   */\n      0x20\n        /* \"#utility.yul\":1520:1523   */\n      dup3\n        /* \"#utility.yul\":1516:1530   */\n      add\n        /* \"#utility.yul\":1612:1616   */\n      0x00\n        /* \"#utility.yul\":1605:1610   */\n      dup3\n        /* \"#utility.yul\":1601:1617   */\n      add\n        /* \"#utility.yul\":1595:1618   */\n      mload\n        /* \"#utility.yul\":1631:1694   */\n      tag_45\n        /* \"#utility.yul\":1688:1692   */\n      0x00\n        /* \"#utility.yul\":1683:1686   */\n      dup6\n        /* \"#utility.yul\":1679:1693   */\n      add\n        /* \"#utility.yul\":1665:1677   */\n      dup3\n        /* \"#utility.yul\":1631:1694   */\n      tag_46\n      jump\t// in\n    tag_45:\n        /* \"#utility.yul\":1540:1704   */\n      pop\n        /* \"#utility.yul\":1494:1711   */\n      pop\n        /* \"#utility.yul\":1398:1711   */\n      pop\n      pop\n      jump\t// out\n        /* \"#utility.yul\":1717:1825   */\n    tag_46:\n        /* \"#utility.yul\":1794:1818   */\n      tag_48\n        /* \"#utility.yul\":1812:1817   */\n      dup2\n        /* \"#utility.yul\":1794:1818   */\n      tag_49\n      jump\t// in\n    tag_48:\n        /* \"#utility.yul\":1789:1792   */\n      dup3\n        /* \"#utility.yul\":1782:1819   */\n      mstore\n        /* \"#utility.yul\":1717:1825   */\n      pop\n      pop\n      jump\t// out\n        /* \"#utility.yul\":1831:1949   */\n    tag_50:\n        /* \"#utility.yul\":1918:1942   */\n      tag_52\n        /* \"#utility.yul\":1936:1941   */\n      dup2\n        /* \"#utility.yul\":1918:1942   */\n      tag_49\n      jump\t// in\n    tag_52:\n        /* \"#utility.yul\":1913:1916   */\n      dup3\n        /* \"#utility.yul\":1906:1943   */\n      mstore\n        /* \"#utility.yul\":1831:1949   */\n      pop\n      pop\n      jump\t// out\n        /* \"#utility.yul\":1955:2287   */\n    tag_16:\n        /* \"#utility.yul\":2076:2080   */\n      0x00\n        /* \"#utility.yul\":2114:2116   */\n      0x40\n        /* \"#utility.yul\":2103:2112   */\n      dup3\n        /* \"#utility.yul\":2099:2117   */\n      add\n        /* \"#utility.yul\":2091:2117   */\n      swap1\n      pop\n        /* \"#utility.yul\":2127:2198   */\n      tag_54\n        /* \"#utility.yul\":2195:2196   */\n      0x00\n        /* \"#utility.yul\":2184:2193   */\n      dup4\n        /* \"#utility.yul\":2180:2197   */\n      add\n        /* \"#utility.yul\":2171:2177   */\n      dup6\n        /* \"#utility.yul\":2127:2198   */\n      tag_26\n      jump\t// in\n    tag_54:\n        /* \"#utility.yul\":2208:2280   */\n      tag_55\n        /* \"#utility.yul\":2276:2278   */\n      0x20\n        /* \"#utility.yul\":2265:2274   */\n      dup4\n        /* \"#utility.yul\":2261:2279   */\n      add\n        /* \"#utility.yul\":2252:2258   */\n      dup5\n        /* \"#utility.yul\":2208:2280   */\n      tag_50\n      jump\t// in\n    tag_55:\n        /* \"#utility.yul\":1955:2287   */\n      swap4\n      swap3\n      pop\n      pop\n      pop\n      jump\t// out\n        /* \"#utility.yul\":2293:2746   */\n    tag_10:\n        /* \"#utility.yul\":2476:2480   */\n      0x00\n        /* \"#utility.yul\":2514:2516   */\n      0x20\n        /* \"#utility.yul\":2503:2512   */\n      dup3\n        /* \"#utility.yul\":2499:2517   */\n      add\n        /* \"#utility.yul\":2491:2517   */\n      swap1\n      pop\n        /* \"#utility.yul\":2563:2572   */\n      dup2\n        /* \"#utility.yul\":2557:2561   */\n      dup2\n        /* \"#utility.yul\":2553:2573   */\n      sub\n        /* \"#utility.yul\":2549:2550   */\n      0x00\n        /* \"#utility.yul\":2538:2547   */\n      dup4\n        /* \"#utility.yul\":2534:2551   */\n      add\n        /* \"#utility.yul\":2527:2574   */\n      mstore\n        /* \"#utility.yul\":2591:2739   */\n      tag_57\n        /* \"#utility.yul\":2734:2738   */\n      dup2\n        /* \"#utility.yul\":2725:2731   */\n      dup5\n        /* \"#utility.yul\":2591:2739   */\n      tag_30\n      jump\t// in\n    tag_57:\n        /* \"#utility.yul\":2583:2739   */\n      swap1\n      pop\n        /* \"#utility.yul\":2293:2746   */\n      swap3\n      swap2\n      pop\n      pop\n      jump\t// out\n        /* \"#utility.yul\":2752:2904   */\n    tag_37:\n        /* \"#utility.yul\":2839:2843   */\n      0x00\n        /* \"#utility.yul\":2862:2865   */\n      dup2\n        /* \"#utility.yul\":2854:2865   */\n      swap1\n      pop\n        /* \"#utility.yul\":2892:2896   */\n      0x20\n        /* \"#utility.yul\":2887:2890   */\n      dup3\n        /* \"#utility.yul\":2883:2897   */\n      add\n        /* \"#utility.yul\":2875:2897   */\n      swap1\n      pop\n        /* \"#utility.yul\":2752:2904   */\n      swap2\n      swap1\n      pop\n      jump\t// out\n        /* \"#utility.yul\":2910:3044   */\n    tag_33:\n        /* \"#utility.yul\":2997:3003   */\n      0x00\n        /* \"#utility.yul\":3031:3036   */\n      dup2\n        /* \"#utility.yul\":3025:3037   */\n      mload\n        /* \"#utility.yul\":3015:3037   */\n      swap1\n      pop\n        /* \"#utility.yul\":2910:3044   */\n      swap2\n      swap1\n      pop\n      jump\t// out\n        /* \"#utility.yul\":3050:3183   */\n    tag_43:\n        /* \"#utility.yul\":3140:3144   */\n      0x00\n        /* \"#utility.yul\":3172:3176   */\n      0x20\n        /* \"#utility.yul\":3167:3170   */\n      dup3\n        /* \"#utility.yul\":3163:3177   */\n      add\n        /* \"#utility.yul\":3155:3177   */\n      swap1\n      pop\n        /* \"#utility.yul\":3050:3183   */\n      swap2\n      swap1\n      pop\n      jump\t// out\n        /* \"#utility.yul\":3189:3393   */\n    tag_35:\n        /* \"#utility.yul\":3308:3319   */\n      0x00\n        /* \"#utility.yul\":3342:3348   */\n      dup3\n        /* \"#utility.yul\":3337:3340   */\n      dup3\n        /* \"#utility.yul\":3330:3349   */\n      mstore\n        /* \"#utility.yul\":3382:3386   */\n      0x20\n        /* \"#utility.yul\":3377:3380   */\n      dup3\n        /* \"#utility.yul\":3373:3387   */\n      add\n        /* \"#utility.yul\":3358:3387   */\n      swap1\n      pop\n        /* \"#utility.yul\":3189:3393   */\n      swap3\n      swap2\n      pop\n      pop\n      jump\t// out\n        /* \"#utility.yul\":3399:3495   */\n    tag_29:\n        /* \"#utility.yul\":3436:3443   */\n      0x00\n        /* \"#utility.yul\":3465:3489   */\n      tag_63\n        /* \"#utility.yul\":3483:3488   */\n      dup3\n        /* \"#utility.yul\":3465:3489   */\n      tag_64\n      jump\t// in\n    tag_63:\n        /* \"#utility.yul\":3454:3489   */\n      swap1\n      pop\n        /* \"#utility.yul\":3399:3495   */\n      swap2\n      swap1\n      pop\n      jump\t// out\n        /* \"#utility.yul\":3501:3627   */\n    tag_64:\n        /* \"#utility.yul\":3538:3545   */\n      0x00\n        /* \"#utility.yul\":3578:3620   */\n      0xffffffffffffffffffffffffffffffffffffffff\n        /* \"#utility.yul\":3571:3576   */\n      dup3\n        /* \"#utility.yul\":3567:3621   */\n      and\n        /* \"#utility.yul\":3556:3621   */\n      swap1\n      pop\n        /* \"#utility.yul\":3501:3627   */\n      swap2\n      swap1\n      pop\n      jump\t// out\n        /* \"#utility.yul\":3633:3710   */\n    tag_49:\n        /* \"#utility.yul\":3670:3677   */\n      0x00\n        /* \"#utility.yul\":3699:3704   */\n      dup2\n        /* \"#utility.yul\":3688:3704   */\n      swap1\n      pop\n        /* \"#utility.yul\":3633:3710   */\n      swap2\n      swap1\n      pop\n      jump\t// out\n\n    auxdata: 0xa2646970667358221220b116cb07d386b015ff21d3d0e98a9aeddfac751b9230eb0e7c8bbf46edf0a88664736f6c63430008070033\n}\n",
				"bytecode": {
					"linkReferences": {},
					"object": "608060405234801561001057600080fd5b506040516104f33803806104f38339818101604052810190610032919061008e565b80600160006101000a81548173ffffffffffffffffffffffffffffffffffffffff021916908373ffffffffffffffffffffffffffffffffffffffff16021790555050610109565b600081519050610088816100f2565b92915050565b6000602082840312156100a4576100a36100ed565b5b60006100b284828501610079565b91505092915050565b60006100c6826100cd565b9050919050565b600073ffffffffffffffffffffffffffffffffffffffff82169050919050565b600080fd5b6100fb816100bb565b811461010657600080fd5b50565b6103db806101186000396000f3fe6080604052600436106100295760003560e01c8063a48217191461002e578063aa6ca80814610038575b600080fd5b610036610063565b005b34801561004457600080fd5b5061004d610185565b60405161005a919061030e565b60405180910390f35b6000803373ffffffffffffffffffffffffffffffffffffffff1673ffffffffffffffffffffffffffffffffffffffff16815260200190815260200160002060405180602001604052803481525090806001815401808255809150506001900390600052602060002001600090919091909150600082015181600001555050600160009054906101000a900473ffffffffffffffffffffffffffffffffffffffff1673ffffffffffffffffffffffffffffffffffffffff166108fc349081150290604051600060405180830381858888f19350505050158015610149573d6000803e3d6000fd5b507f2499a5330ab0979cc612135e7883ebc3cd5c9f7a8508f042540c34723348f632333460405161017b9291906102e5565b60405180910390a1565b60606000803373ffffffffffffffffffffffffffffffffffffffff1673ffffffffffffffffffffffffffffffffffffffff168152602001908152602001600020805480602002602001604051908101604052809291908181526020016000905b8282101561021d57838290600052602060002001604051806020016040529081600082015481525050815260200190600101906101e5565b50505050905090565b600061023283836102ab565b60208301905092915050565b61024781610369565b82525050565b600061025882610340565b6102628185610358565b935061026d83610330565b8060005b8381101561029e5781516102858882610226565b97506102908361034b565b925050600181019050610271565b5085935050505092915050565b6020820160008201516102c160008501826102c7565b50505050565b6102d08161039b565b82525050565b6102df8161039b565b82525050565b60006040820190506102fa600083018561023e565b61030760208301846102d6565b9392505050565b60006020820190508181036000830152610328818461024d565b905092915050565b6000819050602082019050919050565b600081519050919050565b6000602082019050919050565b600082825260208201905092915050565b60006103748261037b565b9050919050565b600073ffffffffffffffffffffffffffffffffffffffff82169050919050565b600081905091905056fea2646970667358221220b116cb07d386b015ff21d3d0e98a9aeddfac751b9230eb0e7c8bbf46edf0a88664736f6c63430008070033",
					"opcodes": "PUSH1 0x80 PUSH1 0x40 MSTORE CALLVALUE DUP1 ISZERO PUSH2 0x10 JUMPI PUSH1 0x0 DUP1 REVERT JUMPDEST POP PUSH1 0x40 MLOAD PUSH2 0x4F3 CODESIZE SUB DUP1 PUSH2 0x4F3 DUP4 CODECOPY DUP2 DUP2 ADD PUSH1 0x40 MSTORE DUP2 ADD SWAP1 PUSH2 0x32 SWAP2 SWAP1 PUSH2 0x8E JUMP JUMPDEST DUP1 PUSH1 0x1 PUSH1 0x0 PUSH2 0x100 EXP DUP2 SLOAD DUP2 PUSH20 0xFFFFFFFFFFFFFFFFFFFFFFFFFFFFFFFFFFFFFFFF MUL NOT AND SWAP1 DUP4 PUSH20 0xFFFFFFFFFFFFFFFFFFFFFFFFFFFFFFFFFFFFFFFF AND MUL OR SWAP1 SSTORE POP POP PUSH2 0x109 JUMP JUMPDEST PUSH1 0x0 DUP2 MLOAD SWAP1 POP PUSH2 0x88 DUP2 PUSH2 0xF2 JUMP JUMPDEST SWAP3 SWAP2 POP POP JUMP JUMPDEST PUSH1 0x0 PUSH1 0x20 DUP3 DUP5 SUB SLT ISZERO PUSH2 0xA4 JUMPI PUSH2 0xA3 PUSH2 0xED JUMP JUMPDEST JUMPDEST PUSH1 0x0 PUSH2 0xB2 DUP5 DUP3 DUP6 ADD PUSH2 0x79 JUMP JUMPDEST SWAP2 POP POP SWAP3 SWAP2 POP POP JUMP JUMPDEST PUSH1 0x0 PUSH2 0xC6 DUP3 PUSH2 0xCD JUMP JUMPDEST SWAP1 POP SWAP2 SWAP1 POP JUMP JUMPDEST PUSH1 0x0 PUSH20 0xFFFFFFFFFFFFFFFFFFFFFFFFFFFFFFFFFFFFFFFF DUP3 AND SWAP1 POP SWAP2 SWAP1 POP JUMP JUMPDEST PUSH1 0x0 DUP1 REVERT JUMPDEST PUSH2 0xFB DUP2 PUSH2 0xBB JUMP JUMPDEST DUP2 EQ PUSH2 0x106 JUMPI PUSH1 0x0 DUP1 REVERT JUMPDEST POP JUMP JUMPDEST PUSH2 0x3DB DUP1 PUSH2 0x118 PUSH1 0x0 CODECOPY PUSH1 0x0 RETURN INVALID PUSH1 0x80 PUSH1 0x40 MSTORE PUSH1 0x4 CALLDATASIZE LT PUSH2 0x29 JUMPI PUSH1 0x0 CALLDATALOAD PUSH1 0xE0 SHR DUP1 PUSH4 0xA4821719 EQ PUSH2 0x2E JUMPI DUP1 PUSH4 0xAA6CA808 EQ PUSH2 0x38 JUMPI JUMPDEST PUSH1 0x0 DUP1 REVERT JUMPDEST PUSH2 0x36 PUSH2 0x63 JUMP JUMPDEST STOP JUMPDEST CALLVALUE DUP1 ISZERO PUSH2 0x44 JUMPI PUSH1 0x0 DUP1 REVERT JUMPDEST POP PUSH2 0x4D PUSH2 0x185 JUMP JUMPDEST PUSH1 0x40 MLOAD PUSH2 0x5A SWAP2 SWAP1 PUSH2 0x30E JUMP JUMPDEST PUSH1 0x40 MLOAD DUP1 SWAP2 SUB SWAP1 RETURN JUMPDEST PUSH1 0x0 DUP1 CALLER PUSH20 0xFFFFFFFFFFFFFFFFFFFFFFFFFFFFFFFFFFFFFFFF AND PUSH20 0xFFFFFFFFFFFFFFFFFFFFFFFFFFFFFFFFFFFFFFFF AND DUP2 MSTORE PUSH1 0x20 ADD SWAP1 DUP2 MSTORE PUSH1 0x20 ADD PUSH1 0x0 KECCAK256 PUSH1 0x40 MLOAD DUP1 PUSH1 0x20 ADD PUSH1 0x40 MSTORE DUP1 CALLVALUE DUP2 MSTORE POP SWAP1 DUP1 PUSH1 0x1 DUP2 SLOAD ADD DUP1 DUP3 SSTORE DUP1 SWAP2 POP POP PUSH1 0x1 SWAP1 SUB SWAP1 PUSH1 0x0 MSTORE PUSH1 0x20 PUSH1 0x0 KECCAK256 ADD PUSH1 0x0 SWAP1 SWAP2 SWAP1 SWAP2 SWAP1 SWAP2 POP PUSH1 0x0 DUP3 ADD MLOAD DUP2 PUSH1 0x0 ADD SSTORE POP POP PUSH1 0x1 PUSH1 0x0 SWAP1 SLOAD SWAP1 PUSH2 0x100 EXP SWAP1 DIV PUSH20 0xFFFFFFFFFFFFFFFFFFFFFFFFFFFFFFFFFFFFFFFF AND PUSH20 0xFFFFFFFFFFFFFFFFFFFFFFFFFFFFFFFFFFFFFFFF AND PUSH2 0x8FC CALLVALUE SWAP1 DUP2 ISZERO MUL SWAP1 PUSH1 0x40 MLOAD PUSH1 0x0 PUSH1 0x40 MLOAD DUP1 DUP4 SUB DUP2 DUP6 DUP9 DUP9 CALL SWAP4 POP POP POP POP ISZERO DUP1 ISZERO PUSH2 0x149 JUMPI RETURNDATASIZE PUSH1 0x0 DUP1 RETURNDATACOPY RETURNDATASIZE PUSH1 0x0 REVERT JUMPDEST POP PUSH32 0x2499A5330AB0979CC612135E7883EBC3CD5C9F7A8508F042540C34723348F632 CALLER CALLVALUE PUSH1 0x40 MLOAD PUSH2 0x17B SWAP3 SWAP2 SWAP1 PUSH2 0x2E5 JUMP JUMPDEST PUSH1 0x40 MLOAD DUP1 SWAP2 SUB SWAP1 LOG1 JUMP JUMPDEST PUSH1 0x60 PUSH1 0x0 DUP1 CALLER PUSH20 0xFFFFFFFFFFFFFFFFFFFFFFFFFFFFFFFFFFFFFFFF AND PUSH20 0xFFFFFFFFFFFFFFFFFFFFFFFFFFFFFFFFFFFFFFFF AND DUP2 MSTORE PUSH1 0x20 ADD SWAP1 DUP2 MSTORE PUSH1 0x20 ADD PUSH1 0x0 KECCAK256 DUP1 SLOAD DUP1 PUSH1 0x20 MUL PUSH1 0x20 ADD PUSH1 0x40 MLOAD SWAP1 DUP2 ADD PUSH1 0x40 MSTORE DUP1 SWAP3 SWAP2 SWAP1 DUP2 DUP2 MSTORE PUSH1 0x20 ADD PUSH1 0x0 SWAP1 JUMPDEST DUP3 DUP3 LT ISZERO PUSH2 0x21D JUMPI DUP4 DUP3 SWAP1 PUSH1 0x0 MSTORE PUSH1 0x20 PUSH1 0x0 KECCAK256 ADD PUSH1 0x40 MLOAD DUP1 PUSH1 0x20 ADD PUSH1 0x40 MSTORE SWAP1 DUP2 PUSH1 0x0 DUP3 ADD SLOAD DUP2 MSTORE POP POP DUP2 MSTORE PUSH1 0x20 ADD SWAP1 PUSH1 0x1 ADD SWAP1 PUSH2 0x1E5 JUMP JUMPDEST POP POP POP POP SWAP1 POP SWAP1 JUMP JUMPDEST PUSH1 0x0 PUSH2 0x232 DUP4 DUP4 PUSH2 0x2AB JUMP JUMPDEST PUSH1 0x20 DUP4 ADD SWAP1 POP SWAP3 SWAP2 POP POP JUMP JUMPDEST PUSH2 0x247 DUP2 PUSH2 0x369 JUMP JUMPDEST DUP3 MSTORE POP POP JUMP JUMPDEST PUSH1 0x0 PUSH2 0x258 DUP3 PUSH2 0x340 JUMP JUMPDEST PUSH2 0x262 DUP2 DUP6 PUSH2 0x358 JUMP JUMPDEST SWAP4 POP PUSH2 0x26D DUP4 PUSH2 0x330 JUMP JUMPDEST DUP1 PUSH1 0x0 JUMPDEST DUP4 DUP2 LT ISZERO PUSH2 0x29E JUMPI DUP2 MLOAD PUSH2 0x285 DUP9 DUP3 PUSH2 0x226 JUMP JUMPDEST SWAP8 POP PUSH2 0x290 DUP4 PUSH2 0x34B JUMP JUMPDEST SWAP3 POP POP PUSH1 0x1 DUP2 ADD SWAP1 POP PUSH2 0x271 JUMP JUMPDEST POP DUP6 SWAP4 POP POP POP POP SWAP3 SWAP2 POP POP JUMP JUMPDEST PUSH1 0x20 DUP3 ADD PUSH1 0x0 DUP3 ADD MLOAD PUSH2 0x2C1 PUSH1 0x0 DUP6 ADD DUP3 PUSH2 0x2C7 JUMP JUMPDEST POP POP POP POP JUMP JUMPDEST PUSH2 0x2D0 DUP2 PUSH2 0x39B JUMP JUMPDEST DUP3 MSTORE POP POP JUMP JUMPDEST PUSH2 0x2DF DUP2 PUSH2 0x39B JUMP JUMPDEST DUP3 MSTORE POP POP JUMP JUMPDEST PUSH1 0x0 PUSH1 0x40 DUP3 ADD SWAP1 POP PUSH2 0x2FA PUSH1 0x0 DUP4 ADD DUP6 PUSH2 0x23E JUMP JUMPDEST PUSH2 0x307 PUSH1 0x20 DUP4 ADD DUP5 PUSH2 0x2D6 JUMP JUMPDEST SWAP4 SWAP3 POP POP POP JUMP JUMPDEST PUSH1 0x0 PUSH1 0x20 DUP3 ADD SWAP1 POP DUP2 DUP2 SUB PUSH1 0x0 DUP4 ADD MSTORE PUSH2 0x328 DUP2 DUP5 PUSH2 0x24D JUMP JUMPDEST SWAP1 POP SWAP3 SWAP2 POP POP JUMP JUMPDEST PUSH1 0x0 DUP2 SWAP1 POP PUSH1 0x20 DUP3 ADD SWAP1 POP SWAP2 SWAP1 POP JUMP JUMPDEST PUSH1 0x0 DUP2 MLOAD SWAP1 POP SWAP2 SWAP1 POP JUMP JUMPDEST PUSH1 0x0 PUSH1 0x20 DUP3 ADD SWAP1 POP SWAP2 SWAP1 POP JUMP JUMPDEST PUSH1 0x0 DUP3 DUP3 MSTORE PUSH1 0x20 DUP3 ADD SWAP1 POP SWAP3 SWAP2 POP POP JUMP JUMPDEST PUSH1 0x0 PUSH2 0x374 DUP3 PUSH2 0x37B JUMP JUMPDEST SWAP1 POP SWAP2 SWAP1 POP JUMP JUMPDEST PUSH1 0x0 PUSH20 0xFFFFFFFFFFFFFFFFFFFFFFFFFFFFFFFFFFFFFFFF DUP3 AND SWAP1 POP SWAP2 SWAP1 POP JUMP JUMPDEST PUSH1 0x0 DUP2 SWAP1 POP SWAP2 SWAP1 POP JUMP INVALID LOG2 PUSH5 0x6970667358 0x22 SLT KECCAK256 0xB1 AND 0xCB SMOD 0xD3 DUP7 0xB0 ISZERO SELFDESTRUCT 0x21 0xD3 0xD0 0xE9 DUP11 SWAP11 0xED 0xDF 0xAC PUSH22 0x1B9230EB0E7C8BBF46EDF0A88664736F6C6343000807 STOP CALLER "
				},
				"gasEstimates": {
					"creation": {
						"codeDepositCost": "197400",
						"executionCost": "infinite",
						"totalCost": "infinite"
					},
					"external": {
						"buyToken()": "infinite",
						"getTokens()": "infinite"
					}
				},
				"methodIdentifiers": {
					"buyToken()": "a4821719",
					"getTokens()": "aa6ca808"
				}
			},
			"userdoc": {
				"kind": "user",
				"methods": {},
				"version": 1
			}
		}
	}
}