{
	"data": {
		"bytecode": {
			"linkReferences": {},
			"object": "608060405234801561001057600080fd5b5061047e806100206000396000f3fe60806040526004361061003f5760003560e01c806328657aa5146100445780633ccfd60b1461006f578063bf15276514610079578063d0e30db0146100a4575b600080fd5b34801561005057600080fd5b506100596100ae565b6040516100669190610356565b60405180910390f35b6100776100b6565b005b34801561008557600080fd5b5061008e61022f565b60405161009b9190610356565b60405180910390f35b6100ac610275565b005b600047905090565b60008060003373ffffffffffffffffffffffffffffffffffffffff1673ffffffffffffffffffffffffffffffffffffffff1681526020019081526020016000205411610137576040517f08c379a000000000000000000000000000000000000000000000000000000000815260040161012e90610336565b60405180910390fd5b60003373ffffffffffffffffffffffffffffffffffffffff166000803373ffffffffffffffffffffffffffffffffffffffff1673ffffffffffffffffffffffffffffffffffffffff1681526020019081526020016000205460405161019b90610321565b60006040518083038185875af1925050503d80600081146101d8576040519150601f19603f3d011682016040523d82523d6000602084013e6101dd565b606091505b50509050801561022c5760008060003373ffffffffffffffffffffffffffffffffffffffff1673ffffffffffffffffffffffffffffffffffffffff168152602001908152602001600020819055505b50565b60008060003373ffffffffffffffffffffffffffffffffffffffff1673ffffffffffffffffffffffffffffffffffffffff16815260200190815260200160002054905090565b346000803373ffffffffffffffffffffffffffffffffffffffff1673ffffffffffffffffffffffffffffffffffffffff16815260200190815260200160002060008282546102c3919061038d565b92505081905550565b60006102d960208361037c565b91506102e48261041c565b602082019050919050565b60006102fc600083610371565b915061030782610445565b600082019050919050565b61031b816103e3565b82525050565b600061032c826102ef565b9150819050919050565b6000602082019050818103600083015261034f816102cc565b9050919050565b600060208201905061036b6000830184610312565b92915050565b600081905092915050565b600082825260208201905092915050565b6000610398826103e3565b91506103a3836103e3565b9250827fffffffffffffffffffffffffffffffffffffffffffffffffffffffffffffffff038211156103d8576103d76103ed565b5b828201905092915050565b6000819050919050565b7f4e487b7100000000000000000000000000000000000000000000000000000000600052601160045260246000fd5b7f42616c616e6365206d757374206265206c6172676572207468616e207a65726f600082015250565b5056fea2646970667358221220000fc78245dd819d912db13aa7369303ac8bd64f93d0877c471edbaa295f3bb264736f6c63430008070033",
			"opcodes": "PUSH1 0x80 PUSH1 0x40 MSTORE CALLVALUE DUP1 ISZERO PUSH2 0x10 JUMPI PUSH1 0x0 DUP1 REVERT JUMPDEST POP PUSH2 0x47E DUP1 PUSH2 0x20 PUSH1 0x0 CODECOPY PUSH1 0x0 RETURN INVALID PUSH1 0x80 PUSH1 0x40 MSTORE PUSH1 0x4 CALLDATASIZE LT PUSH2 0x3F JUMPI PUSH1 0x0 CALLDATALOAD PUSH1 0xE0 SHR DUP1 PUSH4 0x28657AA5 EQ PUSH2 0x44 JUMPI DUP1 PUSH4 0x3CCFD60B EQ PUSH2 0x6F JUMPI DUP1 PUSH4 0xBF152765 EQ PUSH2 0x79 JUMPI DUP1 PUSH4 0xD0E30DB0 EQ PUSH2 0xA4 JUMPI JUMPDEST PUSH1 0x0 DUP1 REVERT JUMPDEST CALLVALUE DUP1 ISZERO PUSH2 0x50 JUMPI PUSH1 0x0 DUP1 REVERT JUMPDEST POP PUSH2 0x59 PUSH2 0xAE JUMP JUMPDEST PUSH1 0x40 MLOAD PUSH2 0x66 SWAP2 SWAP1 PUSH2 0x356 JUMP JUMPDEST PUSH1 0x40 MLOAD DUP1 SWAP2 SUB SWAP1 RETURN JUMPDEST PUSH2 0x77 PUSH2 0xB6 JUMP JUMPDEST STOP JUMPDEST CALLVALUE DUP1 ISZERO PUSH2 0x85 JUMPI PUSH1 0x0 DUP1 REVERT JUMPDEST POP PUSH2 0x8E PUSH2 0x22F JUMP JUMPDEST PUSH1 0x40 MLOAD PUSH2 0x9B SWAP2 SWAP1 PUSH2 0x356 JUMP JUMPDEST PUSH1 0x40 MLOAD DUP1 SWAP2 SUB SWAP1 RETURN JUMPDEST PUSH2 0xAC PUSH2 0x275 JUMP JUMPDEST STOP JUMPDEST PUSH1 0x0 SELFBALANCE SWAP1 POP SWAP1 JUMP JUMPDEST PUSH1 0x0 DUP1 PUSH1 0x0 CALLER PUSH20 0xFFFFFFFFFFFFFFFFFFFFFFFFFFFFFFFFFFFFFFFF AND PUSH20 0xFFFFFFFFFFFFFFFFFFFFFFFFFFFFFFFFFFFFFFFF AND DUP2 MSTORE PUSH1 0x20 ADD SWAP1 DUP2 MSTORE PUSH1 0x20 ADD PUSH1 0x0 KECCAK256 SLOAD GT PUSH2 0x137 JUMPI PUSH1 0x40 MLOAD PUSH32 0x8C379A000000000000000000000000000000000000000000000000000000000 DUP2 MSTORE PUSH1 0x4 ADD PUSH2 0x12E SWAP1 PUSH2 0x336 JUMP JUMPDEST PUSH1 0x40 MLOAD DUP1 SWAP2 SUB SWAP1 REVERT JUMPDEST PUSH1 0x0 CALLER PUSH20 0xFFFFFFFFFFFFFFFFFFFFFFFFFFFFFFFFFFFFFFFF AND PUSH1 0x0 DUP1 CALLER PUSH20 0xFFFFFFFFFFFFFFFFFFFFFFFFFFFFFFFFFFFFFFFF AND PUSH20 0xFFFFFFFFFFFFFFFFFFFFFFFFFFFFFFFFFFFFFFFF AND DUP2 MSTORE PUSH1 0x20 ADD SWAP1 DUP2 MSTORE PUSH1 0x20 ADD PUSH1 0x0 KECCAK256 SLOAD PUSH1 0x40 MLOAD PUSH2 0x19B SWAP1 PUSH2 0x321 JUMP JUMPDEST PUSH1 0x0 PUSH1 0x40 MLOAD DUP1 DUP4 SUB DUP2 DUP6 DUP8 GAS CALL SWAP3 POP POP POP RETURNDATASIZE DUP1 PUSH1 0x0 DUP2 EQ PUSH2 0x1D8 JUMPI PUSH1 0x40 MLOAD SWAP2 POP PUSH1 0x1F NOT PUSH1 0x3F RETURNDATASIZE ADD AND DUP3 ADD PUSH1 0x40 MSTORE RETURNDATASIZE DUP3 MSTORE RETURNDATASIZE PUSH1 0x0 PUSH1 0x20 DUP5 ADD RETURNDATACOPY PUSH2 0x1DD JUMP JUMPDEST PUSH1 0x60 SWAP2 POP JUMPDEST POP POP SWAP1 POP DUP1 ISZERO PUSH2 0x22C JUMPI PUSH1 0x0 DUP1 PUSH1 0x0 CALLER PUSH20 0xFFFFFFFFFFFFFFFFFFFFFFFFFFFFFFFFFFFFFFFF AND PUSH20 0xFFFFFFFFFFFFFFFFFFFFFFFFFFFFFFFFFFFFFFFF AND DUP2 MSTORE PUSH1 0x20 ADD SWAP1 DUP2 MSTORE PUSH1 0x20 ADD PUSH1 0x0 KECCAK256 DUP2 SWAP1 SSTORE POP JUMPDEST POP JUMP JUMPDEST PUSH1 0x0 DUP1 PUSH1 0x0 CALLER PUSH20 0xFFFFFFFFFFFFFFFFFFFFFFFFFFFFFFFFFFFFFFFF AND PUSH20 0xFFFFFFFFFFFFFFFFFFFFFFFFFFFFFFFFFFFFFFFF AND DUP2 MSTORE PUSH1 0x20 ADD SWAP1 DUP2 MSTORE PUSH1 0x20 ADD PUSH1 0x0 KECCAK256 SLOAD SWAP1 POP SWAP1 JUMP JUMPDEST CALLVALUE PUSH1 0x0 DUP1 CALLER PUSH20 0xFFFFFFFFFFFFFFFFFFFFFFFFFFFFFFFFFFFFFFFF AND PUSH20 0xFFFFFFFFFFFFFFFFFFFFFFFFFFFFFFFFFFFFFFFF AND DUP2 MSTORE PUSH1 0x20 ADD SWAP1 DUP2 MSTORE PUSH1 0x20 ADD PUSH1 0x0 KECCAK256 PUSH1 0x0 DUP3 DUP3 SLOAD PUSH2 0x2C3 SWAP2 SWAP1 PUSH2 0x38D JUMP JUMPDEST SWAP3 POP POP DUP2 SWAP1 SSTORE POP JUMP JUMPDEST PUSH1 0x0 PUSH2 0x2D9 PUSH1 0x20 DUP4 PUSH2 0x37C JUMP JUMPDEST SWAP2 POP PUSH2 0x2E4 DUP3 PUSH2 0x41C JUMP JUMPDEST PUSH1 0x20 DUP3 ADD SWAP1 POP SWAP2 SWAP1 POP JUMP JUMPDEST PUSH1 0x0 PUSH2 0x2FC PUSH1 0x0 DUP4 PUSH2 0x371 JUMP JUMPDEST SWAP2 POP PUSH2 0x307 DUP3 PUSH2 0x445 JUMP JUMPDEST PUSH1 0x0 DUP3 ADD SWAP1 POP SWAP2 SWAP1 POP JUMP JUMPDEST PUSH2 0x31B DUP2 PUSH2 0x3E3 JUMP JUMPDEST DUP3 MSTORE POP POP JUMP JUMPDEST PUSH1 0x0 PUSH2 0x32C DUP3 PUSH2 0x2EF JUMP JUMPDEST SWAP2 POP DUP2 SWAP1 POP SWAP2 SWAP1 POP JUMP JUMPDEST PUSH1 0x0 PUSH1 0x20 DUP3 ADD SWAP1 POP DUP2 DUP2 SUB PUSH1 0x0 DUP4 ADD MSTORE PUSH2 0x34F DUP2 PUSH2 0x2CC JUMP JUMPDEST SWAP1 POP SWAP2 SWAP1 POP JUMP JUMPDEST PUSH1 0x0 PUSH1 0x20 DUP3 ADD SWAP1 POP PUSH2 0x36B PUSH1 0x0 DUP4 ADD DUP5 PUSH2 0x312 JUMP JUMPDEST SWAP3 SWAP2 POP POP JUMP JUMPDEST PUSH1 0x0 DUP2 SWAP1 POP SWAP3 SWAP2 POP POP JUMP JUMPDEST PUSH1 0x0 DUP3 DUP3 MSTORE PUSH1 0x20 DUP3 ADD SWAP1 POP SWAP3 SWAP2 POP POP JUMP JUMPDEST PUSH1 0x0 PUSH2 0x398 DUP3 PUSH2 0x3E3 JUMP JUMPDEST SWAP2 POP PUSH2 0x3A3 DUP4 PUSH2 0x3E3 JUMP JUMPDEST SWAP3 POP DUP3 PUSH32 0xFFFFFFFFFFFFFFFFFFFFFFFFFFFFFFFFFFFFFFFFFFFFFFFFFFFFFFFFFFFFFFFF SUB DUP3 GT ISZERO PUSH2 0x3D8 JUMPI PUSH2 0x3D7 PUSH2 0x3ED JUMP JUMPDEST JUMPDEST DUP3 DUP3 ADD SWAP1 POP SWAP3 SWAP2 POP POP JUMP JUMPDEST PUSH1 0x0 DUP2 SWAP1 POP SWAP2 SWAP1 POP JUMP JUMPDEST PUSH32 0x4E487B7100000000000000000000000000000000000000000000000000000000 PUSH1 0x0 MSTORE PUSH1 0x11 PUSH1 0x4 MSTORE PUSH1 0x24 PUSH1 0x0 REVERT JUMPDEST PUSH32 0x42616C616E6365206D757374206265206C6172676572207468616E207A65726F PUSH1 0x0 DUP3 ADD MSTORE POP JUMP JUMPDEST POP JUMP INVALID LOG2 PUSH5 0x6970667358 0x22 SLT KECCAK256 STOP 0xF 0xC7 DUP3 GASLIMIT 0xDD DUP2 SWAP14 SWAP2 0x2D 0xB1 GASPRICE 0xA7 CALLDATASIZE SWAP4 SUB 0xAC DUP12 0xD6 0x4F SWAP4 0xD0 DUP8 PUSH29 0x471EDBAA295F3BB264736F6C6343000807003300000000000000000000 "
		},
		"gasEstimates": {
			"creation": {
				"codeDepositCost": "230000",
				"executionCost": "269",
				"totalCost": "230269"
			},
			"external": {
				"bankBalance()": "317",
				"deposit()": "infinite",
				"userBalance()": "2548",
				"withdraw()": "infinite"
			}
		},
		"methodIdentifiers": {
			"bankBalance()": "28657aa5",
			"deposit()": "d0e30db0",
			"userBalance()": "bf152765",
			"withdraw()": "3ccfd60b"
		}
	},
	"abi": [
		{
			"inputs": [],
			"name": "bankBalance",
			"outputs": [
				{
					"internalType": "uint256",
					"name": "",
					"type": "uint256"
				}
			],
			"stateMutability": "view",
			"type": "function"
		},
		{
			"inputs": [],
			"name": "deposit",
			"outputs": [],
			"stateMutability": "payable",
			"type": "function"
		},
		{
			"inputs": [],
			"name": "userBalance",
			"outputs": [
				{
					"internalType": "uint256",
					"name": "",
					"type": "uint256"
				}
			],
			"stateMutability": "view",
			"type": "function"
		},
		{
			"inputs": [],
			"name": "withdraw",
			"outputs": [],
			"stateMutability": "payable",
			"type": "function"
		}
	]
}