{
	"data": {
		"bytecode": {
			"linkReferences": {},
			"object": "60806040526000805534801561001457600080fd5b5033600260006101000a81548173ffffffffffffffffffffffffffffffffffffffff021916908373ffffffffffffffffffffffffffffffffffffffff160217905550610800806100656000396000f3fe608060405234801561001057600080fd5b50600436106100365760003560e01c806322f5b58d1461003b578063246982c414610057575b600080fd5b61005560048036038101906100509190610424565b610087565b005b610071600480360381019061006c919061049c565b610165565b60405161007e9190610568565b60405180910390f35b600260009054906101000a900473ffffffffffffffffffffffffffffffffffffffff1673ffffffffffffffffffffffffffffffffffffffff163373ffffffffffffffffffffffffffffffffffffffff16146100e157600080fd5b6100e96102c0565b604051806060016040528060005481526020018381526020018281525060016000805481526020019081526020016000206000820151816000015560208201518160010190805190602001906101409291906102db565b50604082015181600201908051906020019061015d9291906102db565b509050505050565b61016d610361565b60016000838152602001908152602001600020604051806060016040529081600082015481526020016001820180546101a59061069e565b80601f01602080910402602001604051908101604052809291908181526020018280546101d19061069e565b801561021e5780601f106101f35761010080835404028352916020019161021e565b820191906000526020600020905b81548152906001019060200180831161020157829003601f168201915b505050505081526020016002820180546102379061069e565b80601f01602080910402602001604051908101604052809291908181526020018280546102639061069e565b80156102b05780601f10610285576101008083540402835291602001916102b0565b820191906000526020600020905b81548152906001019060200180831161029357829003601f168201915b5050505050815250509050919050565b60016000808282546102d291906105fc565b92505081905550565b8280546102e79061069e565b90600052602060002090601f0160209004810192826103095760008555610350565b82601f1061032257805160ff1916838001178555610350565b82800160010185558215610350579182015b8281111561034f578251825591602001919060010190610334565b5b50905061035d9190610382565b5090565b60405180606001604052806000815260200160608152602001606081525090565b5b8082111561039b576000816000905550600101610383565b5090565b60006103b26103ad846105af565b61058a565b9050828152602081018484840111156103ce576103cd610793565b5b6103d984828561065c565b509392505050565b600082601f8301126103f6576103f561078e565b5b813561040684826020860161039f565b91505092915050565b60008135905061041e816107b3565b92915050565b6000806040838503121561043b5761043a61079d565b5b600083013567ffffffffffffffff81111561045957610458610798565b5b610465858286016103e1565b925050602083013567ffffffffffffffff81111561048657610485610798565b5b610492858286016103e1565b9150509250929050565b6000602082840312156104b2576104b161079d565b5b60006104c08482850161040f565b91505092915050565b60006104d4826105e0565b6104de81856105eb565b93506104ee81856020860161066b565b6104f7816107a2565b840191505092915050565b600060608301600083015161051a6000860182610559565b506020830151848203602086015261053282826104c9565b9150506040830151848203604086015261054c82826104c9565b9150508091505092915050565b61056281610652565b82525050565b600060208201905081810360008301526105828184610502565b905092915050565b60006105946105a5565b90506105a082826106d0565b919050565b6000604051905090565b600067ffffffffffffffff8211156105ca576105c961075f565b5b6105d3826107a2565b9050602081019050919050565b600081519050919050565b600082825260208201905092915050565b600061060782610652565b915061061283610652565b9250827fffffffffffffffffffffffffffffffffffffffffffffffffffffffffffffffff0382111561064757610646610701565b5b828201905092915050565b6000819050919050565b82818337600083830152505050565b60005b8381101561068957808201518184015260208101905061066e565b83811115610698576000848401525b50505050565b600060028204905060018216806106b657607f821691505b602082108114156106ca576106c9610730565b5b50919050565b6106d9826107a2565b810181811067ffffffffffffffff821117156106f8576106f761075f565b5b80604052505050565b7f4e487b7100000000000000000000000000000000000000000000000000000000600052601160045260246000fd5b7f4e487b7100000000000000000000000000000000000000000000000000000000600052602260045260246000fd5b7f4e487b7100000000000000000000000000000000000000000000000000000000600052604160045260246000fd5b600080fd5b600080fd5b600080fd5b600080fd5b6000601f19601f8301169050919050565b6107bc81610652565b81146107c757600080fd5b5056fea26469706673582212200768e2cc243b9e1cb1795e77fa76314c8a213c23d028a307f940b62a75b5c68964736f6c63430008070033",
			"opcodes": "PUSH1 0x80 PUSH1 0x40 MSTORE PUSH1 0x0 DUP1 SSTORE CALLVALUE DUP1 ISZERO PUSH2 0x14 JUMPI PUSH1 0x0 DUP1 REVERT JUMPDEST POP CALLER PUSH1 0x2 PUSH1 0x0 PUSH2 0x100 EXP DUP2 SLOAD DUP2 PUSH20 0xFFFFFFFFFFFFFFFFFFFFFFFFFFFFFFFFFFFFFFFF MUL NOT AND SWAP1 DUP4 PUSH20 0xFFFFFFFFFFFFFFFFFFFFFFFFFFFFFFFFFFFFFFFF AND MUL OR SWAP1 SSTORE POP PUSH2 0x800 DUP1 PUSH2 0x65 PUSH1 0x0 CODECOPY PUSH1 0x0 RETURN INVALID PUSH1 0x80 PUSH1 0x40 MSTORE CALLVALUE DUP1 ISZERO PUSH2 0x10 JUMPI PUSH1 0x0 DUP1 REVERT JUMPDEST POP PUSH1 0x4 CALLDATASIZE LT PUSH2 0x36 JUMPI PUSH1 0x0 CALLDATALOAD PUSH1 0xE0 SHR DUP1 PUSH4 0x22F5B58D EQ PUSH2 0x3B JUMPI DUP1 PUSH4 0x246982C4 EQ PUSH2 0x57 JUMPI JUMPDEST PUSH1 0x0 DUP1 REVERT JUMPDEST PUSH2 0x55 PUSH1 0x4 DUP1 CALLDATASIZE SUB DUP2 ADD SWAP1 PUSH2 0x50 SWAP2 SWAP1 PUSH2 0x424 JUMP JUMPDEST PUSH2 0x87 JUMP JUMPDEST STOP JUMPDEST PUSH2 0x71 PUSH1 0x4 DUP1 CALLDATASIZE SUB DUP2 ADD SWAP1 PUSH2 0x6C SWAP2 SWAP1 PUSH2 0x49C JUMP JUMPDEST PUSH2 0x165 JUMP JUMPDEST PUSH1 0x40 MLOAD PUSH2 0x7E SWAP2 SWAP1 PUSH2 0x568 JUMP JUMPDEST PUSH1 0x40 MLOAD DUP1 SWAP2 SUB SWAP1 RETURN JUMPDEST PUSH1 0x2 PUSH1 0x0 SWAP1 SLOAD SWAP1 PUSH2 0x100 EXP SWAP1 DIV PUSH20 0xFFFFFFFFFFFFFFFFFFFFFFFFFFFFFFFFFFFFFFFF AND PUSH20 0xFFFFFFFFFFFFFFFFFFFFFFFFFFFFFFFFFFFFFFFF AND CALLER PUSH20 0xFFFFFFFFFFFFFFFFFFFFFFFFFFFFFFFFFFFFFFFF AND EQ PUSH2 0xE1 JUMPI PUSH1 0x0 DUP1 REVERT JUMPDEST PUSH2 0xE9 PUSH2 0x2C0 JUMP JUMPDEST PUSH1 0x40 MLOAD DUP1 PUSH1 0x60 ADD PUSH1 0x40 MSTORE DUP1 PUSH1 0x0 SLOAD DUP2 MSTORE PUSH1 0x20 ADD DUP4 DUP2 MSTORE PUSH1 0x20 ADD DUP3 DUP2 MSTORE POP PUSH1 0x1 PUSH1 0x0 DUP1 SLOAD DUP2 MSTORE PUSH1 0x20 ADD SWAP1 DUP2 MSTORE PUSH1 0x20 ADD PUSH1 0x0 KECCAK256 PUSH1 0x0 DUP3 ADD MLOAD DUP2 PUSH1 0x0 ADD SSTORE PUSH1 0x20 DUP3 ADD MLOAD DUP2 PUSH1 0x1 ADD SWAP1 DUP1 MLOAD SWAP1 PUSH1 0x20 ADD SWAP1 PUSH2 0x140 SWAP3 SWAP2 SWAP1 PUSH2 0x2DB JUMP JUMPDEST POP PUSH1 0x40 DUP3 ADD MLOAD DUP2 PUSH1 0x2 ADD SWAP1 DUP1 MLOAD SWAP1 PUSH1 0x20 ADD SWAP1 PUSH2 0x15D SWAP3 SWAP2 SWAP1 PUSH2 0x2DB JUMP JUMPDEST POP SWAP1 POP POP POP POP JUMP JUMPDEST PUSH2 0x16D PUSH2 0x361 JUMP JUMPDEST PUSH1 0x1 PUSH1 0x0 DUP4 DUP2 MSTORE PUSH1 0x20 ADD SWAP1 DUP2 MSTORE PUSH1 0x20 ADD PUSH1 0x0 KECCAK256 PUSH1 0x40 MLOAD DUP1 PUSH1 0x60 ADD PUSH1 0x40 MSTORE SWAP1 DUP2 PUSH1 0x0 DUP3 ADD SLOAD DUP2 MSTORE PUSH1 0x20 ADD PUSH1 0x1 DUP3 ADD DUP1 SLOAD PUSH2 0x1A5 SWAP1 PUSH2 0x69E JUMP JUMPDEST DUP1 PUSH1 0x1F ADD PUSH1 0x20 DUP1 SWAP2 DIV MUL PUSH1 0x20 ADD PUSH1 0x40 MLOAD SWAP1 DUP2 ADD PUSH1 0x40 MSTORE DUP1 SWAP3 SWAP2 SWAP1 DUP2 DUP2 MSTORE PUSH1 0x20 ADD DUP3 DUP1 SLOAD PUSH2 0x1D1 SWAP1 PUSH2 0x69E JUMP JUMPDEST DUP1 ISZERO PUSH2 0x21E JUMPI DUP1 PUSH1 0x1F LT PUSH2 0x1F3 JUMPI PUSH2 0x100 DUP1 DUP4 SLOAD DIV MUL DUP4 MSTORE SWAP2 PUSH1 0x20 ADD SWAP2 PUSH2 0x21E JUMP JUMPDEST DUP3 ADD SWAP2 SWAP1 PUSH1 0x0 MSTORE PUSH1 0x20 PUSH1 0x0 KECCAK256 SWAP1 JUMPDEST DUP2 SLOAD DUP2 MSTORE SWAP1 PUSH1 0x1 ADD SWAP1 PUSH1 0x20 ADD DUP1 DUP4 GT PUSH2 0x201 JUMPI DUP3 SWAP1 SUB PUSH1 0x1F AND DUP3 ADD SWAP2 JUMPDEST POP POP POP POP POP DUP2 MSTORE PUSH1 0x20 ADD PUSH1 0x2 DUP3 ADD DUP1 SLOAD PUSH2 0x237 SWAP1 PUSH2 0x69E JUMP JUMPDEST DUP1 PUSH1 0x1F ADD PUSH1 0x20 DUP1 SWAP2 DIV MUL PUSH1 0x20 ADD PUSH1 0x40 MLOAD SWAP1 DUP2 ADD PUSH1 0x40 MSTORE DUP1 SWAP3 SWAP2 SWAP1 DUP2 DUP2 MSTORE PUSH1 0x20 ADD DUP3 DUP1 SLOAD PUSH2 0x263 SWAP1 PUSH2 0x69E JUMP JUMPDEST DUP1 ISZERO PUSH2 0x2B0 JUMPI DUP1 PUSH1 0x1F LT PUSH2 0x285 JUMPI PUSH2 0x100 DUP1 DUP4 SLOAD DIV MUL DUP4 MSTORE SWAP2 PUSH1 0x20 ADD SWAP2 PUSH2 0x2B0 JUMP JUMPDEST DUP3 ADD SWAP2 SWAP1 PUSH1 0x0 MSTORE PUSH1 0x20 PUSH1 0x0 KECCAK256 SWAP1 JUMPDEST DUP2 SLOAD DUP2 MSTORE SWAP1 PUSH1 0x1 ADD SWAP1 PUSH1 0x20 ADD DUP1 DUP4 GT PUSH2 0x293 JUMPI DUP3 SWAP1 SUB PUSH1 0x1F AND DUP3 ADD SWAP2 JUMPDEST POP POP POP POP POP DUP2 MSTORE POP POP SWAP1 POP SWAP2 SWAP1 POP JUMP JUMPDEST PUSH1 0x1 PUSH1 0x0 DUP1 DUP3 DUP3 SLOAD PUSH2 0x2D2 SWAP2 SWAP1 PUSH2 0x5FC JUMP JUMPDEST SWAP3 POP POP DUP2 SWAP1 SSTORE POP JUMP JUMPDEST DUP3 DUP1 SLOAD PUSH2 0x2E7 SWAP1 PUSH2 0x69E JUMP JUMPDEST SWAP1 PUSH1 0x0 MSTORE PUSH1 0x20 PUSH1 0x0 KECCAK256 SWAP1 PUSH1 0x1F ADD PUSH1 0x20 SWAP1 DIV DUP2 ADD SWAP3 DUP3 PUSH2 0x309 JUMPI PUSH1 0x0 DUP6 SSTORE PUSH2 0x350 JUMP JUMPDEST DUP3 PUSH1 0x1F LT PUSH2 0x322 JUMPI DUP1 MLOAD PUSH1 0xFF NOT AND DUP4 DUP1 ADD OR DUP6 SSTORE PUSH2 0x350 JUMP JUMPDEST DUP3 DUP1 ADD PUSH1 0x1 ADD DUP6 SSTORE DUP3 ISZERO PUSH2 0x350 JUMPI SWAP2 DUP3 ADD JUMPDEST DUP3 DUP2 GT ISZERO PUSH2 0x34F JUMPI DUP3 MLOAD DUP3 SSTORE SWAP2 PUSH1 0x20 ADD SWAP2 SWAP1 PUSH1 0x1 ADD SWAP1 PUSH2 0x334 JUMP JUMPDEST JUMPDEST POP SWAP1 POP PUSH2 0x35D SWAP2 SWAP1 PUSH2 0x382 JUMP JUMPDEST POP SWAP1 JUMP JUMPDEST PUSH1 0x40 MLOAD DUP1 PUSH1 0x60 ADD PUSH1 0x40 MSTORE DUP1 PUSH1 0x0 DUP2 MSTORE PUSH1 0x20 ADD PUSH1 0x60 DUP2 MSTORE PUSH1 0x20 ADD PUSH1 0x60 DUP2 MSTORE POP SWAP1 JUMP JUMPDEST JUMPDEST DUP1 DUP3 GT ISZERO PUSH2 0x39B JUMPI PUSH1 0x0 DUP2 PUSH1 0x0 SWAP1 SSTORE POP PUSH1 0x1 ADD PUSH2 0x383 JUMP JUMPDEST POP SWAP1 JUMP JUMPDEST PUSH1 0x0 PUSH2 0x3B2 PUSH2 0x3AD DUP5 PUSH2 0x5AF JUMP JUMPDEST PUSH2 0x58A JUMP JUMPDEST SWAP1 POP DUP3 DUP2 MSTORE PUSH1 0x20 DUP2 ADD DUP5 DUP5 DUP5 ADD GT ISZERO PUSH2 0x3CE JUMPI PUSH2 0x3CD PUSH2 0x793 JUMP JUMPDEST JUMPDEST PUSH2 0x3D9 DUP5 DUP3 DUP6 PUSH2 0x65C JUMP JUMPDEST POP SWAP4 SWAP3 POP POP POP JUMP JUMPDEST PUSH1 0x0 DUP3 PUSH1 0x1F DUP4 ADD SLT PUSH2 0x3F6 JUMPI PUSH2 0x3F5 PUSH2 0x78E JUMP JUMPDEST JUMPDEST DUP2 CALLDATALOAD PUSH2 0x406 DUP5 DUP3 PUSH1 0x20 DUP7 ADD PUSH2 0x39F JUMP JUMPDEST SWAP2 POP POP SWAP3 SWAP2 POP POP JUMP JUMPDEST PUSH1 0x0 DUP2 CALLDATALOAD SWAP1 POP PUSH2 0x41E DUP2 PUSH2 0x7B3 JUMP JUMPDEST SWAP3 SWAP2 POP POP JUMP JUMPDEST PUSH1 0x0 DUP1 PUSH1 0x40 DUP4 DUP6 SUB SLT ISZERO PUSH2 0x43B JUMPI PUSH2 0x43A PUSH2 0x79D JUMP JUMPDEST JUMPDEST PUSH1 0x0 DUP4 ADD CALLDATALOAD PUSH8 0xFFFFFFFFFFFFFFFF DUP2 GT ISZERO PUSH2 0x459 JUMPI PUSH2 0x458 PUSH2 0x798 JUMP JUMPDEST JUMPDEST PUSH2 0x465 DUP6 DUP3 DUP7 ADD PUSH2 0x3E1 JUMP JUMPDEST SWAP3 POP POP PUSH1 0x20 DUP4 ADD CALLDATALOAD PUSH8 0xFFFFFFFFFFFFFFFF DUP2 GT ISZERO PUSH2 0x486 JUMPI PUSH2 0x485 PUSH2 0x798 JUMP JUMPDEST JUMPDEST PUSH2 0x492 DUP6 DUP3 DUP7 ADD PUSH2 0x3E1 JUMP JUMPDEST SWAP2 POP POP SWAP3 POP SWAP3 SWAP1 POP JUMP JUMPDEST PUSH1 0x0 PUSH1 0x20 DUP3 DUP5 SUB SLT ISZERO PUSH2 0x4B2 JUMPI PUSH2 0x4B1 PUSH2 0x79D JUMP JUMPDEST JUMPDEST PUSH1 0x0 PUSH2 0x4C0 DUP5 DUP3 DUP6 ADD PUSH2 0x40F JUMP JUMPDEST SWAP2 POP POP SWAP3 SWAP2 POP POP JUMP JUMPDEST PUSH1 0x0 PUSH2 0x4D4 DUP3 PUSH2 0x5E0 JUMP JUMPDEST PUSH2 0x4DE DUP2 DUP6 PUSH2 0x5EB JUMP JUMPDEST SWAP4 POP PUSH2 0x4EE DUP2 DUP6 PUSH1 0x20 DUP7 ADD PUSH2 0x66B JUMP JUMPDEST PUSH2 0x4F7 DUP2 PUSH2 0x7A2 JUMP JUMPDEST DUP5 ADD SWAP2 POP POP SWAP3 SWAP2 POP POP JUMP JUMPDEST PUSH1 0x0 PUSH1 0x60 DUP4 ADD PUSH1 0x0 DUP4 ADD MLOAD PUSH2 0x51A PUSH1 0x0 DUP7 ADD DUP3 PUSH2 0x559 JUMP JUMPDEST POP PUSH1 0x20 DUP4 ADD MLOAD DUP5 DUP3 SUB PUSH1 0x20 DUP7 ADD MSTORE PUSH2 0x532 DUP3 DUP3 PUSH2 0x4C9 JUMP JUMPDEST SWAP2 POP POP PUSH1 0x40 DUP4 ADD MLOAD DUP5 DUP3 SUB PUSH1 0x40 DUP7 ADD MSTORE PUSH2 0x54C DUP3 DUP3 PUSH2 0x4C9 JUMP JUMPDEST SWAP2 POP POP DUP1 SWAP2 POP POP SWAP3 SWAP2 POP POP JUMP JUMPDEST PUSH2 0x562 DUP2 PUSH2 0x652 JUMP JUMPDEST DUP3 MSTORE POP POP JUMP JUMPDEST PUSH1 0x0 PUSH1 0x20 DUP3 ADD SWAP1 POP DUP2 DUP2 SUB PUSH1 0x0 DUP4 ADD MSTORE PUSH2 0x582 DUP2 DUP5 PUSH2 0x502 JUMP JUMPDEST SWAP1 POP SWAP3 SWAP2 POP POP JUMP JUMPDEST PUSH1 0x0 PUSH2 0x594 PUSH2 0x5A5 JUMP JUMPDEST SWAP1 POP PUSH2 0x5A0 DUP3 DUP3 PUSH2 0x6D0 JUMP JUMPDEST SWAP2 SWAP1 POP JUMP JUMPDEST PUSH1 0x0 PUSH1 0x40 MLOAD SWAP1 POP SWAP1 JUMP JUMPDEST PUSH1 0x0 PUSH8 0xFFFFFFFFFFFFFFFF DUP3 GT ISZERO PUSH2 0x5CA JUMPI PUSH2 0x5C9 PUSH2 0x75F JUMP JUMPDEST JUMPDEST PUSH2 0x5D3 DUP3 PUSH2 0x7A2 JUMP JUMPDEST SWAP1 POP PUSH1 0x20 DUP2 ADD SWAP1 POP SWAP2 SWAP1 POP JUMP JUMPDEST PUSH1 0x0 DUP2 MLOAD SWAP1 POP SWAP2 SWAP1 POP JUMP JUMPDEST PUSH1 0x0 DUP3 DUP3 MSTORE PUSH1 0x20 DUP3 ADD SWAP1 POP SWAP3 SWAP2 POP POP JUMP JUMPDEST PUSH1 0x0 PUSH2 0x607 DUP3 PUSH2 0x652 JUMP JUMPDEST SWAP2 POP PUSH2 0x612 DUP4 PUSH2 0x652 JUMP JUMPDEST SWAP3 POP DUP3 PUSH32 0xFFFFFFFFFFFFFFFFFFFFFFFFFFFFFFFFFFFFFFFFFFFFFFFFFFFFFFFFFFFFFFFF SUB DUP3 GT ISZERO PUSH2 0x647 JUMPI PUSH2 0x646 PUSH2 0x701 JUMP JUMPDEST JUMPDEST DUP3 DUP3 ADD SWAP1 POP SWAP3 SWAP2 POP POP JUMP JUMPDEST PUSH1 0x0 DUP2 SWAP1 POP SWAP2 SWAP1 POP JUMP JUMPDEST DUP3 DUP2 DUP4 CALLDATACOPY PUSH1 0x0 DUP4 DUP4 ADD MSTORE POP POP POP JUMP JUMPDEST PUSH1 0x0 JUMPDEST DUP4 DUP2 LT ISZERO PUSH2 0x689 JUMPI DUP1 DUP3 ADD MLOAD DUP2 DUP5 ADD MSTORE PUSH1 0x20 DUP2 ADD SWAP1 POP PUSH2 0x66E JUMP JUMPDEST DUP4 DUP2 GT ISZERO PUSH2 0x698 JUMPI PUSH1 0x0 DUP5 DUP5 ADD MSTORE JUMPDEST POP POP POP POP JUMP JUMPDEST PUSH1 0x0 PUSH1 0x2 DUP3 DIV SWAP1 POP PUSH1 0x1 DUP3 AND DUP1 PUSH2 0x6B6 JUMPI PUSH1 0x7F DUP3 AND SWAP2 POP JUMPDEST PUSH1 0x20 DUP3 LT DUP2 EQ ISZERO PUSH2 0x6CA JUMPI PUSH2 0x6C9 PUSH2 0x730 JUMP JUMPDEST JUMPDEST POP SWAP2 SWAP1 POP JUMP JUMPDEST PUSH2 0x6D9 DUP3 PUSH2 0x7A2 JUMP JUMPDEST DUP2 ADD DUP2 DUP2 LT PUSH8 0xFFFFFFFFFFFFFFFF DUP3 GT OR ISZERO PUSH2 0x6F8 JUMPI PUSH2 0x6F7 PUSH2 0x75F JUMP JUMPDEST JUMPDEST DUP1 PUSH1 0x40 MSTORE POP POP POP JUMP JUMPDEST PUSH32 0x4E487B7100000000000000000000000000000000000000000000000000000000 PUSH1 0x0 MSTORE PUSH1 0x11 PUSH1 0x4 MSTORE PUSH1 0x24 PUSH1 0x0 REVERT JUMPDEST PUSH32 0x4E487B7100000000000000000000000000000000000000000000000000000000 PUSH1 0x0 MSTORE PUSH1 0x22 PUSH1 0x4 MSTORE PUSH1 0x24 PUSH1 0x0 REVERT JUMPDEST PUSH32 0x4E487B7100000000000000000000000000000000000000000000000000000000 PUSH1 0x0 MSTORE PUSH1 0x41 PUSH1 0x4 MSTORE PUSH1 0x24 PUSH1 0x0 REVERT JUMPDEST PUSH1 0x0 DUP1 REVERT JUMPDEST PUSH1 0x0 DUP1 REVERT JUMPDEST PUSH1 0x0 DUP1 REVERT JUMPDEST PUSH1 0x0 DUP1 REVERT JUMPDEST PUSH1 0x0 PUSH1 0x1F NOT PUSH1 0x1F DUP4 ADD AND SWAP1 POP SWAP2 SWAP1 POP JUMP JUMPDEST PUSH2 0x7BC DUP2 PUSH2 0x652 JUMP JUMPDEST DUP2 EQ PUSH2 0x7C7 JUMPI PUSH1 0x0 DUP1 REVERT JUMPDEST POP JUMP INVALID LOG2 PUSH5 0x6970667358 0x22 SLT KECCAK256 SMOD PUSH9 0xE2CC243B9E1CB1795E PUSH24 0xFA76314C8A213C23D028A307F940B62A75B5C68964736F6C PUSH4 0x43000807 STOP CALLER "
		},
		"gasEstimates": {
			"creation": {
				"codeDepositCost": "409600",
				"executionCost": "29715",
				"totalCost": "439315"
			},
			"external": {
				"addPerson(string,string)": "infinite",
				"getPerson(uint256)": "infinite"
			},
			"internal": {
				"incrementCount()": "infinite"
			}
		},
		"methodIdentifiers": {
			"addPerson(string,string)": "22f5b58d",
			"getPerson(uint256)": "246982c4"
		}
	},
	"abi": [
		{
			"inputs": [],
			"stateMutability": "nonpayable",
			"type": "constructor"
		},
		{
			"inputs": [
				{
					"internalType": "string",
					"name": "_firstName",
					"type": "string"
				},
				{
					"internalType": "string",
					"name": "_lastName",
					"type": "string"
				}
			],
			"name": "addPerson",
			"outputs": [],
			"stateMutability": "nonpayable",
			"type": "function"
		},
		{
			"inputs": [
				{
					"internalType": "uint256",
					"name": "_id",
					"type": "uint256"
				}
			],
			"name": "getPerson",
			"outputs": [
				{
					"components": [
						{
							"internalType": "uint256",
							"name": "_id",
							"type": "uint256"
						},
						{
							"internalType": "string",
							"name": "_firstName",
							"type": "string"
						},
						{
							"internalType": "string",
							"name": "_lastName",
							"type": "string"
						}
					],
					"internalType": "struct People.Person",
					"name": "",
					"type": "tuple"
				}
			],
			"stateMutability": "view",
			"type": "function"
		}
	]
}